{
  "contractName": "PxgRegistrar",
  "abi": [
    {
      "inputs": [
        {
          "internalType": "string",
          "name": "baseUri",
          "type": "string"
        },
        {
          "internalType": "address",
          "name": "ensAddr",
          "type": "address"
        },
        {
          "internalType": "address",
          "name": "glyphAddr",
          "type": "address"
        },
        {
          "internalType": "bytes32",
          "name": "node",
          "type": "bytes32"
        }
      ],
      "stateMutability": "nonpayable",
      "type": "constructor"
    },
    {
      "anonymous": false,
      "inputs": [
        {
          "indexed": true,
          "internalType": "address",
          "name": "owner",
          "type": "address"
        },
        {
          "indexed": true,
          "internalType": "address",
          "name": "approved",
          "type": "address"
        },
        {
          "indexed": true,
          "internalType": "uint256",
          "name": "tokenId",
          "type": "uint256"
        }
      ],
      "name": "Approval",
      "type": "event"
    },
    {
      "anonymous": false,
      "inputs": [
        {
          "indexed": true,
          "internalType": "address",
          "name": "owner",
          "type": "address"
        },
        {
          "indexed": true,
          "internalType": "address",
          "name": "operator",
          "type": "address"
        },
        {
          "indexed": false,
          "internalType": "bool",
          "name": "approved",
          "type": "bool"
        }
      ],
      "name": "ApprovalForAll",
      "type": "event"
    },
    {
      "anonymous": false,
      "inputs": [
        {
          "indexed": true,
          "internalType": "address",
          "name": "previousOwner",
          "type": "address"
        },
        {
          "indexed": true,
          "internalType": "address",
          "name": "newOwner",
          "type": "address"
        }
      ],
      "name": "OwnershipTransferred",
      "type": "event"
    },
    {
      "anonymous": false,
      "inputs": [
        {
          "indexed": true,
          "internalType": "address",
          "name": "from",
          "type": "address"
        },
        {
          "indexed": true,
          "internalType": "address",
          "name": "to",
          "type": "address"
        },
        {
          "indexed": true,
          "internalType": "uint256",
          "name": "tokenId",
          "type": "uint256"
        }
      ],
      "name": "Transfer",
      "type": "event"
    },
    {
      "inputs": [],
      "name": "ROOT_NODE",
      "outputs": [
        {
          "internalType": "bytes32",
          "name": "",
          "type": "bytes32"
        }
      ],
      "stateMutability": "view",
      "type": "function",
      "constant": true
    },
    {
      "inputs": [
        {
          "internalType": "address",
          "name": "to",
          "type": "address"
        },
        {
          "internalType": "uint256",
          "name": "tokenId",
          "type": "uint256"
        }
      ],
      "name": "approve",
      "outputs": [],
      "stateMutability": "nonpayable",
      "type": "function"
    },
    {
      "inputs": [
        {
          "internalType": "address",
          "name": "owner",
          "type": "address"
        }
      ],
      "name": "balanceOf",
      "outputs": [
        {
          "internalType": "uint256",
          "name": "",
          "type": "uint256"
        }
      ],
      "stateMutability": "view",
      "type": "function",
      "constant": true
    },
    {
      "inputs": [
        {
          "internalType": "uint256",
          "name": "",
          "type": "uint256"
        }
      ],
      "name": "claimedGlyphIds",
      "outputs": [
        {
          "internalType": "bool",
          "name": "",
          "type": "bool"
        }
      ],
      "stateMutability": "view",
      "type": "function",
      "constant": true
    },
    {
      "inputs": [],
      "name": "currentResolverVersion",
      "outputs": [
        {
          "internalType": "uint256",
          "name": "",
          "type": "uint256"
        }
      ],
      "stateMutability": "view",
      "type": "function",
      "constant": true
    },
    {
      "inputs": [
        {
          "internalType": "uint256",
          "name": "tokenId",
          "type": "uint256"
        }
      ],
      "name": "getApproved",
      "outputs": [
        {
          "internalType": "address",
          "name": "",
          "type": "address"
        }
      ],
      "stateMutability": "view",
      "type": "function",
      "constant": true
    },
    {
      "inputs": [
        {
          "internalType": "address",
          "name": "owner",
          "type": "address"
        },
        {
          "internalType": "address",
          "name": "operator",
          "type": "address"
        }
      ],
      "name": "isApprovedForAll",
      "outputs": [
        {
          "internalType": "bool",
          "name": "",
          "type": "bool"
        }
      ],
      "stateMutability": "view",
      "type": "function",
      "constant": true
    },
    {
      "inputs": [],
      "name": "name",
      "outputs": [
        {
          "internalType": "string",
          "name": "",
          "type": "string"
        }
      ],
      "stateMutability": "view",
      "type": "function",
      "constant": true
    },
    {
      "inputs": [
        {
          "internalType": "bytes32",
          "name": "",
          "type": "bytes32"
        }
      ],
      "name": "nodeToLabel",
      "outputs": [
        {
          "internalType": "string",
          "name": "",
          "type": "string"
        }
      ],
      "stateMutability": "view",
      "type": "function",
      "constant": true
    },
    {
      "inputs": [],
      "name": "owner",
      "outputs": [
        {
          "internalType": "address",
          "name": "",
          "type": "address"
        }
      ],
      "stateMutability": "view",
      "type": "function",
      "constant": true
    },
    {
      "inputs": [
        {
          "internalType": "uint256",
          "name": "tokenId",
          "type": "uint256"
        }
      ],
      "name": "ownerOf",
      "outputs": [
        {
          "internalType": "address",
          "name": "",
          "type": "address"
        }
      ],
      "stateMutability": "view",
      "type": "function",
      "constant": true
    },
    {
      "inputs": [],
      "name": "renounceOwnership",
      "outputs": [],
      "stateMutability": "nonpayable",
      "type": "function"
    },
    {
      "inputs": [
        {
          "internalType": "uint256",
          "name": "",
          "type": "uint256"
        }
      ],
      "name": "resolvers",
      "outputs": [
        {
          "internalType": "address",
          "name": "",
          "type": "address"
        }
      ],
      "stateMutability": "view",
      "type": "function",
      "constant": true
    },
    {
      "inputs": [
        {
          "internalType": "address",
          "name": "",
          "type": "address"
        }
      ],
      "name": "reverseLookup",
      "outputs": [
        {
          "internalType": "bytes32",
          "name": "",
          "type": "bytes32"
        }
      ],
      "stateMutability": "view",
      "type": "function",
      "constant": true
    },
    {
      "inputs": [
        {
          "internalType": "address",
          "name": "from",
          "type": "address"
        },
        {
          "internalType": "address",
          "name": "to",
          "type": "address"
        },
        {
          "internalType": "uint256",
          "name": "tokenId",
          "type": "uint256"
        }
      ],
      "name": "safeTransferFrom",
      "outputs": [],
      "stateMutability": "nonpayable",
      "type": "function"
    },
    {
      "inputs": [
        {
          "internalType": "address",
          "name": "from",
          "type": "address"
        },
        {
          "internalType": "address",
          "name": "to",
          "type": "address"
        },
        {
          "internalType": "uint256",
          "name": "tokenId",
          "type": "uint256"
        },
        {
          "internalType": "bytes",
          "name": "_data",
          "type": "bytes"
        }
      ],
      "name": "safeTransferFrom",
      "outputs": [],
      "stateMutability": "nonpayable",
      "type": "function"
    },
    {
      "inputs": [
        {
          "internalType": "address",
          "name": "operator",
          "type": "address"
        },
        {
          "internalType": "bool",
          "name": "approved",
          "type": "bool"
        }
      ],
      "name": "setApprovalForAll",
      "outputs": [],
      "stateMutability": "nonpayable",
      "type": "function"
    },
    {
      "inputs": [
        {
          "internalType": "bytes4",
          "name": "interfaceId",
          "type": "bytes4"
        }
      ],
      "name": "supportsInterface",
      "outputs": [
        {
          "internalType": "bool",
          "name": "",
          "type": "bool"
        }
      ],
      "stateMutability": "view",
      "type": "function",
      "constant": true
    },
    {
      "inputs": [],
      "name": "symbol",
      "outputs": [
        {
          "internalType": "string",
          "name": "",
          "type": "string"
        }
      ],
      "stateMutability": "view",
      "type": "function",
      "constant": true
    },
    {
      "inputs": [
        {
          "internalType": "uint256",
          "name": "index",
          "type": "uint256"
        }
      ],
      "name": "tokenByIndex",
      "outputs": [
        {
          "internalType": "uint256",
          "name": "",
          "type": "uint256"
        }
      ],
      "stateMutability": "view",
      "type": "function",
      "constant": true
    },
    {
      "inputs": [
        {
          "internalType": "address",
          "name": "owner",
          "type": "address"
        },
        {
          "internalType": "uint256",
          "name": "index",
          "type": "uint256"
        }
      ],
      "name": "tokenOfOwnerByIndex",
      "outputs": [
        {
          "internalType": "uint256",
          "name": "",
          "type": "uint256"
        }
      ],
      "stateMutability": "view",
      "type": "function",
      "constant": true
    },
    {
      "inputs": [
        {
          "internalType": "uint256",
          "name": "tokenId",
          "type": "uint256"
        }
      ],
      "name": "tokenURI",
      "outputs": [
        {
          "internalType": "string",
          "name": "",
          "type": "string"
        }
      ],
      "stateMutability": "view",
      "type": "function",
      "constant": true
    },
    {
      "inputs": [],
      "name": "totalSupply",
      "outputs": [
        {
          "internalType": "uint256",
          "name": "",
          "type": "uint256"
        }
      ],
      "stateMutability": "view",
      "type": "function",
      "constant": true
    },
    {
      "inputs": [
        {
          "internalType": "address",
          "name": "from",
          "type": "address"
        },
        {
          "internalType": "address",
          "name": "to",
          "type": "address"
        },
        {
          "internalType": "uint256",
          "name": "tokenId",
          "type": "uint256"
        }
      ],
      "name": "transferFrom",
      "outputs": [],
      "stateMutability": "nonpayable",
      "type": "function"
    },
    {
      "inputs": [
        {
          "internalType": "address",
          "name": "newOwner",
          "type": "address"
        }
      ],
      "name": "transferOwnership",
      "outputs": [],
      "stateMutability": "nonpayable",
      "type": "function"
    },
    {
      "inputs": [
        {
          "internalType": "address",
          "name": "resolver",
          "type": "address"
        }
      ],
      "name": "addResolverVersion",
      "outputs": [],
      "stateMutability": "nonpayable",
      "type": "function"
    },
    {
      "inputs": [
        {
          "internalType": "string",
          "name": "baseUri",
          "type": "string"
        }
      ],
      "name": "setBaseUri",
      "outputs": [],
      "stateMutability": "nonpayable",
      "type": "function"
    },
    {
      "inputs": [],
      "name": "openReg",
      "outputs": [],
      "stateMutability": "nonpayable",
      "type": "function"
    },
    {
      "inputs": [
        {
          "internalType": "uint256",
          "name": "price",
          "type": "uint256"
        }
      ],
      "name": "updatePrice",
      "outputs": [],
      "stateMutability": "nonpayable",
      "type": "function"
    },
    {
      "inputs": [
        {
          "internalType": "bytes32",
          "name": "node",
          "type": "bytes32"
        }
      ],
      "name": "getTokenIdFromNode",
      "outputs": [
        {
          "internalType": "uint256",
          "name": "",
          "type": "uint256"
        }
      ],
      "stateMutability": "pure",
      "type": "function",
      "constant": true
    },
    {
      "inputs": [
        {
          "internalType": "bytes32",
          "name": "node",
          "type": "bytes32"
        }
      ],
      "name": "getOwnerFromNode",
      "outputs": [
        {
          "internalType": "address",
          "name": "",
          "type": "address"
        }
      ],
      "stateMutability": "view",
      "type": "function",
      "constant": true
    },
    {
      "inputs": [
        {
          "internalType": "bytes32",
          "name": "node",
          "type": "bytes32"
        },
        {
          "internalType": "uint256",
          "name": "version",
          "type": "uint256"
        }
      ],
      "name": "setResolver",
      "outputs": [],
      "stateMutability": "nonpayable",
      "type": "function"
    },
    {
      "inputs": [
        {
          "internalType": "bytes32",
          "name": "node",
          "type": "bytes32"
        }
      ],
      "name": "resolver",
      "outputs": [
        {
          "internalType": "address",
          "name": "",
          "type": "address"
        }
      ],
      "stateMutability": "view",
      "type": "function",
      "constant": true
    },
    {
      "inputs": [
        {
          "internalType": "string",
          "name": "subdomain",
          "type": "string"
        },
        {
          "internalType": "uint256",
          "name": "glyphId",
          "type": "uint256"
        }
      ],
      "name": "claimGlyph",
      "outputs": [],
      "stateMutability": "nonpayable",
      "type": "function"
    },
    {
      "inputs": [
        {
          "internalType": "bytes32",
          "name": "node",
          "type": "bytes32"
        }
      ],
      "name": "setReverseRecord",
      "outputs": [],
      "stateMutability": "nonpayable",
      "type": "function"
    },
    {
      "inputs": [
        {
          "internalType": "address",
          "name": "registrant",
          "type": "address"
        }
      ],
      "name": "getReverseRecord",
      "outputs": [
        {
          "internalType": "string",
          "name": "",
          "type": "string"
        }
      ],
      "stateMutability": "view",
      "type": "function",
      "constant": true
    },
    {
      "inputs": [
        {
          "internalType": "string",
          "name": "subdomain",
          "type": "string"
        }
      ],
      "name": "register",
      "outputs": [],
      "stateMutability": "payable",
      "type": "function",
      "payable": true
    }
  ],
  "bytecode": "0x6080604052600f805460ff191690553480156200001b57600080fd5b5060405162002da038038062002da08339810160408190526200003e9162000222565b6040805180820182526007808252660a0b08e5c8aa8960cb1b60208084018281528551808701909652928552840152815191929162000080916000916200015f565b508051620000969060019060208401906200015f565b505050620000b3620000ad6200010960201b60201c565b6200010d565b8351620000c890600b9060208701906200015f565b50600d55600f8054610100600160a81b0319166101006001600160a01b0394851602179055601080546001600160a01b03191691909216179055506200037a565b3390565b600a80546001600160a01b038381166001600160a01b0319831681179093556040519116919082907f8be0079c531659141344cd1fd0a4f28419497f9722a3daafe3b4186f6b6457e090600090a35050565b8280546200016d9062000327565b90600052602060002090601f016020900481019282620001915760008555620001dc565b82601f10620001ac57805160ff1916838001178555620001dc565b82800160010185558215620001dc579182015b82811115620001dc578251825591602001919060010190620001bf565b50620001ea929150620001ee565b5090565b5b80821115620001ea5760008155600101620001ef565b80516001600160a01b03811681146200021d57600080fd5b919050565b6000806000806080858703121562000238578384fd5b84516001600160401b03808211156200024f578586fd5b818701915087601f83011262000263578586fd5b81518181111562000278576200027862000364565b604051601f8201601f19908116603f01168101908382118183101715620002a357620002a362000364565b81604052828152602093508a84848701011115620002bf578889fd5b8891505b82821015620002e25784820184015181830185015290830190620002c3565b82821115620002f357888484830101525b97506200030591505087820162000205565b94505050620003176040860162000205565b6060959095015193969295505050565b600181811c908216806200033c57607f821691505b602082108114156200035e57634e487b7160e01b600052602260045260246000fd5b50919050565b634e487b7160e01b600052604160045260246000fd5b612a16806200038a6000396000f3fe60806040526004361061021a5760003560e01c8063715018a611610123578063af3f5a8e116100ab578063dfe22b871161006f578063dfe22b871461064d578063e000096e1461066d578063e985e9c51461068d578063f2c298be146106d6578063f2fde38b146106e957600080fd5b8063af3f5a8e146105a1578063b158fd5c146105c1578063b88d4fde146105f7578063bbf86b9714610617578063c87b56dd1461062d57600080fd5b80638da5cb5b116100f25780638da5cb5b146104fe5780638dfcf6c41461051c57806395d89b411461054c578063a0bcfc7f14610561578063a22cb4651461058157600080fd5b8063715018a61461049457806380984e84146104a9578063835dd8d7146104c95780638d6cc56d146104de57600080fd5b806323b872dd116101a65780634f5614c9116101755780634f5614c9146103f65780634f6ccce7146104165780635ac27d72146104365780636352211e1461045457806370a082311461047457600080fd5b806323b872dd146103805780632f745c59146103a057806342842e0e146103c05780634a9fe1c7146103e057600080fd5b8063095ea7b3116101ed578063095ea7b3146102ce57806309f81a6f146102f05780630d0b42ae1461032b57806318160ddd1461034b5780631ce977b51461036057600080fd5b80630178b8bf1461021f57806301ffc9a71461025c57806306fdde031461028c578063081812fc146102ae575b600080fd5b34801561022b57600080fd5b5061023f61023a366004612503565b610709565b6040516001600160a01b0390911681526020015b60405180910390f35b34801561026857600080fd5b5061027c610277366004612554565b610791565b6040519015158152602001610253565b34801561029857600080fd5b506102a16107b6565b60405161025391906127af565b3480156102ba57600080fd5b5061023f6102c9366004612503565b610848565b3480156102da57600080fd5b506102ee6102e93660046124d8565b6108e2565b005b3480156102fc57600080fd5b5061031d61030b36600461237a565b60166020526000908152604090205481565b604051908152602001610253565b34801561033757600080fd5b506102ee610346366004612503565b6109f8565b34801561035757600080fd5b5060085461031d565b34801561036c57600080fd5b5061023f61037b366004612503565b610a6a565b34801561038c57600080fd5b506102ee61039b3660046123ea565b610a75565b3480156103ac57600080fd5b5061031d6103bb3660046124d8565b610aa6565b3480156103cc57600080fd5b506102ee6103db3660046123ea565b610b3c565b3480156103ec57600080fd5b5061031d600d5481565b34801561040257600080fd5b506102ee610411366004612533565b610b57565b34801561042257600080fd5b5061031d610431366004612503565b610c99565b34801561044257600080fd5b5061031d610451366004612503565b90565b34801561046057600080fd5b5061023f61046f366004612503565b610d3a565b34801561048057600080fd5b5061031d61048f36600461237a565b610db1565b3480156104a057600080fd5b506102ee610e38565b3480156104b557600080fd5b506102ee6104c436600461237a565b610e6e565b3480156104d557600080fd5b506102ee610ef0565b3480156104ea57600080fd5b506102ee6104f9366004612503565b610f29565b34801561050a57600080fd5b50600a546001600160a01b031661023f565b34801561052857600080fd5b5061027c610537366004612503565b60116020526000908152604090205460ff1681565b34801561055857600080fd5b506102a1610f58565b34801561056d57600080fd5b506102ee61057c366004612616565b610f67565b34801561058d57600080fd5b506102ee61059c3660046124a7565b610fa8565b3480156105ad57600080fd5b506102ee6105bc3660046125cc565b61106d565b3480156105cd57600080fd5b5061023f6105dc366004612503565b6012602052600090815260409020546001600160a01b031681565b34801561060357600080fd5b506102ee61061236600461242a565b611171565b34801561062357600080fd5b5061031d60135481565b34801561063957600080fd5b506102a1610648366004612503565b6111a9565b34801561065957600080fd5b506102a161066836600461237a565b611284565b34801561067957600080fd5b506102a1610688366004612503565b6112d1565b34801561069957600080fd5b5061027c6106a83660046123b2565b6001600160a01b03918216600090815260056020908152604080832093909416825291909152205460ff1690565b6102ee6106e436600461258c565b61136b565b3480156106f557600080fd5b506102ee61070436600461237a565b61140a565b600f54604051630178b8bf60e01b81526004810183905260009161010090046001600160a01b031690630178b8bf9060240160206040518083038186803b15801561075357600080fd5b505afa158015610767573d6000803e3d6000fd5b505050506040513d601f19601f8201168201806040525081019061078b9190612396565b92915050565b60006001600160e01b0319821663780e9d6360e01b148061078b575061078b826114a5565b6060600080546107c590612909565b80601f01602080910402602001604051908101604052809291908181526020018280546107f190612909565b801561083e5780601f106108135761010080835404028352916020019161083e565b820191906000526020600020905b81548152906001019060200180831161082157829003601f168201915b5050505050905090565b6000818152600260205260408120546001600160a01b03166108c65760405162461bcd60e51b815260206004820152602c60248201527f4552433732313a20617070726f76656420717565727920666f72206e6f6e657860448201526b34b9ba32b73a103a37b5b2b760a11b60648201526084015b60405180910390fd5b506000908152600460205260409020546001600160a01b031690565b60006108ed82610d3a565b9050806001600160a01b0316836001600160a01b0316141561095b5760405162461bcd60e51b815260206004820152602160248201527f4552433732313a20617070726f76616c20746f2063757272656e74206f776e656044820152603960f91b60648201526084016108bd565b336001600160a01b0382161480610977575061097781336106a8565b6109e95760405162461bcd60e51b815260206004820152603860248201527f4552433732313a20617070726f76652063616c6c6572206973206e6f74206f7760448201527f6e6572206e6f7220617070726f76656420666f7220616c6c000000000000000060648201526084016108bd565b6109f383836114f5565b505050565b33610a0282610d3a565b6001600160a01b031614610a585760405162461bcd60e51b815260206004820152601960248201527f5058473a2053656e646572206d757374206265206f776e65720000000000000060448201526064016108bd565b33600090815260166020526040902055565b600061078b82610d3a565b610a7f3382611563565b610a9b5760405162461bcd60e51b81526004016108bd90612849565b6109f383838361165a565b6000610ab183610db1565b8210610b135760405162461bcd60e51b815260206004820152602b60248201527f455243373231456e756d657261626c653a206f776e657220696e646578206f7560448201526a74206f6620626f756e647360a81b60648201526084016108bd565b506001600160a01b03919091166000908152600660209081526040808320938352929052205490565b6109f383838360405180602001604052806000815250611171565b6000818152601260205260409020546001600160a01b0316610bbb5760405162461bcd60e51b815260206004820152601c60248201527f5058473a205265736f6c76657220646f6573206e6f742065786973740000000060448201526064016108bd565b33610bc583610a6a565b6001600160a01b031614610c1b5760405162461bcd60e51b815260206004820181905260248201527f5058473a204f6e6c79206f776e65722063616e20736574207265736f6c76657260448201526064016108bd565b600f5460008281526012602052604090819020549051630c4b7b8560e11b8152600481018590526001600160a01b0391821660248201526101009092041690631896f70a90604401600060405180830381600087803b158015610c7d57600080fd5b505af1158015610c91573d6000803e3d6000fd5b505050505050565b6000610ca460085490565b8210610d075760405162461bcd60e51b815260206004820152602c60248201527f455243373231456e756d657261626c653a20676c6f62616c20696e646578206f60448201526b7574206f6620626f756e647360a01b60648201526084016108bd565b60088281548110610d2857634e487b7160e01b600052603260045260246000fd5b90600052602060002001549050919050565b6000818152600260205260408120546001600160a01b03168061078b5760405162461bcd60e51b815260206004820152602960248201527f4552433732313a206f776e657220717565727920666f72206e6f6e657869737460448201526832b73a103a37b5b2b760b91b60648201526084016108bd565b60006001600160a01b038216610e1c5760405162461bcd60e51b815260206004820152602a60248201527f4552433732313a2062616c616e636520717565727920666f7220746865207a65604482015269726f206164647265737360b01b60648201526084016108bd565b506001600160a01b031660009081526003602052604090205490565b600a546001600160a01b03163314610e625760405162461bcd60e51b81526004016108bd90612814565b610e6c6000611805565b565b600a546001600160a01b03163314610e985760405162461bcd60e51b81526004016108bd90612814565b8060126000601360008154610eac90612944565b91829055508152602081019190915260400160002080546001600160a01b039283166001600160a01b031991821617909155600c8054939092169216919091179055565b600a546001600160a01b03163314610f1a5760405162461bcd60e51b81526004016108bd90612814565b600f805460ff19166001179055565b600a546001600160a01b03163314610f535760405162461bcd60e51b81526004016108bd90612814565b600e55565b6060600180546107c590612909565b600a546001600160a01b03163314610f915760405162461bcd60e51b81526004016108bd90612814565b8051610fa490600b9060208401906121b0565b5050565b6001600160a01b0382163314156110015760405162461bcd60e51b815260206004820152601960248201527f4552433732313a20617070726f766520746f2063616c6c65720000000000000060448201526064016108bd565b3360008181526005602090815260408083206001600160a01b03871680855290835292819020805460ff191686151590811790915590519081529192917f17307eab39ab6107e8899845ad3d59bd9653f200f220920489ca2b5937696c31910160405180910390a35050565b6010546040516331a9108f60e11b81526004810183905233916001600160a01b031690636352211e9060240160206040518083038186803b1580156110b157600080fd5b505afa1580156110c5573d6000803e3d6000fd5b505050506040513d601f19601f820116820180604052508101906110e99190612396565b6001600160a01b031614801561110e575060008181526011602052604090205460ff16155b61114e5760405162461bcd60e51b8152602060048201526011602482015270141611ce88155b985d5d1a1bdc9a5e9959607a1b60448201526064016108bd565b6000818152601160205260409020805460ff191660011790556109f38383611857565b61117b3383611563565b6111975760405162461bcd60e51b81526004016108bd90612849565b6111a384848484611b3a565b50505050565b6000818152600260205260409020546060906001600160a01b03166112285760405162461bcd60e51b815260206004820152602f60248201527f4552433732314d657461646174613a2055524920717565727920666f72206e6f60448201526e3732bc34b9ba32b73a103a37b5b2b760891b60648201526084016108bd565b6000611232611b6d565b90506000815111611252576040518060200160405280600081525061127d565b8061125c84611b7c565b60405160200161126d929190612698565b6040516020818303038152906040525b9392505050565b6001600160a01b0381166000908152601660209081526040808320548352601582529182902091516060926112bb929091016126c7565b6040516020818303038152906040529050919050565b601560205260009081526040902080546112ea90612909565b80601f016020809104026020016040519081016040528092919081815260200182805461131690612909565b80156113635780601f1061133857610100808354040283529160200191611363565b820191906000526020600020905b81548152906001019060200180831161134657829003601f168201915b505050505081565b600f5460ff1680611380575061271060145410155b6113ba5760405162461bcd60e51b815260206004820152600b60248201526a139bdd08185b1b1bddd95960aa1b60448201526064016108bd565b600e5434146114005760405162461bcd60e51b81526020600482015260126024820152715058473a20496e76616c69642076616c756560701b60448201526064016108bd565b610fa48282611857565b600a546001600160a01b031633146114345760405162461bcd60e51b81526004016108bd90612814565b6001600160a01b0381166114995760405162461bcd60e51b815260206004820152602660248201527f4f776e61626c653a206e6577206f776e657220697320746865207a65726f206160448201526564647265737360d01b60648201526084016108bd565b6114a281611805565b50565b60006001600160e01b031982166380ac58cd60e01b14806114d657506001600160e01b03198216635b5e139f60e01b145b8061078b57506301ffc9a760e01b6001600160e01b031983161461078b565b600081815260046020526040902080546001600160a01b0319166001600160a01b038416908117909155819061152a82610d3a565b6001600160a01b03167f8c5be1e5ebec7d5bd14f71427d1e84f3dd0314c0f7b2291e5b200ac8c7c3b92560405160405180910390a45050565b6000818152600260205260408120546001600160a01b03166115dc5760405162461bcd60e51b815260206004820152602c60248201527f4552433732313a206f70657261746f7220717565727920666f72206e6f6e657860448201526b34b9ba32b73a103a37b5b2b760a11b60648201526084016108bd565b60006115e783610d3a565b9050806001600160a01b0316846001600160a01b031614806116225750836001600160a01b031661161784610848565b6001600160a01b0316145b8061165257506001600160a01b0380821660009081526005602090815260408083209388168352929052205460ff165b949350505050565b826001600160a01b031661166d82610d3a565b6001600160a01b0316146116d55760405162461bcd60e51b815260206004820152602960248201527f4552433732313a207472616e73666572206f6620746f6b656e2074686174206960448201526839903737ba1037bbb760b91b60648201526084016108bd565b6001600160a01b0382166117375760405162461bcd60e51b8152602060048201526024808201527f4552433732313a207472616e7366657220746f20746865207a65726f206164646044820152637265737360e01b60648201526084016108bd565b611742838383611c96565b61174d6000826114f5565b6001600160a01b03831660009081526003602052604081208054600192906117769084906128c6565b90915550506001600160a01b03821660009081526003602052604081208054600192906117a490849061289a565b909155505060008181526002602052604080822080546001600160a01b0319166001600160a01b0386811691821790925591518493918716917fddf252ad1be2c89b69c2b068fc378daa952ba7f163c4a11628f55a4df523b3ef91a4505050565b600a80546001600160a01b038381166001600160a01b0319831681179093556040519116919082907f8be0079c531659141344cd1fd0a4f28419497f9722a3daafe3b4186f6b6457e090600090a35050565b60008282604051611869929190612688565b60408051918290038220600d546020840152908201819052915060009060600160408051808303601f19018152908290528051602090910120600f546302571be360e01b8352600483018290529092506000916101009091046001600160a01b0316906302571be39060240160206040518083038186803b1580156118ed57600080fd5b505afa158015611901573d6000803e3d6000fd5b505050506040513d601f19601f820116820180604052508101906119259190612396565b90506001600160a01b0381161561197e5760405162461bcd60e51b815260206004820152601960248201527f5058473a204e616d6520616c726561647920636c61696d65640000000000000060448201526064016108bd565b6013546000908152601260205260409020546001600160a01b03166119dc5760405162461bcd60e51b8152602060048201526014602482015273141611ce88139bc81c995cdbdb1d995c881cd95d60621b60448201526064016108bd565b600f54600d546040516306ab592360e01b81526004810191909152602481018590523060448201526101009091046001600160a01b0316906306ab592390606401602060405180830381600087803b158015611a3757600080fd5b505af1158015611a4b573d6000803e3d6000fd5b505050506040513d601f19601f82011682018060405250810190611a6f919061251b565b50600f54600c54604051630c4b7b8560e11b8152600481018590526001600160a01b0391821660248201526101009092041690631896f70a90604401600060405180830381600087803b158015611ac557600080fd5b505af1158015611ad9573d6000803e3d6000fd5b50505050611aea338360001c611d4e565b6000828152601560205260409020611b03908686612234565b50611b0d33610db1565b60011415611b1e57611b1e826109f8565b60148054906000611b2e83612944565b91905055505050505050565b611b4584848461165a565b611b5184848484611d68565b6111a35760405162461bcd60e51b81526004016108bd906127c2565b6060600b80546107c590612909565b606081611ba05750506040805180820190915260018152600360fc1b602082015290565b8160005b8115611bca5780611bb481612944565b9150611bc39050600a836128b2565b9150611ba4565b60008167ffffffffffffffff811115611bf357634e487b7160e01b600052604160045260246000fd5b6040519080825280601f01601f191660200182016040528015611c1d576020820181803683370190505b5090505b841561165257611c326001836128c6565b9150611c3f600a8661295f565b611c4a90603061289a565b60f81b818381518110611c6d57634e487b7160e01b600052603260045260246000fd5b60200101906001600160f81b031916908160001a905350611c8f600a866128b2565b9450611c21565b6001600160a01b038316611cf157611cec81600880546000838152600960205260408120829055600182018355919091527ff3f7a9fe364faab93b216da50a3214154f22a0a2b415b23a84c8169e8b636ee30155565b611d14565b816001600160a01b0316836001600160a01b031614611d1457611d148382611e75565b6001600160a01b038216611d2b576109f381611f12565b826001600160a01b0316826001600160a01b0316146109f3576109f38282611feb565b610fa482826040518060200160405280600081525061202f565b60006001600160a01b0384163b15611e6a57604051630a85bd0160e11b81526001600160a01b0385169063150b7a0290611dac903390899088908890600401612772565b602060405180830381600087803b158015611dc657600080fd5b505af1925050508015611df6575060408051601f3d908101601f19168201909252611df391810190612570565b60015b611e50573d808015611e24576040519150601f19603f3d011682016040523d82523d6000602084013e611e29565b606091505b508051611e485760405162461bcd60e51b81526004016108bd906127c2565b805181602001fd5b6001600160e01b031916630a85bd0160e11b149050611652565b506001949350505050565b60006001611e8284610db1565b611e8c91906128c6565b600083815260076020526040902054909150808214611edf576001600160a01b03841660009081526006602090815260408083208584528252808320548484528184208190558352600790915290208190555b5060009182526007602090815260408084208490556001600160a01b039094168352600681528383209183525290812055565b600854600090611f24906001906128c6565b60008381526009602052604081205460088054939450909284908110611f5a57634e487b7160e01b600052603260045260246000fd5b906000526020600020015490508060088381548110611f8957634e487b7160e01b600052603260045260246000fd5b6000918252602080832090910192909255828152600990915260408082208490558582528120556008805480611fcf57634e487b7160e01b600052603160045260246000fd5b6001900381819060005260206000200160009055905550505050565b6000611ff683610db1565b6001600160a01b039093166000908152600660209081526040808320868452825280832085905593825260079052919091209190915550565b6120398383612062565b6120466000848484611d68565b6109f35760405162461bcd60e51b81526004016108bd906127c2565b6001600160a01b0382166120b85760405162461bcd60e51b815260206004820181905260248201527f4552433732313a206d696e7420746f20746865207a65726f206164647265737360448201526064016108bd565b6000818152600260205260409020546001600160a01b03161561211d5760405162461bcd60e51b815260206004820152601c60248201527f4552433732313a20746f6b656e20616c7265616479206d696e7465640000000060448201526064016108bd565b61212960008383611c96565b6001600160a01b038216600090815260036020526040812080546001929061215290849061289a565b909155505060008181526002602052604080822080546001600160a01b0319166001600160a01b03861690811790915590518392907fddf252ad1be2c89b69c2b068fc378daa952ba7f163c4a11628f55a4df523b3ef908290a45050565b8280546121bc90612909565b90600052602060002090601f0160209004810192826121de5760008555612224565b82601f106121f757805160ff1916838001178555612224565b82800160010185558215612224579182015b82811115612224578251825591602001919060010190612209565b506122309291506122a8565b5090565b82805461224090612909565b90600052602060002090601f0160209004810192826122625760008555612224565b82601f1061227b5782800160ff19823516178555612224565b82800160010185558215612224579182015b8281111561222457823582559160200191906001019061228d565b5b8082111561223057600081556001016122a9565b600067ffffffffffffffff808411156122d8576122d861299f565b604051601f8501601f19908116603f011681019082821181831017156123005761230061299f565b8160405280935085815286868601111561231957600080fd5b858560208301376000602087830101525050509392505050565b60008083601f840112612344578182fd5b50813567ffffffffffffffff81111561235b578182fd5b60208301915083602082850101111561237357600080fd5b9250929050565b60006020828403121561238b578081fd5b813561127d816129b5565b6000602082840312156123a7578081fd5b815161127d816129b5565b600080604083850312156123c4578081fd5b82356123cf816129b5565b915060208301356123df816129b5565b809150509250929050565b6000806000606084860312156123fe578081fd5b8335612409816129b5565b92506020840135612419816129b5565b929592945050506040919091013590565b6000806000806080858703121561243f578081fd5b843561244a816129b5565b9350602085013561245a816129b5565b925060408501359150606085013567ffffffffffffffff81111561247c578182fd5b8501601f8101871361248c578182fd5b61249b878235602084016122bd565b91505092959194509250565b600080604083850312156124b9578182fd5b82356124c4816129b5565b9150602083013580151581146123df578182fd5b600080604083850312156124ea578182fd5b82356124f5816129b5565b946020939093013593505050565b600060208284031215612514578081fd5b5035919050565b60006020828403121561252c578081fd5b5051919050565b60008060408385031215612545578182fd5b50508035926020909101359150565b600060208284031215612565578081fd5b813561127d816129ca565b600060208284031215612581578081fd5b815161127d816129ca565b6000806020838503121561259e578182fd5b823567ffffffffffffffff8111156125b4578283fd5b6125c085828601612333565b90969095509350505050565b6000806000604084860312156125e0578081fd5b833567ffffffffffffffff8111156125f6578182fd5b61260286828701612333565b909790965060209590950135949350505050565b600060208284031215612627578081fd5b813567ffffffffffffffff81111561263d578182fd5b8201601f8101841361264d578182fd5b611652848235602084016122bd565b600081518084526126748160208601602086016128dd565b601f01601f19169290920160200192915050565b8183823760009101908152919050565b600083516126aa8184602088016128dd565b8351908301906126be8183602088016128dd565b01949350505050565b600080835482600182811c9150808316806126e357607f831692505b602080841082141561270357634e487b7160e01b87526022600452602487fd5b818015612717576001811461272857612754565b60ff19861689528489019650612754565b60008a815260209020885b8681101561274c5781548b820152908501908301612733565b505084890196505b505050505050611652816705ce0f0ce5ccae8d60c31b815260080190565b6001600160a01b03858116825284166020820152604081018390526080606082018190526000906127a59083018461265c565b9695505050505050565b60208152600061127d602083018461265c565b60208082526032908201527f4552433732313a207472616e7366657220746f206e6f6e20455243373231526560408201527131b2b4bb32b91034b6b83632b6b2b73a32b960711b606082015260800190565b6020808252818101527f4f776e61626c653a2063616c6c6572206973206e6f7420746865206f776e6572604082015260600190565b60208082526031908201527f4552433732313a207472616e736665722063616c6c6572206973206e6f74206f6040820152701ddb995c881b9bdc88185c1c1c9bdd9959607a1b606082015260800190565b600082198211156128ad576128ad612973565b500190565b6000826128c1576128c1612989565b500490565b6000828210156128d8576128d8612973565b500390565b60005b838110156128f85781810151838201526020016128e0565b838111156111a35750506000910152565b600181811c9082168061291d57607f821691505b6020821081141561293e57634e487b7160e01b600052602260045260246000fd5b50919050565b600060001982141561295857612958612973565b5060010190565b60008261296e5761296e612989565b500690565b634e487b7160e01b600052601160045260246000fd5b634e487b7160e01b600052601260045260246000fd5b634e487b7160e01b600052604160045260246000fd5b6001600160a01b03811681146114a257600080fd5b6001600160e01b0319811681146114a257600080fdfea264697066735822122073933200b0ef1674ba1c4953693a99c8c894e0ef0e0efd4704407fd47d71e40864736f6c63430008040033",
  "immutableReferences": {},
  "source": "// SPDX-License-Identifier: MIT\npragma solidity >=0.4.22 <0.9.0;\nimport \"@openzeppelin/contracts/token/ERC721/extensions/ERC721Enumerable.sol\";\nimport \"@openzeppelin/contracts/access/Ownable.sol\";\nimport \"./ENS.sol\";\n\n/**\n______________  ___________     _________________________ ___  \n\\______   \\   \\/  /  _____/     \\_   _____/\\__    ___/   |   \\ \n |     ___/\\     /   \\  ___      |    __)_   |    | /    ~    \\\n |    |    /     \\    \\_\\  \\     |        \\  |    | \\    Y    /\n |____|   /___/\\  \\______  / /\\ /_______  /  |____|  \\___|_  / \n                \\_/      \\/  \\/         \\/                 \\/  \n\nwww.pixelglyphs.io\n*/\n\n// ENS ADDRESS (Used on all networks) 0x00000000000C2E074eC69A0dFb2997BA6C7d2e1e\n\ncontract PxgRegistrar is ERC721Enumerable, Ownable {\n  string BASE_URI;\n  address RESOLVER;\n  bytes32 public ROOT_NODE;\n  uint256 PRICE;\n  bool publicRegistrationOpen = false;\n  ENS ens;\n  ERC721 glyphs;\n\n  mapping(uint256 => bool) public claimedGlyphIds;\n  mapping(uint256 => address) public resolvers;\n  uint256 public currentResolverVersion;\n  uint256 count;\n\n  constructor(\n    string memory baseUri,\n    address ensAddr,\n    address glyphAddr,\n    bytes32 node\n  ) ERC721(\"PXG.ETH\", \"PXG.ETH\") {\n    BASE_URI = baseUri;\n    ROOT_NODE = node;\n    ens = ENS(ensAddr);\n    glyphs = ERC721(glyphAddr);\n  }\n\n  function addResolverVersion(address resolver) public onlyOwner {\n    resolvers[++currentResolverVersion] = resolver;\n    RESOLVER = resolver;\n  }\n\n  function setBaseUri(string memory baseUri) public onlyOwner {\n    BASE_URI = baseUri;\n  }\n\n  function _baseURI() internal view virtual override returns (string memory) {\n    return BASE_URI;\n  }\n\n  function openReg() public onlyOwner {\n    publicRegistrationOpen = true;\n  }\n\n  function updatePrice(uint256 price) public onlyOwner {\n    PRICE = price;\n  }\n\n  function getTokenIdFromNode(bytes32 node) public pure returns (uint256) {\n    return uint256(node);\n  }\n\n  function getOwnerFromNode(bytes32 node) public view returns (address) {\n    return ownerOf(uint256(node));\n  }\n\n  function setResolver(bytes32 node, uint256 version) public {\n    require(resolvers[version] != address(0), \"PXG: Resolver does not exist\");\n    require(\n      getOwnerFromNode(node) == msg.sender,\n      \"PXG: Only owner can set resolver\"\n    );\n    ens.setResolver(node, resolvers[version]);\n  }\n\n  mapping(bytes32 => string) public nodeToLabel;\n\n  // root node is pxg.eth subnode is subdomain label\n  function _register(string calldata subdomain) internal {\n    bytes32 subdomainLabel = keccak256(bytes(subdomain));\n    bytes32 node = keccak256(abi.encodePacked(ROOT_NODE, subdomainLabel));\n\n    address currentOwner = ens.owner(node);\n\n    require(currentOwner == address(0), \"PXG: Name already claimed\");\n    require(\n      resolvers[currentResolverVersion] != address(0),\n      \"PXG: No resolver set\"\n    );\n\n    // pxg.eth, mysubdomain, address\n    ens.setSubnodeOwner(ROOT_NODE, subdomainLabel, address(this));\n    ens.setResolver(node, RESOLVER);\n    _safeMint(msg.sender, uint256(node));\n    nodeToLabel[node] = subdomain;\n    if (balanceOf(msg.sender) == 1) {\n      setReverseRecord(node);\n    }\n    count++;\n  }\n\n  function resolver(bytes32 node) external view returns (address) {\n    return ens.resolver(node);\n  }\n\n  function claimGlyph(string calldata subdomain, uint256 glyphId) public {\n    require(\n      glyphs.ownerOf(glyphId) == msg.sender &&\n        claimedGlyphIds[glyphId] == false,\n      \"PXG: Unauthorized\"\n    );\n\n    claimedGlyphIds[glyphId] = true;\n    _register(subdomain);\n  }\n\n  function setReverseRecord(bytes32 node) public {\n    require(ownerOf(uint256(node)) == msg.sender, \"PXG: Sender must be owner\");\n    reverseLookup[msg.sender] = node;\n  }\n\n  function getReverseRecord(address registrant)\n    public\n    view\n    returns (string memory)\n  {\n    return\n      string(\n        abi.encodePacked(nodeToLabel[reverseLookup[registrant]], \".pxg.eth\")\n      );\n  }\n\n  mapping(address => bytes32) public reverseLookup;\n\n  function register(string calldata subdomain) public payable {\n    require(publicRegistrationOpen || count >= 10000, \"Not allowed\");\n    // uint256 len = bytes(subdomain).length;\n    require(msg.value == PRICE, \"PXG: Invalid value\");\n    _register(subdomain);\n  }\n}\n",
  "sourcePath": "/Users/seanpapanikolas/Projects/pxg/contracts/PxgRegistrar.sol",
  "compiler": {
    "name": "solc",
    "version": "0.8.4+commit.c7e474f2.Emscripten.clang"
  },
  "schemaVersion": "3.4.2",
  "updatedAt": "2021-08-09T21:40:43.536Z",
  "networkType": "ethereum",
  "devdoc": {
    "kind": "dev",
    "methods": {
      "approve(address,uint256)": {
        "details": "See {IERC721-approve}."
      },
      "balanceOf(address)": {
        "details": "See {IERC721-balanceOf}."
      },
      "getApproved(uint256)": {
        "details": "See {IERC721-getApproved}."
      },
      "isApprovedForAll(address,address)": {
        "details": "See {IERC721-isApprovedForAll}."
      },
      "name()": {
        "details": "See {IERC721Metadata-name}."
      },
      "owner()": {
        "details": "Returns the address of the current owner."
      },
      "ownerOf(uint256)": {
        "details": "See {IERC721-ownerOf}."
      },
      "renounceOwnership()": {
        "details": "Leaves the contract without owner. It will not be possible to call `onlyOwner` functions anymore. Can only be called by the current owner. NOTE: Renouncing ownership will leave the contract without an owner, thereby removing any functionality that is only available to the owner."
      },
      "safeTransferFrom(address,address,uint256)": {
        "details": "See {IERC721-safeTransferFrom}."
      },
      "safeTransferFrom(address,address,uint256,bytes)": {
        "details": "See {IERC721-safeTransferFrom}."
      },
      "setApprovalForAll(address,bool)": {
        "details": "See {IERC721-setApprovalForAll}."
      },
      "supportsInterface(bytes4)": {
        "details": "See {IERC165-supportsInterface}."
      },
      "symbol()": {
        "details": "See {IERC721Metadata-symbol}."
      },
      "tokenByIndex(uint256)": {
        "details": "See {IERC721Enumerable-tokenByIndex}."
      },
      "tokenOfOwnerByIndex(address,uint256)": {
        "details": "See {IERC721Enumerable-tokenOfOwnerByIndex}."
      },
      "tokenURI(uint256)": {
        "details": "See {IERC721Metadata-tokenURI}."
      },
      "totalSupply()": {
        "details": "See {IERC721Enumerable-totalSupply}."
      },
      "transferFrom(address,address,uint256)": {
        "details": "See {IERC721-transferFrom}."
      },
      "transferOwnership(address)": {
        "details": "Transfers ownership of the contract to a new account (`newOwner`). Can only be called by the current owner."
      }
    },
    "version": 1
  },
  "userdoc": {
    "kind": "user",
    "methods": {},
    "notice": "______________  ___________     _________________________ ___   \\______   \\   \\/  /  _____/     \\_   _____/\\__    ___/   |   \\  |     ___/\\     /   \\  ___      |    __)_   |    | /    ~    \\ |    |    /     \\    \\_\\  \\     |        \\  |    | \\    Y    / |____|   /___/\\  \\______  / /\\ /_______  /  |____|  \\___|_  /  \\_/      \\/  \\/         \\/                 \\/   www.pixelglyphs.io",
    "version": 1
  }
}