{
  "contractName": "PxgRegistrar",
  "abi": [
    {
      "inputs": [
        {
          "internalType": "string",
          "name": "baseUri",
          "type": "string"
        },
        {
          "internalType": "address",
          "name": "ensAddr",
          "type": "address"
        },
        {
          "internalType": "address",
          "name": "glyphAddr",
          "type": "address"
        },
        {
          "internalType": "bytes32",
          "name": "node",
          "type": "bytes32"
        }
      ],
      "stateMutability": "nonpayable",
      "type": "constructor"
    },
    {
      "anonymous": false,
      "inputs": [
        {
          "indexed": true,
          "internalType": "address",
          "name": "owner",
          "type": "address"
        },
        {
          "indexed": true,
          "internalType": "address",
          "name": "approved",
          "type": "address"
        },
        {
          "indexed": true,
          "internalType": "uint256",
          "name": "tokenId",
          "type": "uint256"
        }
      ],
      "name": "Approval",
      "type": "event"
    },
    {
      "anonymous": false,
      "inputs": [
        {
          "indexed": true,
          "internalType": "address",
          "name": "owner",
          "type": "address"
        },
        {
          "indexed": true,
          "internalType": "address",
          "name": "operator",
          "type": "address"
        },
        {
          "indexed": false,
          "internalType": "bool",
          "name": "approved",
          "type": "bool"
        }
      ],
      "name": "ApprovalForAll",
      "type": "event"
    },
    {
      "anonymous": false,
      "inputs": [
        {
          "indexed": true,
          "internalType": "uint256",
          "name": "glyphId",
          "type": "uint256"
        }
      ],
      "name": "ClaimedGlyph",
      "type": "event"
    },
    {
      "anonymous": false,
      "inputs": [
        {
          "indexed": false,
          "internalType": "address",
          "name": "collection",
          "type": "address"
        }
      ],
      "name": "CollectionSupportAdded",
      "type": "event"
    },
    {
      "anonymous": false,
      "inputs": [
        {
          "indexed": false,
          "internalType": "address",
          "name": "adminAddr",
          "type": "address"
        },
        {
          "indexed": false,
          "internalType": "bool",
          "name": "value",
          "type": "bool"
        }
      ],
      "name": "ModifyAdmin",
      "type": "event"
    },
    {
      "anonymous": false,
      "inputs": [
        {
          "indexed": true,
          "internalType": "address",
          "name": "previousOwner",
          "type": "address"
        },
        {
          "indexed": true,
          "internalType": "address",
          "name": "newOwner",
          "type": "address"
        }
      ],
      "name": "OwnershipTransferred",
      "type": "event"
    },
    {
      "anonymous": false,
      "inputs": [
        {
          "indexed": true,
          "internalType": "address",
          "name": "from",
          "type": "address"
        },
        {
          "indexed": true,
          "internalType": "address",
          "name": "to",
          "type": "address"
        },
        {
          "indexed": true,
          "internalType": "uint256",
          "name": "tokenId",
          "type": "uint256"
        }
      ],
      "name": "Transfer",
      "type": "event"
    },
    {
      "inputs": [],
      "name": "ROOT_NODE",
      "outputs": [
        {
          "internalType": "bytes32",
          "name": "",
          "type": "bytes32"
        }
      ],
      "stateMutability": "view",
      "type": "function",
      "constant": true
    },
    {
      "inputs": [
        {
          "internalType": "address",
          "name": "to",
          "type": "address"
        },
        {
          "internalType": "uint256",
          "name": "tokenId",
          "type": "uint256"
        }
      ],
      "name": "approve",
      "outputs": [],
      "stateMutability": "nonpayable",
      "type": "function"
    },
    {
      "inputs": [
        {
          "internalType": "address",
          "name": "owner",
          "type": "address"
        }
      ],
      "name": "balanceOf",
      "outputs": [
        {
          "internalType": "uint256",
          "name": "",
          "type": "uint256"
        }
      ],
      "stateMutability": "view",
      "type": "function",
      "constant": true
    },
    {
      "inputs": [
        {
          "internalType": "uint256",
          "name": "",
          "type": "uint256"
        }
      ],
      "name": "claimedGlyphIds",
      "outputs": [
        {
          "internalType": "bool",
          "name": "",
          "type": "bool"
        }
      ],
      "stateMutability": "view",
      "type": "function",
      "constant": true
    },
    {
      "inputs": [],
      "name": "currentResolverVersion",
      "outputs": [
        {
          "internalType": "uint256",
          "name": "",
          "type": "uint256"
        }
      ],
      "stateMutability": "view",
      "type": "function",
      "constant": true
    },
    {
      "inputs": [
        {
          "internalType": "uint256",
          "name": "tokenId",
          "type": "uint256"
        }
      ],
      "name": "getApproved",
      "outputs": [
        {
          "internalType": "address",
          "name": "",
          "type": "address"
        }
      ],
      "stateMutability": "view",
      "type": "function",
      "constant": true
    },
    {
      "inputs": [
        {
          "internalType": "address",
          "name": "owner",
          "type": "address"
        },
        {
          "internalType": "address",
          "name": "operator",
          "type": "address"
        }
      ],
      "name": "isApprovedForAll",
      "outputs": [
        {
          "internalType": "bool",
          "name": "",
          "type": "bool"
        }
      ],
      "stateMutability": "view",
      "type": "function",
      "constant": true
    },
    {
      "inputs": [],
      "name": "name",
      "outputs": [
        {
          "internalType": "string",
          "name": "",
          "type": "string"
        }
      ],
      "stateMutability": "view",
      "type": "function",
      "constant": true
    },
    {
      "inputs": [
        {
          "internalType": "bytes32",
          "name": "",
          "type": "bytes32"
        }
      ],
      "name": "nodeToLabel",
      "outputs": [
        {
          "internalType": "string",
          "name": "",
          "type": "string"
        }
      ],
      "stateMutability": "view",
      "type": "function",
      "constant": true
    },
    {
      "inputs": [],
      "name": "owner",
      "outputs": [
        {
          "internalType": "address",
          "name": "",
          "type": "address"
        }
      ],
      "stateMutability": "view",
      "type": "function",
      "constant": true
    },
    {
      "inputs": [
        {
          "internalType": "uint256",
          "name": "tokenId",
          "type": "uint256"
        }
      ],
      "name": "ownerOf",
      "outputs": [
        {
          "internalType": "address",
          "name": "",
          "type": "address"
        }
      ],
      "stateMutability": "view",
      "type": "function",
      "constant": true
    },
    {
      "inputs": [],
      "name": "renounceOwnership",
      "outputs": [],
      "stateMutability": "nonpayable",
      "type": "function"
    },
    {
      "inputs": [
        {
          "internalType": "uint256",
          "name": "",
          "type": "uint256"
        }
      ],
      "name": "resolvers",
      "outputs": [
        {
          "internalType": "address",
          "name": "",
          "type": "address"
        }
      ],
      "stateMutability": "view",
      "type": "function",
      "constant": true
    },
    {
      "inputs": [
        {
          "internalType": "address",
          "name": "from",
          "type": "address"
        },
        {
          "internalType": "address",
          "name": "to",
          "type": "address"
        },
        {
          "internalType": "uint256",
          "name": "tokenId",
          "type": "uint256"
        }
      ],
      "name": "safeTransferFrom",
      "outputs": [],
      "stateMutability": "nonpayable",
      "type": "function"
    },
    {
      "inputs": [
        {
          "internalType": "address",
          "name": "from",
          "type": "address"
        },
        {
          "internalType": "address",
          "name": "to",
          "type": "address"
        },
        {
          "internalType": "uint256",
          "name": "tokenId",
          "type": "uint256"
        },
        {
          "internalType": "bytes",
          "name": "_data",
          "type": "bytes"
        }
      ],
      "name": "safeTransferFrom",
      "outputs": [],
      "stateMutability": "nonpayable",
      "type": "function"
    },
    {
      "inputs": [
        {
          "internalType": "address",
          "name": "operator",
          "type": "address"
        },
        {
          "internalType": "bool",
          "name": "approved",
          "type": "bool"
        }
      ],
      "name": "setApprovalForAll",
      "outputs": [],
      "stateMutability": "nonpayable",
      "type": "function"
    },
    {
      "inputs": [
        {
          "internalType": "bytes4",
          "name": "interfaceId",
          "type": "bytes4"
        }
      ],
      "name": "supportsInterface",
      "outputs": [
        {
          "internalType": "bool",
          "name": "",
          "type": "bool"
        }
      ],
      "stateMutability": "view",
      "type": "function",
      "constant": true
    },
    {
      "inputs": [],
      "name": "symbol",
      "outputs": [
        {
          "internalType": "string",
          "name": "",
          "type": "string"
        }
      ],
      "stateMutability": "view",
      "type": "function",
      "constant": true
    },
    {
      "inputs": [
        {
          "internalType": "uint256",
          "name": "index",
          "type": "uint256"
        }
      ],
      "name": "tokenByIndex",
      "outputs": [
        {
          "internalType": "uint256",
          "name": "",
          "type": "uint256"
        }
      ],
      "stateMutability": "view",
      "type": "function",
      "constant": true
    },
    {
      "inputs": [
        {
          "internalType": "address",
          "name": "owner",
          "type": "address"
        },
        {
          "internalType": "uint256",
          "name": "index",
          "type": "uint256"
        }
      ],
      "name": "tokenOfOwnerByIndex",
      "outputs": [
        {
          "internalType": "uint256",
          "name": "",
          "type": "uint256"
        }
      ],
      "stateMutability": "view",
      "type": "function",
      "constant": true
    },
    {
      "inputs": [
        {
          "internalType": "uint256",
          "name": "tokenId",
          "type": "uint256"
        }
      ],
      "name": "tokenURI",
      "outputs": [
        {
          "internalType": "string",
          "name": "",
          "type": "string"
        }
      ],
      "stateMutability": "view",
      "type": "function",
      "constant": true
    },
    {
      "inputs": [],
      "name": "totalSupply",
      "outputs": [
        {
          "internalType": "uint256",
          "name": "",
          "type": "uint256"
        }
      ],
      "stateMutability": "view",
      "type": "function",
      "constant": true
    },
    {
      "inputs": [
        {
          "internalType": "address",
          "name": "from",
          "type": "address"
        },
        {
          "internalType": "address",
          "name": "to",
          "type": "address"
        },
        {
          "internalType": "uint256",
          "name": "tokenId",
          "type": "uint256"
        }
      ],
      "name": "transferFrom",
      "outputs": [],
      "stateMutability": "nonpayable",
      "type": "function"
    },
    {
      "inputs": [
        {
          "internalType": "address",
          "name": "newOwner",
          "type": "address"
        }
      ],
      "name": "transferOwnership",
      "outputs": [],
      "stateMutability": "nonpayable",
      "type": "function"
    },
    {
      "inputs": [
        {
          "internalType": "address",
          "name": "resolver",
          "type": "address"
        }
      ],
      "name": "addResolverVersion",
      "outputs": [],
      "stateMutability": "nonpayable",
      "type": "function"
    },
    {
      "inputs": [
        {
          "internalType": "string",
          "name": "baseUri",
          "type": "string"
        }
      ],
      "name": "setBaseUri",
      "outputs": [],
      "stateMutability": "nonpayable",
      "type": "function"
    },
    {
      "inputs": [],
      "name": "openReg",
      "outputs": [],
      "stateMutability": "nonpayable",
      "type": "function"
    },
    {
      "inputs": [
        {
          "internalType": "uint256",
          "name": "price",
          "type": "uint256"
        }
      ],
      "name": "updatePrice",
      "outputs": [],
      "stateMutability": "nonpayable",
      "type": "function"
    },
    {
      "inputs": [
        {
          "internalType": "bytes32",
          "name": "node",
          "type": "bytes32"
        }
      ],
      "name": "getTokenIdFromNode",
      "outputs": [
        {
          "internalType": "uint256",
          "name": "",
          "type": "uint256"
        }
      ],
      "stateMutability": "pure",
      "type": "function",
      "constant": true
    },
    {
      "inputs": [
        {
          "internalType": "bytes32",
          "name": "node",
          "type": "bytes32"
        }
      ],
      "name": "getOwnerFromNode",
      "outputs": [
        {
          "internalType": "address",
          "name": "",
          "type": "address"
        }
      ],
      "stateMutability": "view",
      "type": "function",
      "constant": true
    },
    {
      "inputs": [
        {
          "internalType": "bytes32",
          "name": "node",
          "type": "bytes32"
        },
        {
          "internalType": "uint256",
          "name": "version",
          "type": "uint256"
        }
      ],
      "name": "setResolver",
      "outputs": [],
      "stateMutability": "nonpayable",
      "type": "function"
    },
    {
      "inputs": [
        {
          "internalType": "bytes32",
          "name": "node",
          "type": "bytes32"
        }
      ],
      "name": "resolver",
      "outputs": [
        {
          "internalType": "address",
          "name": "",
          "type": "address"
        }
      ],
      "stateMutability": "view",
      "type": "function",
      "constant": true
    },
    {
      "inputs": [
        {
          "internalType": "address",
          "name": "adminAddr",
          "type": "address"
        },
        {
          "internalType": "bool",
          "name": "value",
          "type": "bool"
        }
      ],
      "name": "modifyAdmin",
      "outputs": [],
      "stateMutability": "nonpayable",
      "type": "function"
    },
    {
      "inputs": [
        {
          "internalType": "address",
          "name": "collection",
          "type": "address"
        }
      ],
      "name": "addCollectionSupport",
      "outputs": [],
      "stateMutability": "nonpayable",
      "type": "function"
    },
    {
      "inputs": [
        {
          "internalType": "address",
          "name": "collection",
          "type": "address"
        }
      ],
      "name": "supportsCollection",
      "outputs": [
        {
          "internalType": "bool",
          "name": "",
          "type": "bool"
        }
      ],
      "stateMutability": "view",
      "type": "function",
      "constant": true
    },
    {
      "inputs": [
        {
          "internalType": "string",
          "name": "subdomain",
          "type": "string"
        },
        {
          "internalType": "uint256",
          "name": "glyphId",
          "type": "uint256"
        }
      ],
      "name": "claimGlyph",
      "outputs": [],
      "stateMutability": "nonpayable",
      "type": "function"
    },
    {
      "inputs": [
        {
          "internalType": "string",
          "name": "subdomain",
          "type": "string"
        }
      ],
      "name": "register",
      "outputs": [],
      "stateMutability": "payable",
      "type": "function",
      "payable": true
    }
  ],
  "bytecode": "0x6080604052600f805460ff191690553480156200001b57600080fd5b5060405162002de238038062002de28339810160408190526200003e916200023c565b6040805180820182526007808252660a0b08e5c8aa8960cb1b602080840182815285518087019096529285528401528151919291620000809160009162000179565b5080516200009690600190602084019062000179565b505050620000b3620000ad6200012360201b60201c565b62000127565b8351620000c890600b90602087019062000179565b50600d55600f8054610100600160a81b0319166101006001600160a01b0394851602179055601080546001600160a01b0319169190921617905550336000908152601660205260409020805460ff1916600117905562000394565b3390565b600a80546001600160a01b038381166001600160a01b0319831681179093556040519116919082907f8be0079c531659141344cd1fd0a4f28419497f9722a3daafe3b4186f6b6457e090600090a35050565b828054620001879062000341565b90600052602060002090601f016020900481019282620001ab5760008555620001f6565b82601f10620001c657805160ff1916838001178555620001f6565b82800160010185558215620001f6579182015b82811115620001f6578251825591602001919060010190620001d9565b506200020492915062000208565b5090565b5b8082111562000204576000815560010162000209565b80516001600160a01b03811681146200023757600080fd5b919050565b6000806000806080858703121562000252578384fd5b84516001600160401b038082111562000269578586fd5b818701915087601f8301126200027d578586fd5b8151818111156200029257620002926200037e565b604051601f8201601f19908116603f01168101908382118183101715620002bd57620002bd6200037e565b81604052828152602093508a84848701011115620002d9578889fd5b8891505b82821015620002fc5784820184015181830185015290830190620002dd565b828211156200030d57888484830101525b97506200031f9150508782016200021f565b9450505062000331604086016200021f565b6060959095015193969295505050565b600181811c908216806200035657607f821691505b602082108114156200037857634e487b7160e01b600052602260045260246000fd5b50919050565b634e487b7160e01b600052604160045260246000fd5b612a3e80620003a46000396000f3fe60806040526004361061021a5760003560e01c8063715018a611610123578063af3f5a8e116100ab578063e000096e1161006f578063e000096e14610655578063e985e9c514610675578063f2c298be146106be578063f2fde38b146106d1578063f4da6631146106f157600080fd5b8063af3f5a8e146105a9578063b158fd5c146105c9578063b88d4fde146105ff578063bbf86b971461061f578063c87b56dd1461063557600080fd5b80638da5cb5b116100f25780638da5cb5b146105065780638dfcf6c41461052457806395d89b4114610554578063a0bcfc7f14610569578063a22cb4651461058957600080fd5b8063715018a61461049c57806380984e84146104b1578063835dd8d7146104d15780638d6cc56d146104e657600080fd5b806335053e70116101a65780634f6ccce7116101755780634f6ccce7146103e55780635ac27d721461040557806361666d73146104235780636352211e1461045c57806370a082311461047c57600080fd5b806335053e701461036f57806342842e0e1461038f5780634a9fe1c7146103af5780634f5614c9146103c557600080fd5b8063095ea7b3116101ed578063095ea7b3146102ce57806318160ddd146102f05780631ce977b51461030f57806323b872dd1461032f5780632f745c591461034f57600080fd5b80630178b8bf1461021f57806301ffc9a71461025c57806306fdde031461028c578063081812fc146102ae575b600080fd5b34801561022b57600080fd5b5061023f61023a3660046125d6565b610711565b6040516001600160a01b0390911681526020015b60405180910390f35b34801561026857600080fd5b5061027c610277366004612627565b610799565b6040519015158152602001610253565b34801561029857600080fd5b506102a16107be565b60405161025391906127d7565b3480156102ba57600080fd5b5061023f6102c93660046125d6565b610850565b3480156102da57600080fd5b506102ee6102e93660046125ab565b6108ea565b005b3480156102fc57600080fd5b506008545b604051908152602001610253565b34801561031b57600080fd5b5061023f61032a3660046125d6565b610a00565b34801561033b57600080fd5b506102ee61034a3660046124bd565b610a2c565b34801561035b57600080fd5b5061030161036a3660046125ab565b610a5d565b34801561037b57600080fd5b506102ee61038a36600461244d565b610af3565b34801561039b57600080fd5b506102ee6103aa3660046124bd565b610b98565b3480156103bb57600080fd5b50610301600d5481565b3480156103d157600080fd5b506102ee6103e0366004612606565b610bb3565b3480156103f157600080fd5b506103016104003660046125d6565b610cf5565b34801561041157600080fd5b506103016104203660046125d6565b90565b34801561042f57600080fd5b5061027c61043e36600461244d565b6001600160a01b031660009081526017602052604090205460ff1690565b34801561046857600080fd5b5061023f6104773660046125d6565b610d96565b34801561048857600080fd5b5061030161049736600461244d565b610e0d565b3480156104a857600080fd5b506102ee610e94565b3480156104bd57600080fd5b506102ee6104cc36600461244d565b610eca565b3480156104dd57600080fd5b506102ee610f4c565b3480156104f257600080fd5b506102ee6105013660046125d6565b610f85565b34801561051257600080fd5b50600a546001600160a01b031661023f565b34801561053057600080fd5b5061027c61053f3660046125d6565b60116020526000908152604090205460ff1681565b34801561056057600080fd5b506102a1610fb4565b34801561057557600080fd5b506102ee6105843660046126e9565b610fc3565b34801561059557600080fd5b506102ee6105a436600461257a565b611004565b3480156105b557600080fd5b506102ee6105c436600461269f565b6110c9565b3480156105d557600080fd5b5061023f6105e43660046125d6565b6012602052600090815260409020546001600160a01b031681565b34801561060b57600080fd5b506102ee61061a3660046124fd565b6111fd565b34801561062b57600080fd5b5061030160135481565b34801561064157600080fd5b506102a16106503660046125d6565b611235565b34801561066157600080fd5b506102a16106703660046125d6565b611310565b34801561068157600080fd5b5061027c610690366004612485565b6001600160a01b03918216600090815260056020908152604080832093909416825291909152205460ff1690565b6102ee6106cc36600461265f565b6113aa565b3480156106dd57600080fd5b506102ee6106ec36600461244d565b611449565b3480156106fd57600080fd5b506102ee61070c36600461257a565b6114e4565b600f54604051630178b8bf60e01b81526004810183905260009161010090046001600160a01b031690630178b8bf9060240160206040518083038186803b15801561075b57600080fd5b505afa15801561076f573d6000803e3d6000fd5b505050506040513d601f19601f820116820180604052508101906107939190612469565b92915050565b60006001600160e01b0319821663780e9d6360e01b1480610793575061079382611592565b6060600080546107cd90612931565b80601f01602080910402602001604051908101604052809291908181526020018280546107f990612931565b80156108465780601f1061081b57610100808354040283529160200191610846565b820191906000526020600020905b81548152906001019060200180831161082957829003601f168201915b5050505050905090565b6000818152600260205260408120546001600160a01b03166108ce5760405162461bcd60e51b815260206004820152602c60248201527f4552433732313a20617070726f76656420717565727920666f72206e6f6e657860448201526b34b9ba32b73a103a37b5b2b760a11b60648201526084015b60405180910390fd5b506000908152600460205260409020546001600160a01b031690565b60006108f582610d96565b9050806001600160a01b0316836001600160a01b031614156109635760405162461bcd60e51b815260206004820152602160248201527f4552433732313a20617070726f76616c20746f2063757272656e74206f776e656044820152603960f91b60648201526084016108c5565b336001600160a01b038216148061097f575061097f8133610690565b6109f15760405162461bcd60e51b815260206004820152603860248201527f4552433732313a20617070726f76652063616c6c6572206973206e6f74206f7760448201527f6e6572206e6f7220617070726f76656420666f7220616c6c000000000000000060648201526084016108c5565b6109fb83836115e2565b505050565b6000818152600260205260408120546001600160a01b0316610a23576000610793565b61079382610d96565b610a363382611650565b610a525760405162461bcd60e51b81526004016108c590612871565b6109fb838383611747565b6000610a6883610e0d565b8210610aca5760405162461bcd60e51b815260206004820152602b60248201527f455243373231456e756d657261626c653a206f776e657220696e646578206f7560448201526a74206f6620626f756e647360a81b60648201526084016108c5565b506001600160a01b03919091166000908152600660209081526040808320938352929052205490565b3360009081526016602052604090205460ff16610b3e5760405162461bcd60e51b81526020600482015260096024820152682737ba1030b236b4b760b91b60448201526064016108c5565b6001600160a01b038116600081815260176020908152604091829020805460ff1916600117905590519182527f47b446be90ccdf90ffa6f6477c48da9d076248e8c0c8b481964b890aca03bb34910160405180910390a150565b6109fb838383604051806020016040528060008152506111fd565b6000818152601260205260409020546001600160a01b0316610c175760405162461bcd60e51b815260206004820152601c60248201527f5058473a205265736f6c76657220646f6573206e6f742065786973740000000060448201526064016108c5565b33610c2183610a00565b6001600160a01b031614610c775760405162461bcd60e51b815260206004820181905260248201527f5058473a204f6e6c79206f776e65722063616e20736574207265736f6c76657260448201526064016108c5565b600f5460008281526012602052604090819020549051630c4b7b8560e11b8152600481018590526001600160a01b0391821660248201526101009092041690631896f70a90604401600060405180830381600087803b158015610cd957600080fd5b505af1158015610ced573d6000803e3d6000fd5b505050505050565b6000610d0060085490565b8210610d635760405162461bcd60e51b815260206004820152602c60248201527f455243373231456e756d657261626c653a20676c6f62616c20696e646578206f60448201526b7574206f6620626f756e647360a01b60648201526084016108c5565b60088281548110610d8457634e487b7160e01b600052603260045260246000fd5b90600052602060002001549050919050565b6000818152600260205260408120546001600160a01b0316806107935760405162461bcd60e51b815260206004820152602960248201527f4552433732313a206f776e657220717565727920666f72206e6f6e657869737460448201526832b73a103a37b5b2b760b91b60648201526084016108c5565b60006001600160a01b038216610e785760405162461bcd60e51b815260206004820152602a60248201527f4552433732313a2062616c616e636520717565727920666f7220746865207a65604482015269726f206164647265737360b01b60648201526084016108c5565b506001600160a01b031660009081526003602052604090205490565b600a546001600160a01b03163314610ebe5760405162461bcd60e51b81526004016108c59061283c565b610ec860006118f2565b565b600a546001600160a01b03163314610ef45760405162461bcd60e51b81526004016108c59061283c565b8060126000601360008154610f089061296c565b91829055508152602081019190915260400160002080546001600160a01b039283166001600160a01b031991821617909155600c8054939092169216919091179055565b600a546001600160a01b03163314610f765760405162461bcd60e51b81526004016108c59061283c565b600f805460ff19166001179055565b600a546001600160a01b03163314610faf5760405162461bcd60e51b81526004016108c59061283c565b600e55565b6060600180546107cd90612931565b600a546001600160a01b03163314610fed5760405162461bcd60e51b81526004016108c59061283c565b805161100090600b906020840190612283565b5050565b6001600160a01b03821633141561105d5760405162461bcd60e51b815260206004820152601960248201527f4552433732313a20617070726f766520746f2063616c6c65720000000000000060448201526064016108c5565b3360008181526005602090815260408083206001600160a01b03871680855290835292819020805460ff191686151590811790915590519081529192917f17307eab39ab6107e8899845ad3d59bd9653f200f220920489ca2b5937696c31910160405180910390a35050565b6010546040516331a9108f60e11b81526004810183905233916001600160a01b031690636352211e9060240160206040518083038186803b15801561110d57600080fd5b505afa158015611121573d6000803e3d6000fd5b505050506040513d601f19601f820116820180604052508101906111459190612469565b6001600160a01b031614801561116a575060008181526011602052604090205460ff16155b6111aa5760405162461bcd60e51b8152602060048201526011602482015270141611ce88155b985d5d1a1bdc9a5e9959607a1b60448201526064016108c5565b6000818152601160205260409020805460ff191660011790556111cd8383611944565b60405181907fd0ff8d9b4582b15e76934eb2ec3dd16a79e7f5c58d72291f672a214530dc058690600090a2505050565b6112073383611650565b6112235760405162461bcd60e51b81526004016108c590612871565b61122f84848484611c0d565b50505050565b6000818152600260205260409020546060906001600160a01b03166112b45760405162461bcd60e51b815260206004820152602f60248201527f4552433732314d657461646174613a2055524920717565727920666f72206e6f60448201526e3732bc34b9ba32b73a103a37b5b2b760891b60648201526084016108c5565b60006112be611c40565b905060008151116112de5760405180602001604052806000815250611309565b806112e884611c4f565b6040516020016112f992919061276b565b6040516020818303038152906040525b9392505050565b6015602052600090815260409020805461132990612931565b80601f016020809104026020016040519081016040528092919081815260200182805461135590612931565b80156113a25780601f10611377576101008083540402835291602001916113a2565b820191906000526020600020905b81548152906001019060200180831161138557829003601f168201915b505050505081565b600f5460ff16806113bf575061271060145410155b6113f95760405162461bcd60e51b815260206004820152600b60248201526a139bdd08185b1b1bddd95960aa1b60448201526064016108c5565b600e54341461143f5760405162461bcd60e51b81526020600482015260126024820152715058473a20496e76616c69642076616c756560701b60448201526064016108c5565b6110008282611944565b600a546001600160a01b031633146114735760405162461bcd60e51b81526004016108c59061283c565b6001600160a01b0381166114d85760405162461bcd60e51b815260206004820152602660248201527f4f776e61626c653a206e6577206f776e657220697320746865207a65726f206160448201526564647265737360d01b60648201526084016108c5565b6114e1816118f2565b50565b3360009081526016602052604090205460ff1661152f5760405162461bcd60e51b81526020600482015260096024820152682737ba1030b236b4b760b91b60448201526064016108c5565b6001600160a01b038216600081815260166020908152604091829020805460ff19168515159081179091558251938452908301527faaa3a79c39aa7799507595312c878f4fd2763be3ac0afd8a121a4e5519dbd5f3910160405180910390a15050565b60006001600160e01b031982166380ac58cd60e01b14806115c357506001600160e01b03198216635b5e139f60e01b145b8061079357506301ffc9a760e01b6001600160e01b0319831614610793565b600081815260046020526040902080546001600160a01b0319166001600160a01b038416908117909155819061161782610d96565b6001600160a01b03167f8c5be1e5ebec7d5bd14f71427d1e84f3dd0314c0f7b2291e5b200ac8c7c3b92560405160405180910390a45050565b6000818152600260205260408120546001600160a01b03166116c95760405162461bcd60e51b815260206004820152602c60248201527f4552433732313a206f70657261746f7220717565727920666f72206e6f6e657860448201526b34b9ba32b73a103a37b5b2b760a11b60648201526084016108c5565b60006116d483610d96565b9050806001600160a01b0316846001600160a01b0316148061170f5750836001600160a01b031661170484610850565b6001600160a01b0316145b8061173f57506001600160a01b0380821660009081526005602090815260408083209388168352929052205460ff165b949350505050565b826001600160a01b031661175a82610d96565b6001600160a01b0316146117c25760405162461bcd60e51b815260206004820152602960248201527f4552433732313a207472616e73666572206f6620746f6b656e2074686174206960448201526839903737ba1037bbb760b91b60648201526084016108c5565b6001600160a01b0382166118245760405162461bcd60e51b8152602060048201526024808201527f4552433732313a207472616e7366657220746f20746865207a65726f206164646044820152637265737360e01b60648201526084016108c5565b61182f838383611d69565b61183a6000826115e2565b6001600160a01b03831660009081526003602052604081208054600192906118639084906128ee565b90915550506001600160a01b03821660009081526003602052604081208054600192906118919084906128c2565b909155505060008181526002602052604080822080546001600160a01b0319166001600160a01b0386811691821790925591518493918716917fddf252ad1be2c89b69c2b068fc378daa952ba7f163c4a11628f55a4df523b3ef91a4505050565b600a80546001600160a01b038381166001600160a01b0319831681179093556040519116919082907f8be0079c531659141344cd1fd0a4f28419497f9722a3daafe3b4186f6b6457e090600090a35050565b6000828260405161195692919061275b565b60408051918290038220600d546020840152908201819052915060009060600160408051808303601f19018152908290528051602090910120600f546302571be360e01b8352600483018290529092506000916101009091046001600160a01b0316906302571be39060240160206040518083038186803b1580156119da57600080fd5b505afa1580156119ee573d6000803e3d6000fd5b505050506040513d601f19601f82011682018060405250810190611a129190612469565b90506001600160a01b03811615611a6b5760405162461bcd60e51b815260206004820152601960248201527f5058473a204e616d6520616c726561647920636c61696d65640000000000000060448201526064016108c5565b6013546000908152601260205260409020546001600160a01b0316611ac95760405162461bcd60e51b8152602060048201526014602482015273141611ce88139bc81c995cdbdb1d995c881cd95d60621b60448201526064016108c5565b600f54600d546040516306ab592360e01b81526004810191909152602481018590523060448201526101009091046001600160a01b0316906306ab592390606401602060405180830381600087803b158015611b2457600080fd5b505af1158015611b38573d6000803e3d6000fd5b505050506040513d601f19601f82011682018060405250810190611b5c91906125ee565b50600f54600c54604051630c4b7b8560e11b8152600481018590526001600160a01b0391821660248201526101009092041690631896f70a90604401600060405180830381600087803b158015611bb257600080fd5b505af1158015611bc6573d6000803e3d6000fd5b50505050611bd7338360001c611e21565b6000828152601560205260409020611bf0908686612307565b5060148054906000611c018361296c565b91905055505050505050565b611c18848484611747565b611c2484848484611e3b565b61122f5760405162461bcd60e51b81526004016108c5906127ea565b6060600b80546107cd90612931565b606081611c735750506040805180820190915260018152600360fc1b602082015290565b8160005b8115611c9d5780611c878161296c565b9150611c969050600a836128da565b9150611c77565b60008167ffffffffffffffff811115611cc657634e487b7160e01b600052604160045260246000fd5b6040519080825280601f01601f191660200182016040528015611cf0576020820181803683370190505b5090505b841561173f57611d056001836128ee565b9150611d12600a86612987565b611d1d9060306128c2565b60f81b818381518110611d4057634e487b7160e01b600052603260045260246000fd5b60200101906001600160f81b031916908160001a905350611d62600a866128da565b9450611cf4565b6001600160a01b038316611dc457611dbf81600880546000838152600960205260408120829055600182018355919091527ff3f7a9fe364faab93b216da50a3214154f22a0a2b415b23a84c8169e8b636ee30155565b611de7565b816001600160a01b0316836001600160a01b031614611de757611de78382611f48565b6001600160a01b038216611dfe576109fb81611fe5565b826001600160a01b0316826001600160a01b0316146109fb576109fb82826120be565b611000828260405180602001604052806000815250612102565b60006001600160a01b0384163b15611f3d57604051630a85bd0160e11b81526001600160a01b0385169063150b7a0290611e7f90339089908890889060040161279a565b602060405180830381600087803b158015611e9957600080fd5b505af1925050508015611ec9575060408051601f3d908101601f19168201909252611ec691810190612643565b60015b611f23573d808015611ef7576040519150601f19603f3d011682016040523d82523d6000602084013e611efc565b606091505b508051611f1b5760405162461bcd60e51b81526004016108c5906127ea565b805181602001fd5b6001600160e01b031916630a85bd0160e11b14905061173f565b506001949350505050565b60006001611f5584610e0d565b611f5f91906128ee565b600083815260076020526040902054909150808214611fb2576001600160a01b03841660009081526006602090815260408083208584528252808320548484528184208190558352600790915290208190555b5060009182526007602090815260408084208490556001600160a01b039094168352600681528383209183525290812055565b600854600090611ff7906001906128ee565b6000838152600960205260408120546008805493945090928490811061202d57634e487b7160e01b600052603260045260246000fd5b90600052602060002001549050806008838154811061205c57634e487b7160e01b600052603260045260246000fd5b60009182526020808320909101929092558281526009909152604080822084905585825281205560088054806120a257634e487b7160e01b600052603160045260246000fd5b6001900381819060005260206000200160009055905550505050565b60006120c983610e0d565b6001600160a01b039093166000908152600660209081526040808320868452825280832085905593825260079052919091209190915550565b61210c8383612135565b6121196000848484611e3b565b6109fb5760405162461bcd60e51b81526004016108c5906127ea565b6001600160a01b03821661218b5760405162461bcd60e51b815260206004820181905260248201527f4552433732313a206d696e7420746f20746865207a65726f206164647265737360448201526064016108c5565b6000818152600260205260409020546001600160a01b0316156121f05760405162461bcd60e51b815260206004820152601c60248201527f4552433732313a20746f6b656e20616c7265616479206d696e7465640000000060448201526064016108c5565b6121fc60008383611d69565b6001600160a01b03821660009081526003602052604081208054600192906122259084906128c2565b909155505060008181526002602052604080822080546001600160a01b0319166001600160a01b03861690811790915590518392907fddf252ad1be2c89b69c2b068fc378daa952ba7f163c4a11628f55a4df523b3ef908290a45050565b82805461228f90612931565b90600052602060002090601f0160209004810192826122b157600085556122f7565b82601f106122ca57805160ff19168380011785556122f7565b828001600101855582156122f7579182015b828111156122f75782518255916020019190600101906122dc565b5061230392915061237b565b5090565b82805461231390612931565b90600052602060002090601f01602090048101928261233557600085556122f7565b82601f1061234e5782800160ff198235161785556122f7565b828001600101855582156122f7579182015b828111156122f7578235825591602001919060010190612360565b5b80821115612303576000815560010161237c565b600067ffffffffffffffff808411156123ab576123ab6129c7565b604051601f8501601f19908116603f011681019082821181831017156123d3576123d36129c7565b816040528093508581528686860111156123ec57600080fd5b858560208301376000602087830101525050509392505050565b60008083601f840112612417578182fd5b50813567ffffffffffffffff81111561242e578182fd5b60208301915083602082850101111561244657600080fd5b9250929050565b60006020828403121561245e578081fd5b8135611309816129dd565b60006020828403121561247a578081fd5b8151611309816129dd565b60008060408385031215612497578081fd5b82356124a2816129dd565b915060208301356124b2816129dd565b809150509250929050565b6000806000606084860312156124d1578081fd5b83356124dc816129dd565b925060208401356124ec816129dd565b929592945050506040919091013590565b60008060008060808587031215612512578081fd5b843561251d816129dd565b9350602085013561252d816129dd565b925060408501359150606085013567ffffffffffffffff81111561254f578182fd5b8501601f8101871361255f578182fd5b61256e87823560208401612390565b91505092959194509250565b6000806040838503121561258c578182fd5b8235612597816129dd565b9150602083013580151581146124b2578182fd5b600080604083850312156125bd578182fd5b82356125c8816129dd565b946020939093013593505050565b6000602082840312156125e7578081fd5b5035919050565b6000602082840312156125ff578081fd5b5051919050565b60008060408385031215612618578182fd5b50508035926020909101359150565b600060208284031215612638578081fd5b8135611309816129f2565b600060208284031215612654578081fd5b8151611309816129f2565b60008060208385031215612671578182fd5b823567ffffffffffffffff811115612687578283fd5b61269385828601612406565b90969095509350505050565b6000806000604084860312156126b3578081fd5b833567ffffffffffffffff8111156126c9578182fd5b6126d586828701612406565b909790965060209590950135949350505050565b6000602082840312156126fa578081fd5b813567ffffffffffffffff811115612710578182fd5b8201601f81018413612720578182fd5b61173f84823560208401612390565b60008151808452612747816020860160208601612905565b601f01601f19169290920160200192915050565b8183823760009101908152919050565b6000835161277d818460208801612905565b835190830190612791818360208801612905565b01949350505050565b6001600160a01b03858116825284166020820152604081018390526080606082018190526000906127cd9083018461272f565b9695505050505050565b602081526000611309602083018461272f565b60208082526032908201527f4552433732313a207472616e7366657220746f206e6f6e20455243373231526560408201527131b2b4bb32b91034b6b83632b6b2b73a32b960711b606082015260800190565b6020808252818101527f4f776e61626c653a2063616c6c6572206973206e6f7420746865206f776e6572604082015260600190565b60208082526031908201527f4552433732313a207472616e736665722063616c6c6572206973206e6f74206f6040820152701ddb995c881b9bdc88185c1c1c9bdd9959607a1b606082015260800190565b600082198211156128d5576128d561299b565b500190565b6000826128e9576128e96129b1565b500490565b6000828210156129005761290061299b565b500390565b60005b83811015612920578181015183820152602001612908565b8381111561122f5750506000910152565b600181811c9082168061294557607f821691505b6020821081141561296657634e487b7160e01b600052602260045260246000fd5b50919050565b60006000198214156129805761298061299b565b5060010190565b600082612996576129966129b1565b500690565b634e487b7160e01b600052601160045260246000fd5b634e487b7160e01b600052601260045260246000fd5b634e487b7160e01b600052604160045260246000fd5b6001600160a01b03811681146114e157600080fd5b6001600160e01b0319811681146114e157600080fdfea26469706673582212201da0342b6515ae81b4679dc3a4a4fbe138839a6b2fc2120ef6357e2d8f78ba9864736f6c63430008040033",
  "immutableReferences": {},
  "source": "// SPDX-License-Identifier: MIT\npragma solidity >=0.4.22 <0.9.0;\nimport \"@openzeppelin/contracts/token/ERC721/extensions/ERC721Enumerable.sol\";\nimport \"@openzeppelin/contracts/access/Ownable.sol\";\nimport \"./ENS.sol\";\n\n/**\n______________  ___________     _________________________ ___  \n\\______   \\   \\/  /  _____/     \\_   _____/\\__    ___/   |   \\ \n |     ___/\\     /   \\  ___      |    __)_   |    | /    ~    \\\n |    |    /     \\    \\_\\  \\     |        \\  |    | \\    Y    /\n |____|   /___/\\  \\______  / /\\ /_______  /  |____|  \\___|_  / \n                \\_/      \\/  \\/         \\/                 \\/  \n\nwww.pixelglyphs.io\n*/\n\n// ENS ADDRESS (Used on all networks) 0x00000000000C2E074eC69A0dFb2997BA6C7d2e1e\n\ncontract PxgRegistrar is ERC721Enumerable, Ownable {\n  string BASE_URI;\n  address RESOLVER;\n  bytes32 public ROOT_NODE;\n  uint256 PRICE;\n  bool publicRegistrationOpen = false;\n  ENS ens;\n  ERC721 glyphs;\n\n  mapping(uint256 => bool) public claimedGlyphIds;\n  mapping(uint256 => address) public resolvers;\n  uint256 public currentResolverVersion;\n  uint256 count;\n\n  constructor(\n    string memory baseUri,\n    address ensAddr,\n    address glyphAddr,\n    bytes32 node\n  ) ERC721(\"PXG.ETH\", \"PXG.ETH\") {\n    BASE_URI = baseUri;\n    ROOT_NODE = node;\n    ens = ENS(ensAddr);\n    glyphs = ERC721(glyphAddr);\n    admin[msg.sender] = true;\n  }\n\n  function addResolverVersion(address resolver) public onlyOwner {\n    resolvers[++currentResolverVersion] = resolver;\n    RESOLVER = resolver;\n  }\n\n  function setBaseUri(string memory baseUri) public onlyOwner {\n    BASE_URI = baseUri;\n  }\n\n  function _baseURI() internal view virtual override returns (string memory) {\n    return BASE_URI;\n  }\n\n  function openReg() public onlyOwner {\n    publicRegistrationOpen = true;\n  }\n\n  function updatePrice(uint256 price) public onlyOwner {\n    PRICE = price;\n  }\n\n  function getTokenIdFromNode(bytes32 node) public pure returns (uint256) {\n    return uint256(node);\n  }\n\n  function getOwnerFromNode(bytes32 node) public view returns (address) {\n    return _exists(uint256(node)) ? ownerOf(uint256(node)) : address(0);\n  }\n\n  function setResolver(bytes32 node, uint256 version) public {\n    require(resolvers[version] != address(0), \"PXG: Resolver does not exist\");\n    require(\n      getOwnerFromNode(node) == msg.sender,\n      \"PXG: Only owner can set resolver\"\n    );\n    ens.setResolver(node, resolvers[version]);\n  }\n\n  mapping(bytes32 => string) public nodeToLabel;\n\n  // root node is pxg.eth subnode is subdomain label\n  function _register(string calldata subdomain) internal {\n    bytes32 subdomainLabel = keccak256(bytes(subdomain));\n    bytes32 node = keccak256(abi.encodePacked(ROOT_NODE, subdomainLabel));\n\n    address currentOwner = ens.owner(node);\n\n    require(currentOwner == address(0), \"PXG: Name already claimed\");\n    require(\n      resolvers[currentResolverVersion] != address(0),\n      \"PXG: No resolver set\"\n    );\n\n    // pxg.eth, mysubdomain, address\n    ens.setSubnodeOwner(ROOT_NODE, subdomainLabel, address(this));\n    ens.setResolver(node, RESOLVER);\n    _safeMint(msg.sender, uint256(node));\n    nodeToLabel[node] = subdomain;\n    count++;\n  }\n\n  function resolver(bytes32 node) external view returns (address) {\n    return ens.resolver(node);\n  }\n\n  mapping(address => bool) private admin;\n\n  modifier onlyAdmin() {\n    require(admin[msg.sender], \"Not admin\");\n    _;\n  }\n\n  event CollectionSupportAdded(address collection);\n\n  event ModifyAdmin(address adminAddr, bool value);\n\n  function modifyAdmin(address adminAddr, bool value) public onlyAdmin {\n    admin[adminAddr] = value;\n    emit ModifyAdmin(adminAddr, value);\n  }\n\n  mapping(address => bool) supportedCollections;\n\n  function addCollectionSupport(address collection) public onlyAdmin {\n    supportedCollections[collection] = true;\n    emit CollectionSupportAdded(collection);\n  }\n\n  function supportsCollection(address collection) public view returns (bool) {\n    return supportedCollections[collection];\n  }\n\n  event ClaimedGlyph(uint256 indexed glyphId);\n\n  function claimGlyph(string calldata subdomain, uint256 glyphId) public {\n    require(\n      glyphs.ownerOf(glyphId) == msg.sender &&\n        claimedGlyphIds[glyphId] == false,\n      \"PXG: Unauthorized\"\n    );\n\n    claimedGlyphIds[glyphId] = true;\n    _register(subdomain);\n    emit ClaimedGlyph(glyphId);\n  }\n\n  function register(string calldata subdomain) public payable {\n    require(publicRegistrationOpen || count >= 10000, \"Not allowed\");\n    // uint256 len = bytes(subdomain).length;\n    require(msg.value == PRICE, \"PXG: Invalid value\");\n    _register(subdomain);\n  }\n}\n",
  "sourcePath": "/Users/seanpapanikolas/Projects/pxg/contracts/PxgRegistrar.sol",
  "compiler": {
    "name": "solc",
    "version": "0.8.4+commit.c7e474f2.Emscripten.clang"
  },
  "schemaVersion": "3.4.2",
  "updatedAt": "2021-08-24T20:09:13.759Z",
  "networkType": "ethereum",
  "devdoc": {
    "kind": "dev",
    "methods": {
      "approve(address,uint256)": {
        "details": "See {IERC721-approve}."
      },
      "balanceOf(address)": {
        "details": "See {IERC721-balanceOf}."
      },
      "getApproved(uint256)": {
        "details": "See {IERC721-getApproved}."
      },
      "isApprovedForAll(address,address)": {
        "details": "See {IERC721-isApprovedForAll}."
      },
      "name()": {
        "details": "See {IERC721Metadata-name}."
      },
      "owner()": {
        "details": "Returns the address of the current owner."
      },
      "ownerOf(uint256)": {
        "details": "See {IERC721-ownerOf}."
      },
      "renounceOwnership()": {
        "details": "Leaves the contract without owner. It will not be possible to call `onlyOwner` functions anymore. Can only be called by the current owner. NOTE: Renouncing ownership will leave the contract without an owner, thereby removing any functionality that is only available to the owner."
      },
      "safeTransferFrom(address,address,uint256)": {
        "details": "See {IERC721-safeTransferFrom}."
      },
      "safeTransferFrom(address,address,uint256,bytes)": {
        "details": "See {IERC721-safeTransferFrom}."
      },
      "setApprovalForAll(address,bool)": {
        "details": "See {IERC721-setApprovalForAll}."
      },
      "supportsInterface(bytes4)": {
        "details": "See {IERC165-supportsInterface}."
      },
      "symbol()": {
        "details": "See {IERC721Metadata-symbol}."
      },
      "tokenByIndex(uint256)": {
        "details": "See {IERC721Enumerable-tokenByIndex}."
      },
      "tokenOfOwnerByIndex(address,uint256)": {
        "details": "See {IERC721Enumerable-tokenOfOwnerByIndex}."
      },
      "tokenURI(uint256)": {
        "details": "See {IERC721Metadata-tokenURI}."
      },
      "totalSupply()": {
        "details": "See {IERC721Enumerable-totalSupply}."
      },
      "transferFrom(address,address,uint256)": {
        "details": "See {IERC721-transferFrom}."
      },
      "transferOwnership(address)": {
        "details": "Transfers ownership of the contract to a new account (`newOwner`). Can only be called by the current owner."
      }
    },
    "version": 1
  },
  "userdoc": {
    "kind": "user",
    "methods": {},
    "notice": "______________  ___________     _________________________ ___   \\______   \\   \\/  /  _____/     \\_   _____/\\__    ___/   |   \\  |     ___/\\     /   \\  ___      |    __)_   |    | /    ~    \\ |    |    /     \\    \\_\\  \\     |        \\  |    | \\    Y    / |____|   /___/\\  \\______  / /\\ /_______  /  |____|  \\___|_  /  \\_/      \\/  \\/         \\/                 \\/   www.pixelglyphs.io",
    "version": 1
  }
}