{
  "contractName": "PxgResolverV1",
  "abi": [
    {
      "inputs": [
        {
          "internalType": "address",
          "name": "ens",
          "type": "address"
        },
        {
          "internalType": "address",
          "name": "registrarAddress",
          "type": "address"
        },
        {
          "internalType": "address",
          "name": "initialAdmin",
          "type": "address"
        }
      ],
      "stateMutability": "nonpayable",
      "type": "constructor"
    },
    {
      "anonymous": false,
      "inputs": [
        {
          "indexed": true,
          "internalType": "bytes32",
          "name": "node",
          "type": "bytes32"
        },
        {
          "indexed": true,
          "internalType": "uint256",
          "name": "contentType",
          "type": "uint256"
        }
      ],
      "name": "ABIChanged",
      "type": "event"
    },
    {
      "anonymous": false,
      "inputs": [
        {
          "indexed": true,
          "internalType": "bytes32",
          "name": "node",
          "type": "bytes32"
        },
        {
          "indexed": false,
          "internalType": "address",
          "name": "a",
          "type": "address"
        }
      ],
      "name": "AddrChanged",
      "type": "event"
    },
    {
      "anonymous": false,
      "inputs": [
        {
          "indexed": true,
          "internalType": "bytes32",
          "name": "node",
          "type": "bytes32"
        },
        {
          "indexed": false,
          "internalType": "uint256",
          "name": "coinType",
          "type": "uint256"
        },
        {
          "indexed": false,
          "internalType": "bytes",
          "name": "newAddress",
          "type": "bytes"
        }
      ],
      "name": "AddressChanged",
      "type": "event"
    },
    {
      "anonymous": false,
      "inputs": [
        {
          "indexed": true,
          "internalType": "address",
          "name": "owner",
          "type": "address"
        },
        {
          "indexed": true,
          "internalType": "address",
          "name": "operator",
          "type": "address"
        },
        {
          "indexed": false,
          "internalType": "bool",
          "name": "approved",
          "type": "bool"
        }
      ],
      "name": "ApprovalForAll",
      "type": "event"
    },
    {
      "anonymous": false,
      "inputs": [
        {
          "indexed": false,
          "internalType": "address",
          "name": "collection",
          "type": "address"
        }
      ],
      "name": "CollectionSupportAdded",
      "type": "event"
    },
    {
      "anonymous": false,
      "inputs": [
        {
          "indexed": true,
          "internalType": "bytes32",
          "name": "node",
          "type": "bytes32"
        },
        {
          "indexed": false,
          "internalType": "bytes",
          "name": "hash",
          "type": "bytes"
        }
      ],
      "name": "ContenthashChanged",
      "type": "event"
    },
    {
      "anonymous": false,
      "inputs": [
        {
          "indexed": true,
          "internalType": "bytes32",
          "name": "node",
          "type": "bytes32"
        },
        {
          "indexed": false,
          "internalType": "bytes",
          "name": "name",
          "type": "bytes"
        },
        {
          "indexed": false,
          "internalType": "uint16",
          "name": "resource",
          "type": "uint16"
        },
        {
          "indexed": false,
          "internalType": "bytes",
          "name": "record",
          "type": "bytes"
        }
      ],
      "name": "DNSRecordChanged",
      "type": "event"
    },
    {
      "anonymous": false,
      "inputs": [
        {
          "indexed": true,
          "internalType": "bytes32",
          "name": "node",
          "type": "bytes32"
        },
        {
          "indexed": false,
          "internalType": "bytes",
          "name": "name",
          "type": "bytes"
        },
        {
          "indexed": false,
          "internalType": "uint16",
          "name": "resource",
          "type": "uint16"
        }
      ],
      "name": "DNSRecordDeleted",
      "type": "event"
    },
    {
      "anonymous": false,
      "inputs": [
        {
          "indexed": true,
          "internalType": "bytes32",
          "name": "node",
          "type": "bytes32"
        }
      ],
      "name": "DNSZoneCleared",
      "type": "event"
    },
    {
      "anonymous": false,
      "inputs": [
        {
          "indexed": true,
          "internalType": "bytes32",
          "name": "node",
          "type": "bytes32"
        },
        {
          "indexed": false,
          "internalType": "bytes",
          "name": "lastzonehash",
          "type": "bytes"
        },
        {
          "indexed": false,
          "internalType": "bytes",
          "name": "zonehash",
          "type": "bytes"
        }
      ],
      "name": "DNSZonehashChanged",
      "type": "event"
    },
    {
      "anonymous": false,
      "inputs": [
        {
          "indexed": true,
          "internalType": "bytes32",
          "name": "node",
          "type": "bytes32"
        },
        {
          "indexed": false,
          "internalType": "address",
          "name": "collection",
          "type": "address"
        },
        {
          "indexed": false,
          "internalType": "uint256",
          "name": "tokenId",
          "type": "uint256"
        }
      ],
      "name": "DefaultAvatarSet",
      "type": "event"
    },
    {
      "anonymous": false,
      "inputs": [
        {
          "indexed": true,
          "internalType": "bytes32",
          "name": "node",
          "type": "bytes32"
        },
        {
          "indexed": true,
          "internalType": "bytes4",
          "name": "interfaceID",
          "type": "bytes4"
        },
        {
          "indexed": false,
          "internalType": "address",
          "name": "implementer",
          "type": "address"
        }
      ],
      "name": "InterfaceChanged",
      "type": "event"
    },
    {
      "anonymous": false,
      "inputs": [
        {
          "indexed": false,
          "internalType": "address",
          "name": "adminAddr",
          "type": "address"
        },
        {
          "indexed": false,
          "internalType": "bool",
          "name": "value",
          "type": "bool"
        }
      ],
      "name": "ModifyAdmin",
      "type": "event"
    },
    {
      "anonymous": false,
      "inputs": [
        {
          "indexed": true,
          "internalType": "bytes32",
          "name": "node",
          "type": "bytes32"
        },
        {
          "indexed": false,
          "internalType": "string",
          "name": "name",
          "type": "string"
        }
      ],
      "name": "NameChanged",
      "type": "event"
    },
    {
      "anonymous": false,
      "inputs": [
        {
          "indexed": true,
          "internalType": "bytes32",
          "name": "node",
          "type": "bytes32"
        },
        {
          "indexed": false,
          "internalType": "bytes32",
          "name": "x",
          "type": "bytes32"
        },
        {
          "indexed": false,
          "internalType": "bytes32",
          "name": "y",
          "type": "bytes32"
        }
      ],
      "name": "PubkeyChanged",
      "type": "event"
    },
    {
      "anonymous": false,
      "inputs": [
        {
          "indexed": true,
          "internalType": "bytes32",
          "name": "node",
          "type": "bytes32"
        },
        {
          "indexed": true,
          "internalType": "string",
          "name": "indexedKey",
          "type": "string"
        },
        {
          "indexed": false,
          "internalType": "string",
          "name": "key",
          "type": "string"
        }
      ],
      "name": "TextChanged",
      "type": "event"
    },
    {
      "inputs": [
        {
          "internalType": "bytes32",
          "name": "node",
          "type": "bytes32"
        },
        {
          "internalType": "uint256",
          "name": "contentTypes",
          "type": "uint256"
        }
      ],
      "name": "ABI",
      "outputs": [
        {
          "internalType": "uint256",
          "name": "",
          "type": "uint256"
        },
        {
          "internalType": "bytes",
          "name": "",
          "type": "bytes"
        }
      ],
      "stateMutability": "view",
      "type": "function",
      "constant": true
    },
    {
      "inputs": [
        {
          "internalType": "bytes32",
          "name": "node",
          "type": "bytes32"
        }
      ],
      "name": "clearDNSZone",
      "outputs": [],
      "stateMutability": "nonpayable",
      "type": "function"
    },
    {
      "inputs": [
        {
          "internalType": "bytes32",
          "name": "node",
          "type": "bytes32"
        }
      ],
      "name": "contenthash",
      "outputs": [
        {
          "internalType": "bytes",
          "name": "",
          "type": "bytes"
        }
      ],
      "stateMutability": "view",
      "type": "function",
      "constant": true
    },
    {
      "inputs": [
        {
          "internalType": "bytes32",
          "name": "node",
          "type": "bytes32"
        },
        {
          "internalType": "bytes32",
          "name": "name",
          "type": "bytes32"
        },
        {
          "internalType": "uint16",
          "name": "resource",
          "type": "uint16"
        }
      ],
      "name": "dnsRecord",
      "outputs": [
        {
          "internalType": "bytes",
          "name": "",
          "type": "bytes"
        }
      ],
      "stateMutability": "view",
      "type": "function",
      "constant": true
    },
    {
      "inputs": [
        {
          "internalType": "bytes32",
          "name": "node",
          "type": "bytes32"
        },
        {
          "internalType": "bytes32",
          "name": "name",
          "type": "bytes32"
        }
      ],
      "name": "hasDNSRecords",
      "outputs": [
        {
          "internalType": "bool",
          "name": "",
          "type": "bool"
        }
      ],
      "stateMutability": "view",
      "type": "function",
      "constant": true
    },
    {
      "inputs": [
        {
          "internalType": "bytes32",
          "name": "node",
          "type": "bytes32"
        },
        {
          "internalType": "bytes4",
          "name": "interfaceID",
          "type": "bytes4"
        }
      ],
      "name": "interfaceImplementer",
      "outputs": [
        {
          "internalType": "address",
          "name": "",
          "type": "address"
        }
      ],
      "stateMutability": "view",
      "type": "function",
      "constant": true
    },
    {
      "inputs": [
        {
          "internalType": "bytes[]",
          "name": "data",
          "type": "bytes[]"
        }
      ],
      "name": "multicall",
      "outputs": [
        {
          "internalType": "bytes[]",
          "name": "results",
          "type": "bytes[]"
        }
      ],
      "stateMutability": "nonpayable",
      "type": "function"
    },
    {
      "inputs": [
        {
          "internalType": "bytes32",
          "name": "node",
          "type": "bytes32"
        }
      ],
      "name": "name",
      "outputs": [
        {
          "internalType": "string",
          "name": "",
          "type": "string"
        }
      ],
      "stateMutability": "view",
      "type": "function",
      "constant": true
    },
    {
      "inputs": [
        {
          "internalType": "bytes32",
          "name": "node",
          "type": "bytes32"
        }
      ],
      "name": "pubkey",
      "outputs": [
        {
          "internalType": "bytes32",
          "name": "x",
          "type": "bytes32"
        },
        {
          "internalType": "bytes32",
          "name": "y",
          "type": "bytes32"
        }
      ],
      "stateMutability": "view",
      "type": "function",
      "constant": true
    },
    {
      "inputs": [
        {
          "internalType": "bytes32",
          "name": "node",
          "type": "bytes32"
        },
        {
          "internalType": "uint256",
          "name": "contentType",
          "type": "uint256"
        },
        {
          "internalType": "bytes",
          "name": "data",
          "type": "bytes"
        }
      ],
      "name": "setABI",
      "outputs": [],
      "stateMutability": "nonpayable",
      "type": "function"
    },
    {
      "inputs": [
        {
          "internalType": "bytes32",
          "name": "node",
          "type": "bytes32"
        },
        {
          "internalType": "bytes",
          "name": "hash",
          "type": "bytes"
        }
      ],
      "name": "setContenthash",
      "outputs": [],
      "stateMutability": "nonpayable",
      "type": "function"
    },
    {
      "inputs": [
        {
          "internalType": "bytes32",
          "name": "node",
          "type": "bytes32"
        },
        {
          "internalType": "bytes",
          "name": "data",
          "type": "bytes"
        }
      ],
      "name": "setDNSRecords",
      "outputs": [],
      "stateMutability": "nonpayable",
      "type": "function"
    },
    {
      "inputs": [
        {
          "internalType": "bytes32",
          "name": "node",
          "type": "bytes32"
        },
        {
          "internalType": "bytes4",
          "name": "interfaceID",
          "type": "bytes4"
        },
        {
          "internalType": "address",
          "name": "implementer",
          "type": "address"
        }
      ],
      "name": "setInterface",
      "outputs": [],
      "stateMutability": "nonpayable",
      "type": "function"
    },
    {
      "inputs": [
        {
          "internalType": "bytes32",
          "name": "node",
          "type": "bytes32"
        },
        {
          "internalType": "string",
          "name": "name",
          "type": "string"
        }
      ],
      "name": "setName",
      "outputs": [],
      "stateMutability": "nonpayable",
      "type": "function"
    },
    {
      "inputs": [
        {
          "internalType": "bytes32",
          "name": "node",
          "type": "bytes32"
        },
        {
          "internalType": "bytes32",
          "name": "x",
          "type": "bytes32"
        },
        {
          "internalType": "bytes32",
          "name": "y",
          "type": "bytes32"
        }
      ],
      "name": "setPubkey",
      "outputs": [],
      "stateMutability": "nonpayable",
      "type": "function"
    },
    {
      "inputs": [
        {
          "internalType": "bytes32",
          "name": "node",
          "type": "bytes32"
        },
        {
          "internalType": "string",
          "name": "key",
          "type": "string"
        },
        {
          "internalType": "string",
          "name": "value",
          "type": "string"
        }
      ],
      "name": "setText",
      "outputs": [],
      "stateMutability": "nonpayable",
      "type": "function"
    },
    {
      "inputs": [
        {
          "internalType": "bytes32",
          "name": "node",
          "type": "bytes32"
        },
        {
          "internalType": "bytes",
          "name": "hash",
          "type": "bytes"
        }
      ],
      "name": "setZonehash",
      "outputs": [],
      "stateMutability": "nonpayable",
      "type": "function"
    },
    {
      "inputs": [
        {
          "internalType": "bytes32",
          "name": "node",
          "type": "bytes32"
        },
        {
          "internalType": "string",
          "name": "key",
          "type": "string"
        }
      ],
      "name": "text",
      "outputs": [
        {
          "internalType": "string",
          "name": "",
          "type": "string"
        }
      ],
      "stateMutability": "view",
      "type": "function",
      "constant": true
    },
    {
      "inputs": [
        {
          "internalType": "bytes32",
          "name": "node",
          "type": "bytes32"
        }
      ],
      "name": "zonehash",
      "outputs": [
        {
          "internalType": "bytes",
          "name": "",
          "type": "bytes"
        }
      ],
      "stateMutability": "view",
      "type": "function",
      "constant": true
    },
    {
      "inputs": [
        {
          "internalType": "address",
          "name": "adminAddr",
          "type": "address"
        },
        {
          "internalType": "bool",
          "name": "value",
          "type": "bool"
        }
      ],
      "name": "modifyAdmin",
      "outputs": [],
      "stateMutability": "nonpayable",
      "type": "function"
    },
    {
      "inputs": [
        {
          "internalType": "address",
          "name": "collection",
          "type": "address"
        }
      ],
      "name": "addCollectionSupport",
      "outputs": [],
      "stateMutability": "nonpayable",
      "type": "function"
    },
    {
      "inputs": [
        {
          "internalType": "bytes32",
          "name": "node",
          "type": "bytes32"
        }
      ],
      "name": "addr",
      "outputs": [
        {
          "internalType": "address payable",
          "name": "",
          "type": "address"
        }
      ],
      "stateMutability": "view",
      "type": "function",
      "constant": true
    },
    {
      "inputs": [
        {
          "internalType": "bytes32",
          "name": "node",
          "type": "bytes32"
        },
        {
          "internalType": "uint256",
          "name": "coinType",
          "type": "uint256"
        }
      ],
      "name": "addr",
      "outputs": [
        {
          "internalType": "bytes",
          "name": "",
          "type": "bytes"
        }
      ],
      "stateMutability": "view",
      "type": "function",
      "constant": true
    },
    {
      "inputs": [
        {
          "internalType": "address",
          "name": "collection",
          "type": "address"
        }
      ],
      "name": "supportsCollection",
      "outputs": [
        {
          "internalType": "bool",
          "name": "",
          "type": "bool"
        }
      ],
      "stateMutability": "view",
      "type": "function",
      "constant": true
    },
    {
      "inputs": [
        {
          "internalType": "bytes32",
          "name": "node",
          "type": "bytes32"
        }
      ],
      "name": "getGalleryLength",
      "outputs": [
        {
          "internalType": "uint256",
          "name": "",
          "type": "uint256"
        }
      ],
      "stateMutability": "view",
      "type": "function",
      "constant": true
    },
    {
      "inputs": [
        {
          "internalType": "bytes32",
          "name": "node",
          "type": "bytes32"
        },
        {
          "internalType": "uint256",
          "name": "idx",
          "type": "uint256"
        }
      ],
      "name": "getGalleryItemAtIndex",
      "outputs": [
        {
          "internalType": "address",
          "name": "",
          "type": "address"
        },
        {
          "internalType": "uint256",
          "name": "",
          "type": "uint256"
        }
      ],
      "stateMutability": "view",
      "type": "function",
      "constant": true
    },
    {
      "inputs": [
        {
          "internalType": "bytes32",
          "name": "node",
          "type": "bytes32"
        },
        {
          "internalType": "address[]",
          "name": "collections",
          "type": "address[]"
        },
        {
          "internalType": "uint256[]",
          "name": "ids",
          "type": "uint256[]"
        },
        {
          "internalType": "uint256[]",
          "name": "idx",
          "type": "uint256[]"
        }
      ],
      "name": "setManyGalleryItems",
      "outputs": [],
      "stateMutability": "nonpayable",
      "type": "function"
    },
    {
      "inputs": [
        {
          "internalType": "bytes32",
          "name": "node",
          "type": "bytes32"
        },
        {
          "internalType": "address",
          "name": "collectionAddress",
          "type": "address"
        },
        {
          "internalType": "uint256",
          "name": "tokenId",
          "type": "uint256"
        },
        {
          "internalType": "uint256",
          "name": "idx",
          "type": "uint256"
        }
      ],
      "name": "setGalleryItem",
      "outputs": [],
      "stateMutability": "nonpayable",
      "type": "function"
    },
    {
      "inputs": [
        {
          "internalType": "bytes32",
          "name": "node",
          "type": "bytes32"
        },
        {
          "internalType": "address",
          "name": "collectionAddress",
          "type": "address"
        },
        {
          "internalType": "uint256",
          "name": "tokenId",
          "type": "uint256"
        },
        {
          "internalType": "uint256",
          "name": "idx",
          "type": "uint256"
        }
      ],
      "name": "removeGalleryItem",
      "outputs": [],
      "stateMutability": "nonpayable",
      "type": "function"
    },
    {
      "inputs": [
        {
          "internalType": "bytes32",
          "name": "node",
          "type": "bytes32"
        }
      ],
      "name": "getDefaultAvatar",
      "outputs": [
        {
          "internalType": "address",
          "name": "",
          "type": "address"
        },
        {
          "internalType": "uint256",
          "name": "",
          "type": "uint256"
        }
      ],
      "stateMutability": "view",
      "type": "function",
      "constant": true
    },
    {
      "inputs": [
        {
          "internalType": "bytes32",
          "name": "node",
          "type": "bytes32"
        },
        {
          "internalType": "address",
          "name": "collection",
          "type": "address"
        },
        {
          "internalType": "uint256",
          "name": "tokenId",
          "type": "uint256"
        }
      ],
      "name": "setDefaultAvatar",
      "outputs": [],
      "stateMutability": "nonpayable",
      "type": "function"
    },
    {
      "inputs": [
        {
          "internalType": "bytes4",
          "name": "interfaceID",
          "type": "bytes4"
        }
      ],
      "name": "supportsInterface",
      "outputs": [
        {
          "internalType": "bool",
          "name": "",
          "type": "bool"
        }
      ],
      "stateMutability": "pure",
      "type": "function",
      "constant": true
    }
  ],
  "bytecode": "0x6080604052601180546001600160a01b03191673b47e3cd837ddf8e4c57f05d70ab865de6e193bbb1790553480156200003757600080fd5b50604051620033c8380380620033c88339810160408190526200005a91620000d1565b600c80546001600160a01b039485166001600160a01b031991821617909155600d805493851693821684179055600f8054909116909217909155166000908152601060205260409020805460ff191660011790556200011a565b80516001600160a01b0381168114620000cc57600080fd5b919050565b600080600060608486031215620000e6578283fd5b620000f184620000b4565b92506200010160208501620000b4565b91506200011160408501620000b4565b90509250925092565b61329e806200012a6000396000f3fe608060405234801561001057600080fd5b50600436106101f05760003560e01c8063623195b01161010f578063ad5780af116100a2578063ce3decdc11610071578063ce3decdc14610505578063e59d895d14610518578063f1cb7e061461052b578063f4da66311461053e57600080fd5b8063ad5780af1461048f578063bc1c58d1146104a2578063c8690233146104b5578063c88e5029146104f257600080fd5b80639db45567116100de5780639db45567146104365780639e5a503f14610449578063a8fa56821461045c578063ac9650d81461046f57600080fd5b8063623195b0146103ea578063691f3431146103fd5780637737221314610410578063890b874b1461042357600080fd5b8063304e6ade1161018757806355c296d41161015657806355c296d41461035957806359d1d43c1461038b5780635c98042b146103ab57806361666d73146103be57600080fd5b8063304e6ade146102e057806335053e70146102f35780633b3b57de146103065780634cbf6ba41461031957600080fd5b8063124a319c116101c3578063124a319c146102585780631998cb3b146102835780632203ab56146102ac57806329cd62ea146102cd57600080fd5b80630167a2d8146101f557806301ffc9a71461020a5780630af179d71461023257806310f13a8c14610245575b600080fd5b610208610203366004612ac2565b610551565b005b61021d610218366004612e2c565b6106ee565b60405190151581526020015b60405180910390f35b610208610240366004612d1a565b6106ff565b610208610253366004612d64565b6108ea565b61026b610266366004612cbb565b610997565b6040516001600160a01b039091168152602001610229565b61029e610291366004612aaa565b6000526014602052600590565b604051908152602001610229565b6102bf6102ba366004612c31565b610beb565b604051610229929190612fd4565b6102086102db366004612c52565b610d06565b6102086102ee366004612d1a565b610d86565b6102086103013660046129c6565b610de5565b61026b610314366004612aaa565b610e3c565b61021d610327366004612c31565b600091825260076020908152604080842060058352818520548552825280842092845291905290205461ffff16151590565b61036c610367366004612aaa565b610f1f565b604080516001600160a01b039093168352602083019190915201610229565b61039e610399366004612d1a565b610f74565b6040516102299190612f3c565b61039e6103b9366004612aaa565b61103a565b61021d6103cc3660046129c6565b6001600160a01b031660009081526012602052604090205460ff1690565b6102086103f8366004612ddb565b6110dc565b61039e61040b366004612aaa565b61115f565b61020861041e366004612d1a565b61117c565b610208610431366004612af9565b6111db565b610208610444366004612af9565b611396565b610208610457366004612b35565b611692565b61039e61046a366004612c7d565b611763565b61048261047d366004612a3a565b6117a6565b6040516102299190612ec7565b61020861049d366004612aaa565b6118eb565b61039e6104b0366004612aaa565b61194c565b6104dd6104c3366004612aaa565b6000908152600a6020526040902080546001909101549091565b60408051928352602083019190915201610229565b61036c610500366004612c31565b611969565b610208610513366004612d1a565b611ab8565b610208610526366004612ce6565b611bc4565b61039e610539366004612c31565b611c51565b61020861054c3660046129fe565b611cff565b61055a83611dad565b61059a5760405162461bcd60e51b815260206004820152600c60248201526b155b985d5d1a1bdc9a5e995960a21b60448201526064015b60405180910390fd5b6001600160a01b03821660009081526012602052604090205460ff166106025760405162461bcd60e51b815260206004820152601860248201527f436f6c6c656374696f6e206e6f7420737570706f7274656400000000000000006044820152606401610591565b61060d838383611dd3565b61064b5760405162461bcd60e51b815260206004820152600f60248201526e2737ba103b30b634b21037bbb732b960891b6044820152606401610591565b604080516060810182526001600160a01b038481168083526020808401868152600185870181815260008b815260138552889020965187546001600160a01b031916961695909517865590519085015591516002909301805460ff1916931515939093179092558251918252810183905284917f0408e727308ba878dfbbdfec78f9654f622ea7fe6ebbd19d0c036f1d232007f6910160405180910390a2505050565b60006106f982611fba565b92915050565b8261070981611dad565b61071257600080fd5b60008060608060008061075f60008a8a8080601f0160208091040260200160405190810160405280939291908181526020018383808284376000920191909152509293925050611fc59050565b90505b805151602082015110156108855761ffff86166107c4578060400151955061078981612026565b93508360405160200161079c9190612eab565b6040516020818303038152906040528051906020012091506107bd81612047565b9250610877565b60006107cf82612026565b9050816040015161ffff168761ffff161415806107f357506107f18582612063565b155b156108755761084e8b86898d8d8080601f016020809104026020016040519081016040528093929190818152602001838380828437600092019190915250505060208801518c915061084690829061306e565b8a5115612081565b81604001519650816020015195508094508480519060200120925061087282612047565b93505b505b610880816122c3565b610762565b508251156108df576108df8984878b8b8080601f0160208091040260200160405190810160405280939291908181526020018383808284376000920191909152508b92506108d791508290508e61306e565b885115612081565b505050505050505050565b846108f481611dad565b6108fd57600080fd5b8282600b60008981526020019081526020016000208787604051610922929190612e9b565b90815260405190819003602001902061093c9290916127ae565b50848460405161094d929190612e9b565b6040518091039020867fd8c9334b1a9c2f9da342a0a2b32629c1a229b6445dad78947f674b44444a75508787604051610987929190612f28565b60405180910390a3505050505050565b60008281526008602090815260408083206001600160e01b0319851684529091528120546001600160a01b031680156109d15790506106f9565b60006109dc85610e3c565b90506001600160a01b0381166109f7576000925050506106f9565b6040516301ffc9a760e01b602482015260009081906001600160a01b0384169060440160408051601f198184030181529181526020820180516001600160e01b03166301ffc9a760e01b17905251610a4f9190612eab565b600060405180830381855afa9150503d8060008114610a8a576040519150601f19603f3d011682016040523d82523d6000602084013e610a8f565b606091505b5091509150811580610aa2575060208151105b80610ada575080601f81518110610ac957634e487b7160e01b600052603260045260246000fd5b01602001516001600160f81b031916155b15610aec5760009450505050506106f9565b6040516001600160e01b0319871660248201526001600160a01b0384169060440160408051601f198184030181529181526020820180516001600160e01b03166301ffc9a760e01b17905251610b429190612eab565b600060405180830381855afa9150503d8060008114610b7d576040519150601f19603f3d011682016040523d82523d6000602084013e610b82565b606091505b509092509050811580610b96575060208151105b80610bce575080601f81518110610bbd57634e487b7160e01b600052603260045260246000fd5b01602001516001600160f81b031916155b15610be05760009450505050506106f9565b509095945050505050565b600082815260016020819052604082206060915b848111610ce65780851615801590610c2f575060008181526020839052604081208054610c2b906130cf565b9050115b15610cde5780826000838152602001908152602001600020808054610c53906130cf565b80601f0160208091040260200160405190810160405280929190818152602001828054610c7f906130cf565b8015610ccc5780601f10610ca157610100808354040283529160200191610ccc565b820191906000526020600020905b815481529060010190602001808311610caf57829003601f168201915b50505050509050935093505050610cff565b60011b610bff565b5060006040518060200160405280600081525092509250505b9250929050565b82610d1081611dad565b610d1957600080fd5b60408051808201825284815260208082018581526000888152600a83528490209251835551600190920191909155815185815290810184905285917f1d6f5e03d3f63eb58751986629a5439baee5079ff04f345becb66e23eb154e4691015b60405180910390a250505050565b82610d9081611dad565b610d9957600080fd5b6000848152600360205260409020610db29084846127ae565b50837fe379c1624ed7e714cc0937528a32359d69d5281337765313dba4e081b72d75788484604051610d78929190612f28565b3360009081526010602052604090205460ff16610e305760405162461bcd60e51b81526020600482015260096024820152682737ba1030b236b4b760b91b6044820152606401610591565b610e39816123ab565b50565b600d546040516331a9108f60e11b8152600481018390526000916001600160a01b031690636352211e9060240160206040518083038186803b158015610e8157600080fd5b505afa925050508015610eb1575060408051601f3d908101601f19168201909252610eae918101906129e2565b60015b6106f957610ebd6131a0565b806308c379a01415610ee35750610ed26131b8565b80610edd5750610ee5565b50610f17565b505b3d808015610f0f576040519150601f19603f3d011682016040523d82523d6000602084013e610f14565b606091505b50505b506000919050565b6000818152601360209081526040808320815160608101835281546001600160a01b031681526001820154938101939093526002015460ff161515908201528190610f6a8482612405565b9250925050915091565b6060600b60008581526020019081526020016000208383604051610f99929190612e9b565b90815260200160405180910390208054610fb2906130cf565b80601f0160208091040260200160405190810160405280929190818152602001828054610fde906130cf565b801561102b5780601f106110005761010080835404028352916020019161102b565b820191906000526020600020905b81548152906001019060200180831161100e57829003601f168201915b505050505090505b9392505050565b6000818152600460205260409020805460609190611057906130cf565b80601f0160208091040260200160405190810160405280929190818152602001828054611083906130cf565b80156110d05780601f106110a5576101008083540402835291602001916110d0565b820191906000526020600020905b8154815290600101906020018083116110b357829003601f168201915b50505050509050919050565b836110e681611dad565b6110ef57600080fd5b836110fb60018261306e565b161561110657600080fd5b6000858152600160209081526040808320878452909152902061112a9084846127ae565b50604051849086907faa121bbeef5f32f5961a2a28966e769023910fc9479059ee3495d4c1a696efe390600090a35050505050565b6000818152600960205260409020805460609190611057906130cf565b8261118681611dad565b61118f57600080fd5b60008481526009602052604090206111a89084846127ae565b50837fb7d29e911041e8d9b843369e890bcb72c9388692ba48b65ac54e7214c4c348f78484604051610d78929190612f28565b60048111156112225760405162461bcd60e51b8152602060048201526013602482015272496e646578206f7574206f6620626f756e647360681b6044820152606401610591565b61122d848484611dd3565b61126d5760405162461bcd60e51b81526020600482015260116024820152702737ba1030903b30b634b21037bbb732b960791b6044820152606401610591565b61127684611dad565b6112b35760405162461bcd60e51b815260206004820152600e60248201526d139bdd08185d5d1a1bdc9a5e995960921b6044820152606401610591565b6000848152601460205260409020839082600581106112e257634e487b7160e01b600052603260045260246000fd5b6003020180546001600160a01b0319166001600160a01b039290921691909117905560008481526014602052604090208290826005811061133357634e487b7160e01b600052603260045260246000fd5b6003020160010181905550600160146000868152602001908152602001600020826005811061137257634e487b7160e01b600052603260045260246000fd5b6003020160020160006101000a81548160ff02191690831515021790555050505050565b60048111156113dd5760405162461bcd60e51b8152602060048201526013602482015272496e646578206f7574206f6620626f756e647360681b6044820152606401610591565b6113e8848484611dd3565b6114285760405162461bcd60e51b81526020600482015260116024820152702737ba1030903b30b634b21037bbb732b960791b6044820152606401610591565b61143184611dad565b61146e5760405162461bcd60e51b815260206004820152600e60248201526d139bdd08185d5d1a1bdc9a5e995960921b6044820152606401610591565b6000848152601460205260409020816005811061149b57634e487b7160e01b600052603260045260246000fd5b6003020160020154600160ff9091161515146114f05760405162461bcd60e51b8152602060048201526014602482015273125b99195e08191bd95cc81b9bdd08195e1a5cdd60621b6044820152606401610591565b600084905260146020526115066001600561306e565b81141561156e5760008481526014602052604090206115276001600561306e565b6005811061154557634e487b7160e01b600052603260045260246000fd5b6003020180546001600160a01b031916815560006001820155600201805460ff1916905561168c565b60008481526014602052604090206115886001600561306e565b600581106115a657634e487b7160e01b600052603260045260246000fd5b600302016014600086815260200190815260200160002082600581106115dc57634e487b7160e01b600052603260045260246000fd5b82546003919091029190910180546001600160a01b0319166001600160a01b039092169190911781556001808301548183015560029283015492909101805460ff909316151560ff199093169290921790915560008581526014602052604090209061164990600561306e565b6005811061166757634e487b7160e01b600052603260045260246000fd5b6003020180546001600160a01b031916815560006001820155600201805460ff191690555b50505050565b81518351146116a057600080fd5b80518351146116ae57600080fd5b6005835111156116bd57600080fd5b60005b835181101561175c5761174a858583815181106116ed57634e487b7160e01b600052603260045260246000fd5b602002602001015185848151811061171557634e487b7160e01b600052603260045260246000fd5b602002602001015185858151811061173d57634e487b7160e01b600052603260045260246000fd5b60200260200101516111db565b8061175481613159565b9150506116c0565b5050505050565b6000838152600660209081526040808320600583528184205484528252808320858452825280832061ffff851684529091529020805460609190610fb2906130cf565b60608167ffffffffffffffff8111156117cf57634e487b7160e01b600052604160045260246000fd5b60405190808252806020026020018201604052801561180257816020015b60608152602001906001900390816117ed5790505b50905060005b828110156118e4576000803086868581811061183457634e487b7160e01b600052603260045260246000fd5b90506020028101906118469190612fed565b604051611854929190612e9b565b600060405180830381855af49150503d806000811461188f576040519150601f19603f3d011682016040523d82523d6000602084013e611894565b606091505b5091509150816118a357600080fd5b808484815181106118c457634e487b7160e01b600052603260045260246000fd5b6020026020010181905250505080806118dc90613159565b915050611808565b5092915050565b806118f581611dad565b6118fe57600080fd5b600082815260056020526040812080549161191883613159565b909155505060405182907fb757169b8492ca2f1c6619d9d76ce22803035c3b1d5f6930dffe7b127c1a198390600090a25050565b6000818152600360205260409020805460609190611057906130cf565b60008281526014602052604081208190836005811061199857634e487b7160e01b600052603260045260246000fd5b600302016002015460ff161580611a2a57506000848152601460205260409020611a2890859085600581106119dd57634e487b7160e01b600052603260045260246000fd5b600302015460008781526014602052604090206001600160a01b03909116908660058110611a1b57634e487b7160e01b600052603260045260246000fd5b6003020160010154611dd3565b155b15611a3a57506000905080610cff565b6000848152601460205260409020611aad9085908560058110611a6d57634e487b7160e01b600052603260045260246000fd5b604080516060810182526003929092029290920180546001600160a01b03168252600181015460208301526002015460ff16151591810191909152612405565b915091509250929050565b82611ac281611dad565b611acb57600080fd5b60008481526004602052604081208054611ae4906130cf565b80601f0160208091040260200160405190810160405280929190818152602001828054611b10906130cf565b8015611b5d5780601f10611b3257610100808354040283529160200191611b5d565b820191906000526020600020905b815481529060010190602001808311611b4057829003601f168201915b5050506000888152600460205260409020929350611b80929150869050856127ae565b50847f8f15ed4b723ef428f250961da8315675b507046737e19319fc1a4d81bfe87f85828686604051611bb593929190612f4f565b60405180910390a25050505050565b82611bce81611dad565b611bd757600080fd5b60008481526008602090815260408083206001600160e01b031987168085529083529281902080546001600160a01b0319166001600160a01b038716908117909155905190815286917f7c69f06bea0bdef565b709e93a147836b0063ba2dd89f02d0b7e8d931e6a6daa910160405180910390a350505050565b60008281526002602090815260408083208484529091529020805460609190611c79906130cf565b80601f0160208091040260200160405190810160405280929190818152602001828054611ca5906130cf565b8015611cf25780601f10611cc757610100808354040283529160200191611cf2565b820191906000526020600020905b815481529060010190602001808311611cd557829003601f168201915b5050505050905092915050565b3360009081526010602052604090205460ff16611d4a5760405162461bcd60e51b81526020600482015260096024820152682737ba1030b236b4b760b91b6044820152606401610591565b6001600160a01b038216600081815260106020908152604091829020805460ff19168515159081179091558251938452908301527faaa3a79c39aa7799507595312c878f4fd2763be3ac0afd8a121a4e5519dbd5f3910160405180910390a15050565b6000611db882610e3c565b6001600160a01b0316336001600160a01b0316149050919050565b6011546000906001600160a01b0384811691161415611e9457611df584610e3c565b601154604051630b02f02d60e31b8152600481018590526001600160a01b03928316929091169063581781689060240160206040518083038186803b158015611e3d57600080fd5b505afa158015611e51573d6000803e3d6000fd5b505050506040513d601f19601f82011682018060405250810190611e7591906129e2565b6001600160a01b031614611e8a576000611e8d565b60015b9050611033565b6040516331a9108f60e11b8152600481018390526001600160a01b03841690636352211e9060240160206040518083038186803b158015611ed457600080fd5b505afa925050508015611f04575060408051601f3d908101601f19168201909252611f01918101906129e2565b60015b611f8e57611f106131a0565b806308c379a01415611f3a5750611f256131b8565b80611f305750611f54565b6000915050611033565b634e487b711415611f5457611f4d613237565b90611f3057505b3d808015611f7e576040519150601f19603f3d011682016040523d82523d6000602084013e611f83565b606091505b506000915050611033565b611f9785610e3c565b6001600160a01b0316816001600160a01b03161415611f30576001915050611033565b60006106f982612446565b6120136040518060e001604052806060815260200160008152602001600061ffff168152602001600061ffff168152602001600063ffffffff16815260200160008152602001600081525090565b82815260c081018290526106f9816122c3565b602081015181516060916106f99161203e908261246b565b845191906124d8565b60a081015160c08201516060916106f99161203e90829061306e565b6000815183511480156110335750611033836000846000875161255d565b600087815260056020908152604082205488519189019190912090916120a88787876124d8565b905083156121b15760008a81526006602090815260408083208684528252808320858452825280832061ffff8c168452909152902080546120e8906130cf565b15905061213c5760008a815260076020908152604080832086845282528083208584529091528120805461ffff1691612120836130b1565b91906101000a81548161ffff021916908361ffff160217905550505b60008a81526006602090815260408083208684528252808320858452825280832061ffff8c168452909152812061217291612832565b897f03528ed0c2a3ebc993b12ce3c16bb382f9c7d88ef7d8a1bf290eaf35955a12078a8a6040516121a4929190612f7f565b60405180910390a26122b7565b60008a81526006602090815260408083208684528252808320858452825280832061ffff8c168452909152902080546121e9906130cf565b1515905061223e5760008a815260076020908152604080832086845282528083208584529091528120805461ffff169161222283613137565b91906101000a81548161ffff021916908361ffff160217905550505b60008a81526006602090815260408083208684528252808320858452825280832061ffff8c168452825290912082516122799284019061286c565b50897f52a608b3303a48862d07a73d82fa221318c0027fbbcfb1b2329bface3f19ff2b8a8a846040516122ae93929190612fa5565b60405180910390a25b50505050505050505050565b60c081015160208201819052815151116122da5750565b60006122ee8260000151836020015161246b565b82602001516122fd9190613056565b825190915061230c9082612580565b61ffff166040830152612320600282613056565b825190915061232f9082612580565b61ffff166060830152612343600282613056565b825190915061235290826125a8565b63ffffffff166080830152612368600482613056565b825190915060009061237a9083612580565b61ffff16905061238b600283613056565b60a08401819052915061239e8183613056565b60c0909301929092525050565b6001600160a01b038116600081815260126020908152604091829020805460ff1916600117905590519182527f47b446be90ccdf90ffa6f6477c48da9d076248e8c0c8b481964b890aca03bb34910160405180910390a150565b6000808260400151801561242757506124278484600001518560200151611dd3565b1561243a57505080516020820151610cff565b50600093849350915050565b60006001600160e01b03198216631674750f60e21b14806106f957506106f9826125d2565b6000815b8351811061248d57634e487b7160e01b600052600160045260246000fd5b600061249985836125f7565b60ff1690506124a9816001613056565b6124b39083613056565b9150806124c057506124c6565b5061246f565b6124d0838261306e565b949350505050565b82516060906124e78385613056565b11156124f257600080fd5b60008267ffffffffffffffff81111561251b57634e487b7160e01b600052604160045260246000fd5b6040519080825280601f01601f191660200182016040528015612545576020820181803683370190505b50905060208082019086860101610be0828287612629565b600061256a84848461267f565b61257587878561267f565b149695505050505050565b8151600090612590836002613056565b111561259b57600080fd5b50016002015161ffff1690565b81516000906125b8836004613056565b11156125c357600080fd5b50016004015163ffffffff1690565b60006001600160e01b0319821663c869023360e01b14806106f957506106f9826126a3565b600082828151811061261957634e487b7160e01b600052603260045260246000fd5b016020015160f81c905092915050565b602081106126615781518352612640602084613056565b925061264d602083613056565b915061265a60208261306e565b9050612629565b905182516020929092036101000a6000190180199091169116179052565b825160009061268e8385613056565b111561269957600080fd5b5091016020012090565b60006001600160e01b0319821663691f343160e01b14806106f957506106f98260006001600160e01b031982166304928c6760e21b14806106f957506106f98260006001600160e01b0319821663547d2b4160e11b148061271457506001600160e01b03198216631711d8df60e21b145b806106f957506106f98260006001600160e01b0319821663bc1c58d160e01b14806106f957506106f98260006001600160e01b03198216631d9dabef60e11b148061276f57506001600160e01b031982166378e5bf0360e11b145b806106f957506106f98260006001600160e01b03198216631101d5ab60e11b14806106f957506301ffc9a760e01b6001600160e01b03198316146106f9565b8280546127ba906130cf565b90600052602060002090601f0160209004810192826127dc5760008555612822565b82601f106127f55782800160ff19823516178555612822565b82800160010185558215612822579182015b82811115612822578235825591602001919060010190612807565b5061282e9291506128e0565b5090565b50805461283e906130cf565b6000825580601f1061284e575050565b601f016020900490600052602060002090810190610e3991906128e0565b828054612878906130cf565b90600052602060002090601f01602090048101928261289a5760008555612822565b82601f106128b357805160ff1916838001178555612822565b82800160010185558215612822579182015b828111156128225782518255916020019190600101906128c5565b5b8082111561282e57600081556001016128e1565b600082601f830112612905578081fd5b8135602061291282613032565b60405161291f828261310a565b8381528281019150858301600585901b8701840188101561293e578586fd5b855b8581101561295c57813584529284019290840190600101612940565b5090979650505050505050565b80356001600160e01b03198116811461298157600080fd5b919050565b60008083601f840112612997578182fd5b50813567ffffffffffffffff8111156129ae578182fd5b602083019150836020828501011115610cff57600080fd5b6000602082840312156129d7578081fd5b813561103381613253565b6000602082840312156129f3578081fd5b815161103381613253565b60008060408385031215612a10578081fd5b8235612a1b81613253565b915060208301358015158114612a2f578182fd5b809150509250929050565b60008060208385031215612a4c578182fd5b823567ffffffffffffffff80821115612a63578384fd5b818501915085601f830112612a76578384fd5b813581811115612a84578485fd5b8660208260051b8501011115612a98578485fd5b60209290920196919550909350505050565b600060208284031215612abb578081fd5b5035919050565b600080600060608486031215612ad6578081fd5b833592506020840135612ae881613253565b929592945050506040919091013590565b60008060008060808587031215612b0e578081fd5b843593506020850135612b2081613253565b93969395505050506040820135916060013590565b60008060008060808587031215612b4a578384fd5b8435935060208086013567ffffffffffffffff80821115612b69578586fd5b818801915088601f830112612b7c578586fd5b8135612b8781613032565b604051612b94828261310a565b8281528581019150848601600584901b860187018d1015612bb357898afd5b8995505b83861015612bde578035612bca81613253565b835260019590950194918601918601612bb7565b50975050506040880135925080831115612bf6578485fd5b612c0289848a016128f5565b94506060880135925080831115612c17578384fd5b5050612c25878288016128f5565b91505092959194509250565b60008060408385031215612c43578182fd5b50508035926020909101359150565b600080600060608486031215612c66578081fd5b505081359360208301359350604090920135919050565b600080600060608486031215612c91578081fd5b8335925060208401359150604084013561ffff81168114612cb0578182fd5b809150509250925092565b60008060408385031215612ccd578182fd5b82359150612cdd60208401612969565b90509250929050565b600080600060608486031215612cfa578081fd5b83359250612d0a60208501612969565b91506040840135612cb081613253565b600080600060408486031215612d2e578081fd5b83359250602084013567ffffffffffffffff811115612d4b578182fd5b612d5786828701612986565b9497909650939450505050565b600080600080600060608688031215612d7b578283fd5b85359450602086013567ffffffffffffffff80821115612d99578485fd5b612da589838a01612986565b90965094506040880135915080821115612dbd578283fd5b50612dca88828901612986565b969995985093965092949392505050565b60008060008060608587031215612df0578182fd5b8435935060208501359250604085013567ffffffffffffffff811115612e14578283fd5b612e2087828801612986565b95989497509550505050565b600060208284031215612e3d578081fd5b61103382612969565b81835281816020850137506000828201602090810191909152601f909101601f19169091010190565b60008151808452612e87816020860160208601613085565b601f01601f19169290920160200192915050565b8183823760009101908152919050565b60008251612ebd818460208701613085565b9190910192915050565b6000602080830181845280855180835260408601915060408160051b8701019250838701855b82811015612f1b57603f19888603018452612f09858351612e6f565b94509285019290850190600101612eed565b5092979650505050505050565b6020815260006124d0602083018486612e46565b6020815260006110336020830184612e6f565b604081526000612f626040830186612e6f565b8281036020840152612f75818587612e46565b9695505050505050565b604081526000612f926040830185612e6f565b905061ffff831660208301529392505050565b606081526000612fb86060830186612e6f565b61ffff851660208401528281036040840152612f758185612e6f565b8281526040602082015260006124d06040830184612e6f565b6000808335601e19843603018112613003578283fd5b83018035915067ffffffffffffffff82111561301d578283fd5b602001915036819003821315610cff57600080fd5b600067ffffffffffffffff82111561304c5761304c61318a565b5060051b60200190565b6000821982111561306957613069613174565b500190565b60008282101561308057613080613174565b500390565b60005b838110156130a0578181015183820152602001613088565b8381111561168c5750506000910152565b600061ffff8216806130c5576130c5613174565b6000190192915050565b600181811c908216806130e357607f821691505b6020821081141561310457634e487b7160e01b600052602260045260246000fd5b50919050565b601f8201601f1916810167ffffffffffffffff811182821017156131305761313061318a565b6040525050565b600061ffff8083168181141561314f5761314f613174565b6001019392505050565b600060001982141561316d5761316d613174565b5060010190565b634e487b7160e01b600052601160045260246000fd5b634e487b7160e01b600052604160045260246000fd5b600060033d11156131b557600481823e5160e01c5b90565b600060443d10156131c65790565b6040516003193d81016004833e81513d67ffffffffffffffff81602484011181841117156131f657505050505090565b828501915081518181111561320e5750505050505090565b843d87010160208285010111156132285750505050505090565b610be06020828601018761310a565b60008060233d111561324f5760206004833e51600191505b9091565b6001600160a01b0381168114610e3957600080fdfea2646970667358221220a72b63ffaca4eb3f2da599a93d3ad2e2c1ef6d06d874b6cce5f144d069d9bbc264736f6c63430008040033",
  "immutableReferences": {},
  "source": "pragma solidity >=0.8.0;\npragma abicoder v2;\n\nimport \"@openzeppelin/contracts/utils/introspection/ERC165Storage.sol\";\nimport \"./PublicResolver.sol\";\nimport \"../PxgRegistrar.sol\";\n\ninterface NFTInterface {\n  function ownerOf(uint256 tokenId) external view returns (address);\n}\n\ninterface Punks {\n  function punkIndexToAddress(uint256 index) external view returns (address);\n}\n\ncontract PxgResolverV1 is ERC165Storage, PublicResolver {\n  PxgRegistrar registrar;\n\n  mapping(address => bool) private admin;\n\n  constructor(\n    address ens,\n    address registrarAddress,\n    address initialAdmin\n  ) PublicResolver(ens, registrarAddress) {\n    registrar = PxgRegistrar(registrarAddress);\n    admin[initialAdmin] = true;\n  }\n\n  event ModifyAdmin(address adminAddr, bool value);\n\n  modifier onlyAdmin() {\n    require(admin[msg.sender], \"Not admin\");\n    _;\n  }\n\n  function modifyAdmin(address adminAddr, bool value) public onlyAdmin {\n    admin[adminAddr] = value;\n    emit ModifyAdmin(adminAddr, value);\n  }\n\n  function addCollectionSupport(address collection) public onlyAdmin {\n    _addSupportedCollection(collection);\n  }\n\n  /**\n   * Returns the address associated with an ENS node. Will default to owner of NFT\n   * if no address has been set.\n   * @param node The ENS node to query.\n   * @return The associated address.\n   */\n  function addr(bytes32 node) public view override returns (address payable) {\n    try nameWrapper.ownerOf(uint256(node)) returns (address nameOwner) {\n      return payable(nameOwner);\n    } catch Error(string memory) {\n      // no op\n    } catch (bytes memory) {\n      // no op\n    }\n    return payable(0);\n  }\n\n  address PUNK_ADDRESS = 0xb47e3cd837dDF8e4c57F05d70Ab865de6e193BBB;\n\n  mapping(address => bool) supportedCollections;\n  struct NFT {\n    address collectionAddress;\n    uint256 tokenId;\n    bool exists;\n  }\n\n  struct Sale {\n    NFT nft;\n    uint256 price;\n  }\n\n  // node to default avatar\n  mapping(bytes32 => NFT) defaultAvatar;\n  // node to gallery\n  mapping(bytes32 => NFT[5]) gallery;\n\n  event DefaultAvatarSet(\n    bytes32 indexed node,\n    address collection,\n    uint256 tokenId\n  );\n\n  event CollectionSupportAdded(address collection);\n\n  function supportsCollection(address collection) public view returns (bool) {\n    return supportedCollections[collection];\n  }\n\n  function _addSupportedCollection(address collection) internal {\n    supportedCollections[collection] = true;\n    emit CollectionSupportAdded(collection);\n  }\n\n  /**\n    @notice Get the length of gallery array.\n    @dev Can use length to iterate gallery items on client\n    @param node The ENS node\n    @return Returns the length of gallery array\n   */\n  function getGalleryLength(bytes32 node) public view returns (uint256) {\n    return gallery[node].length;\n  }\n\n  function getGalleryItemAtIndex(bytes32 node, uint256 idx)\n    public\n    view\n    returns (address, uint256)\n  {\n    if (\n      !gallery[node][idx].exists ||\n      !_isValidOwner(\n        node,\n        gallery[node][idx].collectionAddress,\n        gallery[node][idx].tokenId\n      )\n    ) {\n      return (address(0), uint256(0));\n    }\n\n    return _validateNftData(node, gallery[node][idx]);\n  }\n\n  function setManyGalleryItems(\n    bytes32 node,\n    address[] memory collections,\n    uint256[] memory ids,\n    uint256[] memory idx\n  ) public {\n    require(collections.length == ids.length);\n    require(collections.length == idx.length);\n    require(collections.length <= 5);\n\n    for (uint256 i; i < collections.length; i++) {\n      setGalleryItem(node, collections[i], ids[i], idx[i]);\n    }\n  }\n\n  /**\n    @notice Allows a node owner to set a gallery NFT.\n    @dev Verifies that the owner of the ENS nodes owns the NFT. \n    @param node The ENS node\n    @param collectionAddress The NFT collection address\n    @param tokenId The NFT ID\n    @param idx The index at which to set the gallery item\n   */\n  function setGalleryItem(\n    bytes32 node,\n    address collectionAddress,\n    uint256 tokenId,\n    uint256 idx\n  ) public {\n    require(idx <= 4, \"Index out of bounds\");\n    require(\n      _isValidOwner(node, collectionAddress, tokenId),\n      \"Not a valid owner\"\n    );\n    require(isAuthorised(node), \"Not authorized\");\n    gallery[node][idx].collectionAddress = collectionAddress;\n    gallery[node][idx].tokenId = tokenId;\n    gallery[node][idx].exists = true;\n  }\n\n  /**\n    @notice Removes an NFT from an owners gallery.\n    @param node ENS node\n    @param collectionAddress NFT collection address\n    @param tokenId NFT ID\n    @param idx Index of gallery item to remove\n   */\n  function removeGalleryItem(\n    bytes32 node,\n    address collectionAddress,\n    uint256 tokenId,\n    uint256 idx\n  ) public {\n    require(idx <= 4, \"Index out of bounds\");\n    require(\n      _isValidOwner(node, collectionAddress, tokenId),\n      \"Not a valid owner\"\n    );\n    require(isAuthorised(node), \"Not authorized\");\n    require(gallery[node][idx].exists == true, \"Index does not exist\");\n    // remove if last index of array\n    if (idx == gallery[node].length - 1) {\n      delete gallery[node][gallery[node].length - 1];\n    } else {\n      // Swap idx item with last item and remove last item\n      gallery[node][idx] = gallery[node][gallery[node].length - 1];\n      delete gallery[node][gallery[node].length - 1];\n    }\n  }\n\n  /**\n    @notice Checks to see if node owner is the owner of the given NFT.\n    @param node The ENS node\n    @param collection The NFT collection address\n    @param tokenId The NFT ID\n   */\n  function _isValidOwner(\n    bytes32 node,\n    address collection,\n    uint256 tokenId\n  ) internal view returns (bool) {\n    if (collection == PUNK_ADDRESS) {\n      return\n        Punks(PUNK_ADDRESS).punkIndexToAddress(tokenId) == addr(node)\n          ? true\n          : false;\n    } else {\n      try NFTInterface(collection).ownerOf(tokenId) returns (\n        address ownerAddr\n      ) {\n        if (ownerAddr == addr(node)) {\n          return true;\n        } else {\n          return false;\n        }\n      } catch Error(\n        string memory /*reason*/\n      ) {\n        return false;\n      } catch Panic(\n        uint256 /*errorCode*/\n      ) {\n        return false;\n      } catch (\n        bytes memory /*lowLevelData*/\n      ) {\n        return false;\n      }\n    }\n  }\n\n  /**\n    @notice Validates that the node owner is the owner of the NFT\n    @dev May return address 0 uint 0\n    @param node ENS node\n    @param nft NFT struct\n    @return Returns the NFT address and ID \n   */\n  function _validateNftData(bytes32 node, NFT memory nft)\n    internal\n    view\n    returns (address, uint256)\n  {\n    if (nft.exists && _isValidOwner(node, nft.collectionAddress, nft.tokenId)) {\n      return (nft.collectionAddress, nft.tokenId);\n    }\n    return (address(0), uint256(0));\n  }\n\n  /**\n    @notice Get the default avatar.\n    @dev May return address 0 and uint 0 if not set, or now longer owner\n    @param node ENS node\n    @return Returns the address of the collection and NFT token ID\n   */\n  function getDefaultAvatar(bytes32 node)\n    public\n    view\n    returns (address, uint256)\n  {\n    NFT memory nft = defaultAvatar[node];\n    return _validateNftData(node, nft);\n  }\n\n  /**\n    @notice Sets the default NFT avatar for a given node. \n    @dev Emits event\n    @param node The ENS node\n    @param collection The NFT collection address\n    @param tokenId The NFT ID\n   */\n  function setDefaultAvatar(\n    bytes32 node,\n    address collection,\n    uint256 tokenId\n  ) public {\n    require(isAuthorised(node), \"Unauthorized\");\n    require(supportsCollection(collection), \"Collection not supported\");\n    require(_isValidOwner(node, collection, tokenId), \"Not valid owner\");\n    defaultAvatar[node] = NFT(collection, tokenId, true);\n    emit DefaultAvatarSet(node, collection, tokenId);\n  }\n\n  function supportsInterface(bytes4 interfaceID)\n    public\n    pure\n    virtual\n    override(ERC165Storage, PublicResolver)\n    returns (bool)\n  {\n    return super.supportsInterface(interfaceID);\n  }\n}\n",
  "sourcePath": "/Users/seanpapanikolas/Projects/pxg/contracts/resolvers/PxgResolverV1.sol",
  "compiler": {
    "name": "solc",
    "version": "0.8.4+commit.c7e474f2.Emscripten.clang"
  },
  "schemaVersion": "3.4.2",
  "updatedAt": "2021-08-09T21:40:43.559Z",
  "networkType": "ethereum",
  "devdoc": {
    "kind": "dev",
    "methods": {
      "ABI(bytes32,uint256)": {
        "params": {
          "contentTypes": "A bitwise OR of the ABI formats accepted by the caller.",
          "node": "The ENS node to query"
        },
        "returns": {
          "_0": "contentType The content type of the return value",
          "_1": "data The ABI data"
        }
      },
      "addr(bytes32)": {
        "params": {
          "node": "The ENS node to query."
        },
        "returns": {
          "_0": "The associated address."
        }
      },
      "clearDNSZone(bytes32)": {
        "params": {
          "node": "the namehash of the node for which to clear the zone"
        }
      },
      "contenthash(bytes32)": {
        "params": {
          "node": "The ENS node to query."
        },
        "returns": {
          "_0": "The associated contenthash."
        }
      },
      "dnsRecord(bytes32,bytes32,uint16)": {
        "params": {
          "name": "the keccak-256 hash of the fully-qualified name for which to fetch the record",
          "node": "the namehash of the node for which to fetch the record",
          "resource": "the ID of the resource as per https://en.wikipedia.org/wiki/List_of_DNS_record_types"
        },
        "returns": {
          "_0": "the DNS record in wire format if present, otherwise empty"
        }
      },
      "getDefaultAvatar(bytes32)": {
        "details": "May return address 0 and uint 0 if not set, or now longer owner",
        "params": {
          "node": "ENS node"
        },
        "returns": {
          "_0": "Returns the address of the collection and NFT token ID"
        }
      },
      "getGalleryLength(bytes32)": {
        "details": "Can use length to iterate gallery items on client",
        "params": {
          "node": "The ENS node"
        },
        "returns": {
          "_0": "Returns the length of gallery array"
        }
      },
      "hasDNSRecords(bytes32,bytes32)": {
        "params": {
          "name": "the namehash of the node for which to check the records",
          "node": "the namehash of the node for which to check the records"
        }
      },
      "interfaceImplementer(bytes32,bytes4)": {
        "params": {
          "interfaceID": "The EIP 165 interface ID to check for.",
          "node": "The ENS node to query."
        },
        "returns": {
          "_0": "The address that implements this interface, or 0 if the interface is unsupported."
        }
      },
      "name(bytes32)": {
        "params": {
          "node": "The ENS node to query."
        },
        "returns": {
          "_0": "The associated name."
        }
      },
      "pubkey(bytes32)": {
        "params": {
          "node": "The ENS node to query"
        },
        "returns": {
          "x": "The X coordinate of the curve point for the public key.",
          "y": "The Y coordinate of the curve point for the public key."
        }
      },
      "removeGalleryItem(bytes32,address,uint256,uint256)": {
        "params": {
          "collectionAddress": "NFT collection address",
          "idx": "Index of gallery item to remove",
          "node": "ENS node",
          "tokenId": "NFT ID"
        }
      },
      "setABI(bytes32,uint256,bytes)": {
        "params": {
          "contentType": "The content type of the ABI",
          "data": "The ABI data.",
          "node": "The node to update."
        }
      },
      "setContenthash(bytes32,bytes)": {
        "params": {
          "hash": "The contenthash to set",
          "node": "The node to update."
        }
      },
      "setDNSRecords(bytes32,bytes)": {
        "params": {
          "data": "the DNS wire format records to set",
          "node": "the namehash of the node for which to set the records"
        }
      },
      "setDefaultAvatar(bytes32,address,uint256)": {
        "details": "Emits event",
        "params": {
          "collection": "The NFT collection address",
          "node": "The ENS node",
          "tokenId": "The NFT ID"
        }
      },
      "setGalleryItem(bytes32,address,uint256,uint256)": {
        "details": "Verifies that the owner of the ENS nodes owns the NFT. ",
        "params": {
          "collectionAddress": "The NFT collection address",
          "idx": "The index at which to set the gallery item",
          "node": "The ENS node",
          "tokenId": "The NFT ID"
        }
      },
      "setInterface(bytes32,bytes4,address)": {
        "params": {
          "implementer": "The address of a contract that implements this interface for this node.",
          "interfaceID": "The EIP 165 interface ID.",
          "node": "The node to update."
        }
      },
      "setName(bytes32,string)": {
        "params": {
          "name": "The name to set.",
          "node": "The node to update."
        }
      },
      "setPubkey(bytes32,bytes32,bytes32)": {
        "params": {
          "node": "The ENS node to query",
          "x": "the X coordinate of the curve point for the public key.",
          "y": "the Y coordinate of the curve point for the public key."
        }
      },
      "setText(bytes32,string,string)": {
        "params": {
          "key": "The key to set.",
          "node": "The node to update.",
          "value": "The text data value to set."
        }
      },
      "setZonehash(bytes32,bytes)": {
        "params": {
          "hash": "The zonehash to set",
          "node": "The node to update."
        }
      },
      "text(bytes32,string)": {
        "params": {
          "key": "The text data key to query.",
          "node": "The ENS node to query."
        },
        "returns": {
          "_0": "The associated text data."
        }
      },
      "zonehash(bytes32)": {
        "params": {
          "node": "The ENS node to query."
        },
        "returns": {
          "_0": "The associated contenthash."
        }
      }
    },
    "version": 1
  },
  "userdoc": {
    "kind": "user",
    "methods": {
      "ABI(bytes32,uint256)": {
        "notice": "Returns the ABI associated with an ENS node. Defined in EIP205."
      },
      "addr(bytes32)": {
        "notice": "Returns the address associated with an ENS node. Will default to owner of NFT if no address has been set."
      },
      "clearDNSZone(bytes32)": {
        "notice": "Clear all information for a DNS zone."
      },
      "contenthash(bytes32)": {
        "notice": "Returns the contenthash associated with an ENS node."
      },
      "dnsRecord(bytes32,bytes32,uint16)": {
        "notice": "Obtain a DNS record."
      },
      "getDefaultAvatar(bytes32)": {
        "notice": "Get the default avatar."
      },
      "getGalleryLength(bytes32)": {
        "notice": "Get the length of gallery array."
      },
      "hasDNSRecords(bytes32,bytes32)": {
        "notice": "Check if a given node has records."
      },
      "interfaceImplementer(bytes32,bytes4)": {
        "notice": "Returns the address of a contract that implements the specified interface for this name. If an implementer has not been set for this interfaceID and name, the resolver will query the contract at `addr()`. If `addr()` is set, a contract exists at that address, and that contract implements EIP165 and returns `true` for the specified interfaceID, its address will be returned."
      },
      "name(bytes32)": {
        "notice": "Returns the name associated with an ENS node, for reverse records. Defined in EIP181."
      },
      "pubkey(bytes32)": {
        "notice": "Returns the SECP256k1 public key associated with an ENS node. Defined in EIP 619."
      },
      "removeGalleryItem(bytes32,address,uint256,uint256)": {
        "notice": "Removes an NFT from an owners gallery."
      },
      "setABI(bytes32,uint256,bytes)": {
        "notice": "Sets the ABI associated with an ENS node. Nodes may have one ABI of each content type. To remove an ABI, set it to the empty string."
      },
      "setContenthash(bytes32,bytes)": {
        "notice": "Sets the contenthash associated with an ENS node. May only be called by the owner of that node in the ENS registry."
      },
      "setDNSRecords(bytes32,bytes)": {
        "notice": "Set one or more DNS records.  Records are supplied in wire-format. Records with the same node/name/resource must be supplied one after the other to ensure the data is updated correctly. For example, if the data was supplied:     a.example.com IN A 1.2.3.4     a.example.com IN A 5.6.7.8     www.example.com IN CNAME a.example.com. then this would store the two A records for a.example.com correctly as a single RRSET, however if the data was supplied:     a.example.com IN A 1.2.3.4     www.example.com IN CNAME a.example.com.     a.example.com IN A 5.6.7.8 then this would store the first A record, the CNAME, then the second A record which would overwrite the first."
      },
      "setDefaultAvatar(bytes32,address,uint256)": {
        "notice": "Sets the default NFT avatar for a given node. "
      },
      "setGalleryItem(bytes32,address,uint256,uint256)": {
        "notice": "Allows a node owner to set a gallery NFT."
      },
      "setInterface(bytes32,bytes4,address)": {
        "notice": "Sets an interface associated with a name. Setting the address to 0 restores the default behaviour of querying the contract at `addr()` for interface support."
      },
      "setName(bytes32,string)": {
        "notice": "Sets the name associated with an ENS node, for reverse records. May only be called by the owner of that node in the ENS registry."
      },
      "setPubkey(bytes32,bytes32,bytes32)": {
        "notice": "Sets the SECP256k1 public key associated with an ENS node."
      },
      "setText(bytes32,string,string)": {
        "notice": "Sets the text data associated with an ENS node and key. May only be called by the owner of that node in the ENS registry."
      },
      "setZonehash(bytes32,bytes)": {
        "notice": "setZonehash sets the hash for the zone. May only be called by the owner of that node in the ENS registry."
      },
      "text(bytes32,string)": {
        "notice": "Returns the text data associated with an ENS node and key."
      },
      "zonehash(bytes32)": {
        "notice": "zonehash obtains the hash for the zone."
      }
    },
    "version": 1
  }
}