{
  "contractName": "PxgResolverV1",
  "abi": [
    {
      "inputs": [
        {
          "internalType": "address",
          "name": "ens",
          "type": "address"
        },
        {
          "internalType": "address",
          "name": "registrarAddress",
          "type": "address"
        },
        {
          "internalType": "address",
          "name": "initialAdmin",
          "type": "address"
        }
      ],
      "stateMutability": "nonpayable",
      "type": "constructor"
    },
    {
      "anonymous": false,
      "inputs": [
        {
          "indexed": true,
          "internalType": "bytes32",
          "name": "node",
          "type": "bytes32"
        },
        {
          "indexed": true,
          "internalType": "uint256",
          "name": "contentType",
          "type": "uint256"
        }
      ],
      "name": "ABIChanged",
      "type": "event"
    },
    {
      "anonymous": false,
      "inputs": [
        {
          "indexed": true,
          "internalType": "bytes32",
          "name": "node",
          "type": "bytes32"
        },
        {
          "indexed": false,
          "internalType": "address",
          "name": "a",
          "type": "address"
        }
      ],
      "name": "AddrChanged",
      "type": "event"
    },
    {
      "anonymous": false,
      "inputs": [
        {
          "indexed": true,
          "internalType": "bytes32",
          "name": "node",
          "type": "bytes32"
        },
        {
          "indexed": false,
          "internalType": "uint256",
          "name": "coinType",
          "type": "uint256"
        },
        {
          "indexed": false,
          "internalType": "bytes",
          "name": "newAddress",
          "type": "bytes"
        }
      ],
      "name": "AddressChanged",
      "type": "event"
    },
    {
      "anonymous": false,
      "inputs": [
        {
          "indexed": true,
          "internalType": "address",
          "name": "owner",
          "type": "address"
        },
        {
          "indexed": true,
          "internalType": "address",
          "name": "operator",
          "type": "address"
        },
        {
          "indexed": false,
          "internalType": "bool",
          "name": "approved",
          "type": "bool"
        }
      ],
      "name": "ApprovalForAll",
      "type": "event"
    },
    {
      "anonymous": false,
      "inputs": [
        {
          "indexed": true,
          "internalType": "bytes32",
          "name": "node",
          "type": "bytes32"
        },
        {
          "indexed": false,
          "internalType": "bytes",
          "name": "hash",
          "type": "bytes"
        }
      ],
      "name": "ContenthashChanged",
      "type": "event"
    },
    {
      "anonymous": false,
      "inputs": [
        {
          "indexed": true,
          "internalType": "bytes32",
          "name": "node",
          "type": "bytes32"
        },
        {
          "indexed": false,
          "internalType": "bytes",
          "name": "name",
          "type": "bytes"
        },
        {
          "indexed": false,
          "internalType": "uint16",
          "name": "resource",
          "type": "uint16"
        },
        {
          "indexed": false,
          "internalType": "bytes",
          "name": "record",
          "type": "bytes"
        }
      ],
      "name": "DNSRecordChanged",
      "type": "event"
    },
    {
      "anonymous": false,
      "inputs": [
        {
          "indexed": true,
          "internalType": "bytes32",
          "name": "node",
          "type": "bytes32"
        },
        {
          "indexed": false,
          "internalType": "bytes",
          "name": "name",
          "type": "bytes"
        },
        {
          "indexed": false,
          "internalType": "uint16",
          "name": "resource",
          "type": "uint16"
        }
      ],
      "name": "DNSRecordDeleted",
      "type": "event"
    },
    {
      "anonymous": false,
      "inputs": [
        {
          "indexed": true,
          "internalType": "bytes32",
          "name": "node",
          "type": "bytes32"
        }
      ],
      "name": "DNSZoneCleared",
      "type": "event"
    },
    {
      "anonymous": false,
      "inputs": [
        {
          "indexed": true,
          "internalType": "bytes32",
          "name": "node",
          "type": "bytes32"
        },
        {
          "indexed": false,
          "internalType": "bytes",
          "name": "lastzonehash",
          "type": "bytes"
        },
        {
          "indexed": false,
          "internalType": "bytes",
          "name": "zonehash",
          "type": "bytes"
        }
      ],
      "name": "DNSZonehashChanged",
      "type": "event"
    },
    {
      "anonymous": false,
      "inputs": [
        {
          "indexed": true,
          "internalType": "bytes32",
          "name": "node",
          "type": "bytes32"
        },
        {
          "indexed": false,
          "internalType": "address",
          "name": "collection",
          "type": "address"
        },
        {
          "indexed": false,
          "internalType": "uint256",
          "name": "tokenId",
          "type": "uint256"
        }
      ],
      "name": "DefaultAvatarSet",
      "type": "event"
    },
    {
      "anonymous": false,
      "inputs": [
        {
          "indexed": true,
          "internalType": "bytes32",
          "name": "node",
          "type": "bytes32"
        },
        {
          "indexed": true,
          "internalType": "bytes4",
          "name": "interfaceID",
          "type": "bytes4"
        },
        {
          "indexed": false,
          "internalType": "address",
          "name": "implementer",
          "type": "address"
        }
      ],
      "name": "InterfaceChanged",
      "type": "event"
    },
    {
      "anonymous": false,
      "inputs": [
        {
          "indexed": false,
          "internalType": "address",
          "name": "adminAddr",
          "type": "address"
        },
        {
          "indexed": false,
          "internalType": "bool",
          "name": "value",
          "type": "bool"
        }
      ],
      "name": "ModifyAdmin",
      "type": "event"
    },
    {
      "anonymous": false,
      "inputs": [
        {
          "indexed": true,
          "internalType": "bytes32",
          "name": "node",
          "type": "bytes32"
        },
        {
          "indexed": false,
          "internalType": "string",
          "name": "name",
          "type": "string"
        }
      ],
      "name": "NameChanged",
      "type": "event"
    },
    {
      "anonymous": false,
      "inputs": [
        {
          "indexed": true,
          "internalType": "bytes32",
          "name": "node",
          "type": "bytes32"
        },
        {
          "indexed": false,
          "internalType": "bytes32",
          "name": "x",
          "type": "bytes32"
        },
        {
          "indexed": false,
          "internalType": "bytes32",
          "name": "y",
          "type": "bytes32"
        }
      ],
      "name": "PubkeyChanged",
      "type": "event"
    },
    {
      "anonymous": false,
      "inputs": [
        {
          "indexed": true,
          "internalType": "bytes32",
          "name": "node",
          "type": "bytes32"
        },
        {
          "indexed": true,
          "internalType": "string",
          "name": "indexedKey",
          "type": "string"
        },
        {
          "indexed": false,
          "internalType": "string",
          "name": "key",
          "type": "string"
        }
      ],
      "name": "TextChanged",
      "type": "event"
    },
    {
      "inputs": [
        {
          "internalType": "bytes32",
          "name": "node",
          "type": "bytes32"
        },
        {
          "internalType": "uint256",
          "name": "contentTypes",
          "type": "uint256"
        }
      ],
      "name": "ABI",
      "outputs": [
        {
          "internalType": "uint256",
          "name": "",
          "type": "uint256"
        },
        {
          "internalType": "bytes",
          "name": "",
          "type": "bytes"
        }
      ],
      "stateMutability": "view",
      "type": "function",
      "constant": true
    },
    {
      "inputs": [
        {
          "internalType": "bytes32",
          "name": "node",
          "type": "bytes32"
        }
      ],
      "name": "clearDNSZone",
      "outputs": [],
      "stateMutability": "nonpayable",
      "type": "function"
    },
    {
      "inputs": [
        {
          "internalType": "bytes32",
          "name": "node",
          "type": "bytes32"
        }
      ],
      "name": "contenthash",
      "outputs": [
        {
          "internalType": "bytes",
          "name": "",
          "type": "bytes"
        }
      ],
      "stateMutability": "view",
      "type": "function",
      "constant": true
    },
    {
      "inputs": [
        {
          "internalType": "bytes32",
          "name": "node",
          "type": "bytes32"
        },
        {
          "internalType": "bytes32",
          "name": "name",
          "type": "bytes32"
        },
        {
          "internalType": "uint16",
          "name": "resource",
          "type": "uint16"
        }
      ],
      "name": "dnsRecord",
      "outputs": [
        {
          "internalType": "bytes",
          "name": "",
          "type": "bytes"
        }
      ],
      "stateMutability": "view",
      "type": "function",
      "constant": true
    },
    {
      "inputs": [
        {
          "internalType": "bytes32",
          "name": "node",
          "type": "bytes32"
        },
        {
          "internalType": "bytes32",
          "name": "name",
          "type": "bytes32"
        }
      ],
      "name": "hasDNSRecords",
      "outputs": [
        {
          "internalType": "bool",
          "name": "",
          "type": "bool"
        }
      ],
      "stateMutability": "view",
      "type": "function",
      "constant": true
    },
    {
      "inputs": [
        {
          "internalType": "bytes32",
          "name": "node",
          "type": "bytes32"
        },
        {
          "internalType": "bytes4",
          "name": "interfaceID",
          "type": "bytes4"
        }
      ],
      "name": "interfaceImplementer",
      "outputs": [
        {
          "internalType": "address",
          "name": "",
          "type": "address"
        }
      ],
      "stateMutability": "view",
      "type": "function",
      "constant": true
    },
    {
      "inputs": [
        {
          "internalType": "bytes[]",
          "name": "data",
          "type": "bytes[]"
        }
      ],
      "name": "multicall",
      "outputs": [
        {
          "internalType": "bytes[]",
          "name": "results",
          "type": "bytes[]"
        }
      ],
      "stateMutability": "nonpayable",
      "type": "function"
    },
    {
      "inputs": [
        {
          "internalType": "bytes32",
          "name": "node",
          "type": "bytes32"
        }
      ],
      "name": "name",
      "outputs": [
        {
          "internalType": "string",
          "name": "",
          "type": "string"
        }
      ],
      "stateMutability": "view",
      "type": "function",
      "constant": true
    },
    {
      "inputs": [
        {
          "internalType": "bytes32",
          "name": "node",
          "type": "bytes32"
        }
      ],
      "name": "pubkey",
      "outputs": [
        {
          "internalType": "bytes32",
          "name": "x",
          "type": "bytes32"
        },
        {
          "internalType": "bytes32",
          "name": "y",
          "type": "bytes32"
        }
      ],
      "stateMutability": "view",
      "type": "function",
      "constant": true
    },
    {
      "inputs": [
        {
          "internalType": "bytes32",
          "name": "node",
          "type": "bytes32"
        },
        {
          "internalType": "uint256",
          "name": "contentType",
          "type": "uint256"
        },
        {
          "internalType": "bytes",
          "name": "data",
          "type": "bytes"
        }
      ],
      "name": "setABI",
      "outputs": [],
      "stateMutability": "nonpayable",
      "type": "function"
    },
    {
      "inputs": [
        {
          "internalType": "bytes32",
          "name": "node",
          "type": "bytes32"
        },
        {
          "internalType": "bytes",
          "name": "hash",
          "type": "bytes"
        }
      ],
      "name": "setContenthash",
      "outputs": [],
      "stateMutability": "nonpayable",
      "type": "function"
    },
    {
      "inputs": [
        {
          "internalType": "bytes32",
          "name": "node",
          "type": "bytes32"
        },
        {
          "internalType": "bytes",
          "name": "data",
          "type": "bytes"
        }
      ],
      "name": "setDNSRecords",
      "outputs": [],
      "stateMutability": "nonpayable",
      "type": "function"
    },
    {
      "inputs": [
        {
          "internalType": "bytes32",
          "name": "node",
          "type": "bytes32"
        },
        {
          "internalType": "bytes4",
          "name": "interfaceID",
          "type": "bytes4"
        },
        {
          "internalType": "address",
          "name": "implementer",
          "type": "address"
        }
      ],
      "name": "setInterface",
      "outputs": [],
      "stateMutability": "nonpayable",
      "type": "function"
    },
    {
      "inputs": [
        {
          "internalType": "bytes32",
          "name": "node",
          "type": "bytes32"
        },
        {
          "internalType": "string",
          "name": "name",
          "type": "string"
        }
      ],
      "name": "setName",
      "outputs": [],
      "stateMutability": "nonpayable",
      "type": "function"
    },
    {
      "inputs": [
        {
          "internalType": "bytes32",
          "name": "node",
          "type": "bytes32"
        },
        {
          "internalType": "bytes32",
          "name": "x",
          "type": "bytes32"
        },
        {
          "internalType": "bytes32",
          "name": "y",
          "type": "bytes32"
        }
      ],
      "name": "setPubkey",
      "outputs": [],
      "stateMutability": "nonpayable",
      "type": "function"
    },
    {
      "inputs": [
        {
          "internalType": "bytes32",
          "name": "node",
          "type": "bytes32"
        },
        {
          "internalType": "string",
          "name": "key",
          "type": "string"
        },
        {
          "internalType": "string",
          "name": "value",
          "type": "string"
        }
      ],
      "name": "setText",
      "outputs": [],
      "stateMutability": "nonpayable",
      "type": "function"
    },
    {
      "inputs": [
        {
          "internalType": "bytes32",
          "name": "node",
          "type": "bytes32"
        },
        {
          "internalType": "bytes",
          "name": "hash",
          "type": "bytes"
        }
      ],
      "name": "setZonehash",
      "outputs": [],
      "stateMutability": "nonpayable",
      "type": "function"
    },
    {
      "inputs": [
        {
          "internalType": "bytes32",
          "name": "node",
          "type": "bytes32"
        },
        {
          "internalType": "string",
          "name": "key",
          "type": "string"
        }
      ],
      "name": "text",
      "outputs": [
        {
          "internalType": "string",
          "name": "",
          "type": "string"
        }
      ],
      "stateMutability": "view",
      "type": "function",
      "constant": true
    },
    {
      "inputs": [
        {
          "internalType": "bytes32",
          "name": "node",
          "type": "bytes32"
        }
      ],
      "name": "zonehash",
      "outputs": [
        {
          "internalType": "bytes",
          "name": "",
          "type": "bytes"
        }
      ],
      "stateMutability": "view",
      "type": "function",
      "constant": true
    },
    {
      "inputs": [
        {
          "internalType": "address",
          "name": "adminAddr",
          "type": "address"
        },
        {
          "internalType": "bool",
          "name": "value",
          "type": "bool"
        }
      ],
      "name": "modifyAdmin",
      "outputs": [],
      "stateMutability": "nonpayable",
      "type": "function"
    },
    {
      "inputs": [
        {
          "internalType": "bytes32",
          "name": "node",
          "type": "bytes32"
        }
      ],
      "name": "addr",
      "outputs": [
        {
          "internalType": "address payable",
          "name": "",
          "type": "address"
        }
      ],
      "stateMutability": "view",
      "type": "function",
      "constant": true
    },
    {
      "inputs": [
        {
          "internalType": "bytes32",
          "name": "node",
          "type": "bytes32"
        },
        {
          "internalType": "uint256",
          "name": "coinType",
          "type": "uint256"
        }
      ],
      "name": "addr",
      "outputs": [
        {
          "internalType": "bytes",
          "name": "",
          "type": "bytes"
        }
      ],
      "stateMutability": "view",
      "type": "function",
      "constant": true
    },
    {
      "inputs": [
        {
          "internalType": "bytes32",
          "name": "node",
          "type": "bytes32"
        }
      ],
      "name": "getGalleryLength",
      "outputs": [
        {
          "internalType": "uint256",
          "name": "",
          "type": "uint256"
        }
      ],
      "stateMutability": "view",
      "type": "function",
      "constant": true
    },
    {
      "inputs": [
        {
          "internalType": "bytes32",
          "name": "node",
          "type": "bytes32"
        },
        {
          "internalType": "uint256",
          "name": "idx",
          "type": "uint256"
        }
      ],
      "name": "getGalleryItemAtIndex",
      "outputs": [
        {
          "internalType": "address",
          "name": "",
          "type": "address"
        },
        {
          "internalType": "uint256",
          "name": "",
          "type": "uint256"
        }
      ],
      "stateMutability": "view",
      "type": "function",
      "constant": true
    },
    {
      "inputs": [
        {
          "internalType": "bytes32",
          "name": "node",
          "type": "bytes32"
        },
        {
          "internalType": "address[]",
          "name": "collections",
          "type": "address[]"
        },
        {
          "internalType": "uint256[]",
          "name": "ids",
          "type": "uint256[]"
        },
        {
          "internalType": "uint256[]",
          "name": "idx",
          "type": "uint256[]"
        }
      ],
      "name": "setManyGalleryItems",
      "outputs": [],
      "stateMutability": "nonpayable",
      "type": "function"
    },
    {
      "inputs": [
        {
          "internalType": "bytes32",
          "name": "node",
          "type": "bytes32"
        },
        {
          "internalType": "address",
          "name": "collectionAddress",
          "type": "address"
        },
        {
          "internalType": "uint256",
          "name": "tokenId",
          "type": "uint256"
        },
        {
          "internalType": "uint256",
          "name": "idx",
          "type": "uint256"
        }
      ],
      "name": "setGalleryItem",
      "outputs": [],
      "stateMutability": "nonpayable",
      "type": "function"
    },
    {
      "inputs": [
        {
          "internalType": "bytes32",
          "name": "node",
          "type": "bytes32"
        },
        {
          "internalType": "address",
          "name": "collectionAddress",
          "type": "address"
        },
        {
          "internalType": "uint256",
          "name": "tokenId",
          "type": "uint256"
        },
        {
          "internalType": "uint256",
          "name": "idx",
          "type": "uint256"
        }
      ],
      "name": "removeGalleryItem",
      "outputs": [],
      "stateMutability": "nonpayable",
      "type": "function"
    },
    {
      "inputs": [
        {
          "internalType": "bytes32",
          "name": "node",
          "type": "bytes32"
        }
      ],
      "name": "getDefaultAvatar",
      "outputs": [
        {
          "internalType": "address",
          "name": "",
          "type": "address"
        },
        {
          "internalType": "uint256",
          "name": "",
          "type": "uint256"
        }
      ],
      "stateMutability": "view",
      "type": "function",
      "constant": true
    },
    {
      "inputs": [
        {
          "internalType": "bytes32",
          "name": "node",
          "type": "bytes32"
        },
        {
          "internalType": "address",
          "name": "collection",
          "type": "address"
        },
        {
          "internalType": "uint256",
          "name": "tokenId",
          "type": "uint256"
        }
      ],
      "name": "setDefaultAvatar",
      "outputs": [],
      "stateMutability": "nonpayable",
      "type": "function"
    },
    {
      "inputs": [
        {
          "internalType": "bytes4",
          "name": "interfaceID",
          "type": "bytes4"
        }
      ],
      "name": "supportsInterface",
      "outputs": [
        {
          "internalType": "bool",
          "name": "",
          "type": "bool"
        }
      ],
      "stateMutability": "pure",
      "type": "function",
      "constant": true
    }
  ],
  "bytecode": "0x6080604052601180546001600160a01b03191673b47e3cd837ddf8e4c57f05d70ab865de6e193bbb1790553480156200003757600080fd5b506040516200331b3803806200331b8339810160408190526200005a91620000d1565b600c80546001600160a01b039485166001600160a01b031991821617909155600d805493851693821684179055600f8054909116909217909155166000908152601060205260409020805460ff191660011790556200011a565b80516001600160a01b0381168114620000cc57600080fd5b919050565b600080600060608486031215620000e6578283fd5b620000f184620000b4565b92506200010160208501620000b4565b91506200011160408501620000b4565b90509250925092565b6131f1806200012a6000396000f3fe608060405234801561001057600080fd5b50600436106101da5760003560e01c8063691f343111610104578063ad5780af116100a2578063ce3decdc11610071578063ce3decdc146104b0578063e59d895d146104c3578063f1cb7e06146104d6578063f4da6631146104e957600080fd5b8063ad5780af1461043a578063bc1c58d11461044d578063c869023314610460578063c88e50291461049d57600080fd5b80639db45567116100de5780639db45567146103e15780639e5a503f146103f4578063a8fa568214610407578063ac9650d81461041a57600080fd5b8063691f3431146103a857806377372213146103bb578063890b874b146103ce57600080fd5b806329cd62ea1161017c57806355c296d41161014b57806355c296d41461033057806359d1d43c146103625780635c98042b14610382578063623195b01461039557600080fd5b806329cd62ea146102b7578063304e6ade146102ca5780633b3b57de146102dd5780634cbf6ba4146102f057600080fd5b806310f13a8c116101b857806310f13a8c1461022f578063124a319c146102425780631998cb3b1461026d5780632203ab561461029657600080fd5b80630167a2d8146101df57806301ffc9a7146101f45780630af179d71461021c575b600080fd5b6101f26101ed366004612a07565b6104fc565b005b610207610202366004612d71565b6106fa565b60405190151581526020015b60405180910390f35b6101f261022a366004612c5f565b61070b565b6101f261023d366004612ca9565b6108f6565b610255610250366004612c00565b6109a3565b6040516001600160a01b039091168152602001610213565b61028861027b3660046129ef565b6000526013602052600590565b604051908152602001610213565b6102a96102a4366004612b76565b610bf7565b604051610213929190612f19565b6101f26102c5366004612b97565b610d12565b6101f26102d8366004612c5f565b610d92565b6102556102eb3660046129ef565b610df1565b6102076102fe366004612b76565b600091825260076020908152604080842060058352818520548552825280842092845291905290205461ffff16151590565b61034361033e3660046129ef565b610ed4565b604080516001600160a01b039093168352602083019190915201610213565b610375610370366004612c5f565b610f29565b6040516102139190612e81565b6103756103903660046129ef565b610fef565b6101f26103a3366004612d20565b611091565b6103756103b63660046129ef565b611114565b6101f26103c9366004612c5f565b611131565b6101f26103dc366004612a3e565b611190565b6101f26103ef366004612a3e565b61134b565b6101f2610402366004612a7a565b611647565b610375610415366004612bc2565b611718565b61042d610428366004612963565b61175b565b6040516102139190612e0c565b6101f26104483660046129ef565b6118a0565b61037561045b3660046129ef565b611901565b61048861046e3660046129ef565b6000908152600a6020526040902080546001909101549091565b60408051928352602083019190915201610213565b6103436104ab366004612b76565b61191e565b6101f26104be366004612c5f565b611a6d565b6101f26104d1366004612c2b565b611b79565b6103756104e4366004612b76565b611c06565b6101f26104f736600461292b565b611cb4565b61050583611d62565b6105455760405162461bcd60e51b815260206004820152600c60248201526b155b985d5d1a1bdc9a5e995960a21b60448201526064015b60405180910390fd5b600f546040516361666d7360e01b81526001600160a01b038481166004830152909116906361666d739060240160206040518083038186803b15801561058a57600080fd5b505afa15801561059e573d6000803e3d6000fd5b505050506040513d601f19601f820116820180604052508101906105c291906129d3565b61060e5760405162461bcd60e51b815260206004820152601860248201527f436f6c6c656374696f6e206e6f7420737570706f727465640000000000000000604482015260640161053c565b610619838383611d88565b6106575760405162461bcd60e51b815260206004820152600f60248201526e2737ba103b30b634b21037bbb732b960891b604482015260640161053c565b604080516060810182526001600160a01b038481168083526020808401868152600185870181815260008b815260128552889020965187546001600160a01b031916961695909517865590519085015591516002909301805460ff1916931515939093179092558251918252810183905284917f0408e727308ba878dfbbdfec78f9654f622ea7fe6ebbd19d0c036f1d232007f6910160405180910390a2505050565b600061070582611f5a565b92915050565b8261071581611d62565b61071e57600080fd5b60008060608060008061076b60008a8a8080601f0160208091040260200160405190810160405280939291908181526020018383808284376000920191909152509293925050611f659050565b90505b805151602082015110156108915761ffff86166107d0578060400151955061079581611fc6565b9350836040516020016107a89190612df0565b6040516020818303038152906040528051906020012091506107c981611fe7565b9250610883565b60006107db82611fc6565b9050816040015161ffff168761ffff161415806107ff57506107fd8582612003565b155b156108815761085a8b86898d8d8080601f016020809104026020016040519081016040528093929190818152602001838380828437600092019190915250505060208801518c9150610852908290612fb3565b8a5115612021565b81604001519650816020015195508094508480519060200120925061087e82611fe7565b93505b505b61088c81612263565b61076e565b508251156108eb576108eb8984878b8b8080601f0160208091040260200160405190810160405280939291908181526020018383808284376000920191909152508b92506108e391508290508e612fb3565b885115612021565b505050505050505050565b8461090081611d62565b61090957600080fd5b8282600b6000898152602001908152602001600020878760405161092e929190612de0565b9081526040519081900360200190206109489290916126f4565b508484604051610959929190612de0565b6040518091039020867fd8c9334b1a9c2f9da342a0a2b32629c1a229b6445dad78947f674b44444a75508787604051610993929190612e6d565b60405180910390a3505050505050565b60008281526008602090815260408083206001600160e01b0319851684529091528120546001600160a01b031680156109dd579050610705565b60006109e885610df1565b90506001600160a01b038116610a0357600092505050610705565b6040516301ffc9a760e01b602482015260009081906001600160a01b0384169060440160408051601f198184030181529181526020820180516001600160e01b03166301ffc9a760e01b17905251610a5b9190612df0565b600060405180830381855afa9150503d8060008114610a96576040519150601f19603f3d011682016040523d82523d6000602084013e610a9b565b606091505b5091509150811580610aae575060208151105b80610ae6575080601f81518110610ad557634e487b7160e01b600052603260045260246000fd5b01602001516001600160f81b031916155b15610af8576000945050505050610705565b6040516001600160e01b0319871660248201526001600160a01b0384169060440160408051601f198184030181529181526020820180516001600160e01b03166301ffc9a760e01b17905251610b4e9190612df0565b600060405180830381855afa9150503d8060008114610b89576040519150601f19603f3d011682016040523d82523d6000602084013e610b8e565b606091505b509092509050811580610ba2575060208151105b80610bda575080601f81518110610bc957634e487b7160e01b600052603260045260246000fd5b01602001516001600160f81b031916155b15610bec576000945050505050610705565b509095945050505050565b600082815260016020819052604082206060915b848111610cf25780851615801590610c3b575060008181526020839052604081208054610c3790613014565b9050115b15610cea5780826000838152602001908152602001600020808054610c5f90613014565b80601f0160208091040260200160405190810160405280929190818152602001828054610c8b90613014565b8015610cd85780601f10610cad57610100808354040283529160200191610cd8565b820191906000526020600020905b815481529060010190602001808311610cbb57829003601f168201915b50505050509050935093505050610d0b565b60011b610c0b565b5060006040518060200160405280600081525092509250505b9250929050565b82610d1c81611d62565b610d2557600080fd5b60408051808201825284815260208082018581526000888152600a83528490209251835551600190920191909155815185815290810184905285917f1d6f5e03d3f63eb58751986629a5439baee5079ff04f345becb66e23eb154e4691015b60405180910390a250505050565b82610d9c81611d62565b610da557600080fd5b6000848152600360205260409020610dbe9084846126f4565b50837fe379c1624ed7e714cc0937528a32359d69d5281337765313dba4e081b72d75788484604051610d84929190612e6d565b600d546040516331a9108f60e11b8152600481018390526000916001600160a01b031690636352211e9060240160206040518083038186803b158015610e3657600080fd5b505afa925050508015610e66575060408051601f3d908101601f19168201909252610e639181019061290f565b60015b61070557610e726130e5565b806308c379a01415610e985750610e876130fd565b80610e925750610e9a565b50610ecc565b505b3d808015610ec4576040519150601f19603f3d011682016040523d82523d6000602084013e610ec9565b606091505b50505b506000919050565b6000818152601260209081526040808320815160608101835281546001600160a01b031681526001820154938101939093526002015460ff161515908201528190610f1f848261234b565b9250925050915091565b6060600b60008581526020019081526020016000208383604051610f4e929190612de0565b90815260200160405180910390208054610f6790613014565b80601f0160208091040260200160405190810160405280929190818152602001828054610f9390613014565b8015610fe05780601f10610fb557610100808354040283529160200191610fe0565b820191906000526020600020905b815481529060010190602001808311610fc357829003601f168201915b505050505090505b9392505050565b600081815260046020526040902080546060919061100c90613014565b80601f016020809104026020016040519081016040528092919081815260200182805461103890613014565b80156110855780601f1061105a57610100808354040283529160200191611085565b820191906000526020600020905b81548152906001019060200180831161106857829003601f168201915b50505050509050919050565b8361109b81611d62565b6110a457600080fd5b836110b0600182612fb3565b16156110bb57600080fd5b600085815260016020908152604080832087845290915290206110df9084846126f4565b50604051849086907faa121bbeef5f32f5961a2a28966e769023910fc9479059ee3495d4c1a696efe390600090a35050505050565b600081815260096020526040902080546060919061100c90613014565b8261113b81611d62565b61114457600080fd5b600084815260096020526040902061115d9084846126f4565b50837fb7d29e911041e8d9b843369e890bcb72c9388692ba48b65ac54e7214c4c348f78484604051610d84929190612e6d565b60048111156111d75760405162461bcd60e51b8152602060048201526013602482015272496e646578206f7574206f6620626f756e647360681b604482015260640161053c565b6111e2848484611d88565b6112225760405162461bcd60e51b81526020600482015260116024820152702737ba1030903b30b634b21037bbb732b960791b604482015260640161053c565b61122b84611d62565b6112685760405162461bcd60e51b815260206004820152600e60248201526d139bdd08185d5d1a1bdc9a5e995960921b604482015260640161053c565b60008481526013602052604090208390826005811061129757634e487b7160e01b600052603260045260246000fd5b6003020180546001600160a01b0319166001600160a01b03929092169190911790556000848152601360205260409020829082600581106112e857634e487b7160e01b600052603260045260246000fd5b6003020160010181905550600160136000868152602001908152602001600020826005811061132757634e487b7160e01b600052603260045260246000fd5b6003020160020160006101000a81548160ff02191690831515021790555050505050565b60048111156113925760405162461bcd60e51b8152602060048201526013602482015272496e646578206f7574206f6620626f756e647360681b604482015260640161053c565b61139d848484611d88565b6113dd5760405162461bcd60e51b81526020600482015260116024820152702737ba1030903b30b634b21037bbb732b960791b604482015260640161053c565b6113e684611d62565b6114235760405162461bcd60e51b815260206004820152600e60248201526d139bdd08185d5d1a1bdc9a5e995960921b604482015260640161053c565b6000848152601360205260409020816005811061145057634e487b7160e01b600052603260045260246000fd5b6003020160020154600160ff9091161515146114a55760405162461bcd60e51b8152602060048201526014602482015273125b99195e08191bd95cc81b9bdd08195e1a5cdd60621b604482015260640161053c565b600084905260136020526114bb60016005612fb3565b8114156115235760008481526013602052604090206114dc60016005612fb3565b600581106114fa57634e487b7160e01b600052603260045260246000fd5b6003020180546001600160a01b031916815560006001820155600201805460ff19169055611641565b600084815260136020526040902061153d60016005612fb3565b6005811061155b57634e487b7160e01b600052603260045260246000fd5b6003020160136000868152602001908152602001600020826005811061159157634e487b7160e01b600052603260045260246000fd5b82546003919091029190910180546001600160a01b0319166001600160a01b039092169190911781556001808301548183015560029283015492909101805460ff909316151560ff19909316929092179091556000858152601360205260409020906115fe906005612fb3565b6005811061161c57634e487b7160e01b600052603260045260246000fd5b6003020180546001600160a01b031916815560006001820155600201805460ff191690555b50505050565b815183511461165557600080fd5b805183511461166357600080fd5b60058351111561167257600080fd5b60005b8351811015611711576116ff858583815181106116a257634e487b7160e01b600052603260045260246000fd5b60200260200101518584815181106116ca57634e487b7160e01b600052603260045260246000fd5b60200260200101518585815181106116f257634e487b7160e01b600052603260045260246000fd5b6020026020010151611190565b806117098161309e565b915050611675565b5050505050565b6000838152600660209081526040808320600583528184205484528252808320858452825280832061ffff851684529091529020805460609190610f6790613014565b60608167ffffffffffffffff81111561178457634e487b7160e01b600052604160045260246000fd5b6040519080825280602002602001820160405280156117b757816020015b60608152602001906001900390816117a25790505b50905060005b8281101561189957600080308686858181106117e957634e487b7160e01b600052603260045260246000fd5b90506020028101906117fb9190612f32565b604051611809929190612de0565b600060405180830381855af49150503d8060008114611844576040519150601f19603f3d011682016040523d82523d6000602084013e611849565b606091505b50915091508161185857600080fd5b8084848151811061187957634e487b7160e01b600052603260045260246000fd5b6020026020010181905250505080806118919061309e565b9150506117bd565b5092915050565b806118aa81611d62565b6118b357600080fd5b60008281526005602052604081208054916118cd8361309e565b909155505060405182907fb757169b8492ca2f1c6619d9d76ce22803035c3b1d5f6930dffe7b127c1a198390600090a25050565b600081815260036020526040902080546060919061100c90613014565b60008281526013602052604081208190836005811061194d57634e487b7160e01b600052603260045260246000fd5b600302016002015460ff1615806119df575060008481526013602052604090206119dd908590856005811061199257634e487b7160e01b600052603260045260246000fd5b600302015460008781526013602052604090206001600160a01b039091169086600581106119d057634e487b7160e01b600052603260045260246000fd5b6003020160010154611d88565b155b156119ef57506000905080610d0b565b6000848152601360205260409020611a629085908560058110611a2257634e487b7160e01b600052603260045260246000fd5b604080516060810182526003929092029290920180546001600160a01b03168252600181015460208301526002015460ff1615159181019190915261234b565b915091509250929050565b82611a7781611d62565b611a8057600080fd5b60008481526004602052604081208054611a9990613014565b80601f0160208091040260200160405190810160405280929190818152602001828054611ac590613014565b8015611b125780601f10611ae757610100808354040283529160200191611b12565b820191906000526020600020905b815481529060010190602001808311611af557829003601f168201915b5050506000888152600460205260409020929350611b35929150869050856126f4565b50847f8f15ed4b723ef428f250961da8315675b507046737e19319fc1a4d81bfe87f85828686604051611b6a93929190612e94565b60405180910390a25050505050565b82611b8381611d62565b611b8c57600080fd5b60008481526008602090815260408083206001600160e01b031987168085529083529281902080546001600160a01b0319166001600160a01b038716908117909155905190815286917f7c69f06bea0bdef565b709e93a147836b0063ba2dd89f02d0b7e8d931e6a6daa910160405180910390a350505050565b60008281526002602090815260408083208484529091529020805460609190611c2e90613014565b80601f0160208091040260200160405190810160405280929190818152602001828054611c5a90613014565b8015611ca75780601f10611c7c57610100808354040283529160200191611ca7565b820191906000526020600020905b815481529060010190602001808311611c8a57829003601f168201915b5050505050905092915050565b3360009081526010602052604090205460ff16611cff5760405162461bcd60e51b81526020600482015260096024820152682737ba1030b236b4b760b91b604482015260640161053c565b6001600160a01b038216600081815260106020908152604091829020805460ff19168515159081179091558251938452908301527faaa3a79c39aa7799507595312c878f4fd2763be3ac0afd8a121a4e5519dbd5f3910160405180910390a15050565b6000611d6d82610df1565b6001600160a01b0316336001600160a01b0316149050919050565b6011546000906001600160a01b0384811691161415611e3b57611daa84610df1565b601154604051630b02f02d60e31b8152600481018590526001600160a01b03928316929091169063581781689060240160206040518083038186803b158015611df257600080fd5b505afa158015611e06573d6000803e3d6000fd5b505050506040513d601f19601f82011682018060405250810190611e2a919061290f565b6001600160a01b0316149050610fe8565b6040516331a9108f60e11b8152600481018390526001600160a01b03841690636352211e9060240160206040518083038186803b158015611e7b57600080fd5b505afa925050508015611eab575060408051601f3d908101601f19168201909252611ea89181019061290f565b60015b611f3557611eb76130e5565b806308c379a01415611ee15750611ecc6130fd565b80611ed75750611efb565b6000915050610fe8565b634e487b711415611efb57611ef461317c565b90611ed757505b3d808015611f25576040519150601f19603f3d011682016040523d82523d6000602084013e611f2a565b606091505b506000915050610fe8565b611f3e85610df1565b6001600160a01b0316816001600160a01b031614915050610fe8565b60006107058261238c565b611fb36040518060e001604052806060815260200160008152602001600061ffff168152602001600061ffff168152602001600063ffffffff16815260200160008152602001600081525090565b82815260c0810182905261070581612263565b6020810151815160609161070591611fde90826123b1565b8451919061241e565b60a081015160c082015160609161070591611fde908290612fb3565b600081518351148015610fe85750610fe883600084600087516124a3565b6000878152600560209081526040822054885191890191909120909161204887878761241e565b905083156121515760008a81526006602090815260408083208684528252808320858452825280832061ffff8c1684529091529020805461208890613014565b1590506120dc5760008a815260076020908152604080832086845282528083208584529091528120805461ffff16916120c083612ff6565b91906101000a81548161ffff021916908361ffff160217905550505b60008a81526006602090815260408083208684528252808320858452825280832061ffff8c168452909152812061211291612778565b897f03528ed0c2a3ebc993b12ce3c16bb382f9c7d88ef7d8a1bf290eaf35955a12078a8a604051612144929190612ec4565b60405180910390a2612257565b60008a81526006602090815260408083208684528252808320858452825280832061ffff8c1684529091529020805461218990613014565b151590506121de5760008a815260076020908152604080832086845282528083208584529091528120805461ffff16916121c28361307c565b91906101000a81548161ffff021916908361ffff160217905550505b60008a81526006602090815260408083208684528252808320858452825280832061ffff8c16845282529091208251612219928401906127b5565b50897f52a608b3303a48862d07a73d82fa221318c0027fbbcfb1b2329bface3f19ff2b8a8a8460405161224e93929190612eea565b60405180910390a25b50505050505050505050565b60c0810151602082018190528151511161227a5750565b600061228e826000015183602001516123b1565b826020015161229d9190612f9b565b82519091506122ac90826124c6565b61ffff1660408301526122c0600282612f9b565b82519091506122cf90826124c6565b61ffff1660608301526122e3600282612f9b565b82519091506122f290826124ee565b63ffffffff166080830152612308600482612f9b565b825190915060009061231a90836124c6565b61ffff16905061232b600283612f9b565b60a08401819052915061233e8183612f9b565b60c0909301929092525050565b6000808260400151801561236d575061236d8484600001518560200151611d88565b1561238057505080516020820151610d0b565b50600093849350915050565b60006001600160e01b03198216631674750f60e21b1480610705575061070582612518565b6000815b835181106123d357634e487b7160e01b600052600160045260246000fd5b60006123df858361253d565b60ff1690506123ef816001612f9b565b6123f99083612f9b565b915080612406575061240c565b506123b5565b6124168382612fb3565b949350505050565b825160609061242d8385612f9b565b111561243857600080fd5b60008267ffffffffffffffff81111561246157634e487b7160e01b600052604160045260246000fd5b6040519080825280601f01601f19166020018201604052801561248b576020820181803683370190505b50905060208082019086860101610bec82828761256f565b60006124b08484846125c5565b6124bb8787856125c5565b149695505050505050565b81516000906124d6836002612f9b565b11156124e157600080fd5b50016002015161ffff1690565b81516000906124fe836004612f9b565b111561250957600080fd5b50016004015163ffffffff1690565b60006001600160e01b0319821663c869023360e01b14806107055750610705826125e9565b600082828151811061255f57634e487b7160e01b600052603260045260246000fd5b016020015160f81c905092915050565b602081106125a75781518352612586602084612f9b565b9250612593602083612f9b565b91506125a0602082612fb3565b905061256f565b905182516020929092036101000a6000190180199091169116179052565b82516000906125d48385612f9b565b11156125df57600080fd5b5091016020012090565b60006001600160e01b0319821663691f343160e01b148061070557506107058260006001600160e01b031982166304928c6760e21b148061070557506107058260006001600160e01b0319821663547d2b4160e11b148061265a57506001600160e01b03198216631711d8df60e21b145b8061070557506107058260006001600160e01b0319821663bc1c58d160e01b148061070557506107058260006001600160e01b03198216631d9dabef60e11b14806126b557506001600160e01b031982166378e5bf0360e11b145b8061070557506107058260006001600160e01b03198216631101d5ab60e11b148061070557506301ffc9a760e01b6001600160e01b0319831614610705565b82805461270090613014565b90600052602060002090601f0160209004810192826127225760008555612768565b82601f1061273b5782800160ff19823516178555612768565b82800160010185558215612768579182015b8281111561276857823582559160200191906001019061274d565b50612774929150612829565b5090565b50805461278490613014565b6000825580601f10612794575050565b601f0160209004906000526020600020908101906127b29190612829565b50565b8280546127c190613014565b90600052602060002090601f0160209004810192826127e35760008555612768565b82601f106127fc57805160ff1916838001178555612768565b82800160010185558215612768579182015b8281111561276857825182559160200191906001019061280e565b5b80821115612774576000815560010161282a565b600082601f83011261284e578081fd5b8135602061285b82612f77565b604051612868828261304f565b8381528281019150858301600585901b87018401881015612887578586fd5b855b858110156128a557813584529284019290840190600101612889565b5090979650505050505050565b80356001600160e01b0319811681146128ca57600080fd5b919050565b60008083601f8401126128e0578182fd5b50813567ffffffffffffffff8111156128f7578182fd5b602083019150836020828501011115610d0b57600080fd5b600060208284031215612920578081fd5b8151610fe881613198565b6000806040838503121561293d578081fd5b823561294881613198565b91506020830135612958816131ad565b809150509250929050565b60008060208385031215612975578182fd5b823567ffffffffffffffff8082111561298c578384fd5b818501915085601f83011261299f578384fd5b8135818111156129ad578485fd5b8660208260051b85010111156129c1578485fd5b60209290920196919550909350505050565b6000602082840312156129e4578081fd5b8151610fe8816131ad565b600060208284031215612a00578081fd5b5035919050565b600080600060608486031215612a1b578081fd5b833592506020840135612a2d81613198565b929592945050506040919091013590565b60008060008060808587031215612a53578081fd5b843593506020850135612a6581613198565b93969395505050506040820135916060013590565b60008060008060808587031215612a8f578384fd5b8435935060208086013567ffffffffffffffff80821115612aae578586fd5b818801915088601f830112612ac1578586fd5b8135612acc81612f77565b604051612ad9828261304f565b8281528581019150848601600584901b860187018d1015612af857898afd5b8995505b83861015612b23578035612b0f81613198565b835260019590950194918601918601612afc565b50975050506040880135925080831115612b3b578485fd5b612b4789848a0161283e565b94506060880135925080831115612b5c578384fd5b5050612b6a8782880161283e565b91505092959194509250565b60008060408385031215612b88578182fd5b50508035926020909101359150565b600080600060608486031215612bab578081fd5b505081359360208301359350604090920135919050565b600080600060608486031215612bd6578081fd5b8335925060208401359150604084013561ffff81168114612bf5578182fd5b809150509250925092565b60008060408385031215612c12578182fd5b82359150612c22602084016128b2565b90509250929050565b600080600060608486031215612c3f578081fd5b83359250612c4f602085016128b2565b91506040840135612bf581613198565b600080600060408486031215612c73578081fd5b83359250602084013567ffffffffffffffff811115612c90578182fd5b612c9c868287016128cf565b9497909650939450505050565b600080600080600060608688031215612cc0578283fd5b85359450602086013567ffffffffffffffff80821115612cde578485fd5b612cea89838a016128cf565b90965094506040880135915080821115612d02578283fd5b50612d0f888289016128cf565b969995985093965092949392505050565b60008060008060608587031215612d35578182fd5b8435935060208501359250604085013567ffffffffffffffff811115612d59578283fd5b612d65878288016128cf565b95989497509550505050565b600060208284031215612d82578081fd5b610fe8826128b2565b81835281816020850137506000828201602090810191909152601f909101601f19169091010190565b60008151808452612dcc816020860160208601612fca565b601f01601f19169290920160200192915050565b8183823760009101908152919050565b60008251612e02818460208701612fca565b9190910192915050565b6000602080830181845280855180835260408601915060408160051b8701019250838701855b82811015612e6057603f19888603018452612e4e858351612db4565b94509285019290850190600101612e32565b5092979650505050505050565b602081526000612416602083018486612d8b565b602081526000610fe86020830184612db4565b604081526000612ea76040830186612db4565b8281036020840152612eba818587612d8b565b9695505050505050565b604081526000612ed76040830185612db4565b905061ffff831660208301529392505050565b606081526000612efd6060830186612db4565b61ffff851660208401528281036040840152612eba8185612db4565b8281526040602082015260006124166040830184612db4565b6000808335601e19843603018112612f48578283fd5b83018035915067ffffffffffffffff821115612f62578283fd5b602001915036819003821315610d0b57600080fd5b600067ffffffffffffffff821115612f9157612f916130cf565b5060051b60200190565b60008219821115612fae57612fae6130b9565b500190565b600082821015612fc557612fc56130b9565b500390565b60005b83811015612fe5578181015183820152602001612fcd565b838111156116415750506000910152565b600061ffff82168061300a5761300a6130b9565b6000190192915050565b600181811c9082168061302857607f821691505b6020821081141561304957634e487b7160e01b600052602260045260246000fd5b50919050565b601f8201601f1916810167ffffffffffffffff81118282101715613075576130756130cf565b6040525050565b600061ffff80831681811415613094576130946130b9565b6001019392505050565b60006000198214156130b2576130b26130b9565b5060010190565b634e487b7160e01b600052601160045260246000fd5b634e487b7160e01b600052604160045260246000fd5b600060033d11156130fa57600481823e5160e01c5b90565b600060443d101561310b5790565b6040516003193d81016004833e81513d67ffffffffffffffff816024840111818411171561313b57505050505090565b82850191508151818111156131535750505050505090565b843d870101602082850101111561316d5750505050505090565b610bec6020828601018761304f565b60008060233d11156131945760206004833e51600191505b9091565b6001600160a01b03811681146127b257600080fd5b80151581146127b257600080fdfea26469706673582212204d4fe56426030bfb72d63a2acbd910cf5c6fc5370d7429cfcf6284c7f52703a764736f6c63430008040033",
  "immutableReferences": {},
  "source": "pragma solidity >=0.8.0;\npragma abicoder v2;\n\nimport \"@openzeppelin/contracts/utils/introspection/ERC165Storage.sol\";\nimport \"./PublicResolver.sol\";\nimport \"../PxgRegistrar.sol\";\n\ninterface NFTInterface {\n  function ownerOf(uint256 tokenId) external view returns (address);\n}\n\ninterface Punks {\n  function punkIndexToAddress(uint256 index) external view returns (address);\n}\n\ncontract PxgResolverV1 is ERC165Storage, PublicResolver {\n  PxgRegistrar registrar;\n\n  mapping(address => bool) private admin;\n\n  constructor(\n    address ens,\n    address registrarAddress,\n    address initialAdmin\n  ) PublicResolver(ens, registrarAddress) {\n    registrar = PxgRegistrar(registrarAddress);\n    admin[initialAdmin] = true;\n  }\n\n  event ModifyAdmin(address adminAddr, bool value);\n\n  modifier onlyAdmin() {\n    require(admin[msg.sender], \"Not admin\");\n    _;\n  }\n\n  function modifyAdmin(address adminAddr, bool value) public onlyAdmin {\n    admin[adminAddr] = value;\n    emit ModifyAdmin(adminAddr, value);\n  }\n\n  /**\n   * Returns the address associated with an ENS node. Will default to owner of NFT\n   * if no address has been set.\n   * @param node The ENS node to query.\n   * @return The associated address.\n   */\n  function addr(bytes32 node) public view override returns (address payable) {\n    try nameWrapper.ownerOf(uint256(node)) returns (address nameOwner) {\n      return payable(nameOwner);\n    } catch Error(string memory) {\n      // no op\n    } catch (bytes memory) {\n      // no op\n    }\n    return payable(0);\n  }\n\n  address PUNK_ADDRESS = 0xb47e3cd837dDF8e4c57F05d70Ab865de6e193BBB;\n\n  struct NFT {\n    address collectionAddress;\n    uint256 tokenId;\n    bool exists;\n  }\n\n  struct Sale {\n    NFT nft;\n    uint256 price;\n  }\n\n  // node to default avatar\n  mapping(bytes32 => NFT) defaultAvatar;\n  // node to gallery\n  mapping(bytes32 => NFT[5]) gallery;\n\n  event DefaultAvatarSet(\n    bytes32 indexed node,\n    address collection,\n    uint256 tokenId\n  );\n\n  /**\n    @notice Get the length of gallery array.\n    @dev Can use length to iterate gallery items on client\n    @param node The ENS node\n    @return Returns the length of gallery array\n   */\n  function getGalleryLength(bytes32 node) public view returns (uint256) {\n    return gallery[node].length;\n  }\n\n  function getGalleryItemAtIndex(bytes32 node, uint256 idx)\n    public\n    view\n    returns (address, uint256)\n  {\n    if (\n      !gallery[node][idx].exists ||\n      !_isValidOwner(\n        node,\n        gallery[node][idx].collectionAddress,\n        gallery[node][idx].tokenId\n      )\n    ) {\n      return (address(0), uint256(0));\n    }\n\n    return _validateNftData(node, gallery[node][idx]);\n  }\n\n  function setManyGalleryItems(\n    bytes32 node,\n    address[] memory collections,\n    uint256[] memory ids,\n    uint256[] memory idx\n  ) public {\n    require(collections.length == ids.length);\n    require(collections.length == idx.length);\n    require(collections.length <= 5);\n\n    for (uint256 i; i < collections.length; i++) {\n      setGalleryItem(node, collections[i], ids[i], idx[i]);\n    }\n  }\n\n  /**\n    @notice Allows a node owner to set a gallery NFT.\n    @dev Verifies that the owner of the ENS nodes owns the NFT. \n    @param node The ENS node\n    @param collectionAddress The NFT collection address\n    @param tokenId The NFT ID\n    @param idx The index at which to set the gallery item\n   */\n  function setGalleryItem(\n    bytes32 node,\n    address collectionAddress,\n    uint256 tokenId,\n    uint256 idx\n  ) public {\n    require(idx <= 4, \"Index out of bounds\");\n    require(\n      _isValidOwner(node, collectionAddress, tokenId),\n      \"Not a valid owner\"\n    );\n    require(isAuthorised(node), \"Not authorized\");\n    gallery[node][idx].collectionAddress = collectionAddress;\n    gallery[node][idx].tokenId = tokenId;\n    gallery[node][idx].exists = true;\n  }\n\n  /**\n    @notice Removes an NFT from an owners gallery.\n    @param node ENS node\n    @param collectionAddress NFT collection address\n    @param tokenId NFT ID\n    @param idx Index of gallery item to remove\n   */\n  function removeGalleryItem(\n    bytes32 node,\n    address collectionAddress,\n    uint256 tokenId,\n    uint256 idx\n  ) public {\n    require(idx <= 4, \"Index out of bounds\");\n    require(\n      _isValidOwner(node, collectionAddress, tokenId),\n      \"Not a valid owner\"\n    );\n    require(isAuthorised(node), \"Not authorized\");\n    require(gallery[node][idx].exists == true, \"Index does not exist\");\n    // remove if last index of array\n    if (idx == gallery[node].length - 1) {\n      delete gallery[node][gallery[node].length - 1];\n    } else {\n      // Swap idx item with last item and remove last item\n      gallery[node][idx] = gallery[node][gallery[node].length - 1];\n      delete gallery[node][gallery[node].length - 1];\n    }\n  }\n\n  /**\n    @notice Checks to see if node owner is the owner of the given NFT.\n    @param node The ENS node\n    @param collection The NFT collection address\n    @param tokenId The NFT ID\n   */\n  function _isValidOwner(\n    bytes32 node,\n    address collection,\n    uint256 tokenId\n  ) internal view returns (bool) {\n    if (collection == PUNK_ADDRESS) {\n      return Punks(PUNK_ADDRESS).punkIndexToAddress(tokenId) == addr(node);\n    } else {\n      try NFTInterface(collection).ownerOf(tokenId) returns (\n        address ownerAddr\n      ) {\n        return ownerAddr == addr(node);\n      } catch Error(\n        string memory /*reason*/\n      ) {\n        return false;\n      } catch Panic(\n        uint256 /*errorCode*/\n      ) {\n        return false;\n      } catch (\n        bytes memory /*lowLevelData*/\n      ) {\n        return false;\n      }\n    }\n  }\n\n  /**\n    @notice Validates that the node owner is the owner of the NFT\n    @dev May return address 0 uint 0\n    @param node ENS node\n    @param nft NFT struct\n    @return Returns the NFT address and ID \n   */\n  function _validateNftData(bytes32 node, NFT memory nft)\n    internal\n    view\n    returns (address, uint256)\n  {\n    if (nft.exists && _isValidOwner(node, nft.collectionAddress, nft.tokenId)) {\n      return (nft.collectionAddress, nft.tokenId);\n    }\n    return (address(0), uint256(0));\n  }\n\n  /**\n    @notice Get the default avatar.\n    @dev May return address 0 and uint 0 if not set, or now longer owner\n    @param node ENS node\n    @return Returns the address of the collection and NFT token ID\n   */\n  function getDefaultAvatar(bytes32 node)\n    public\n    view\n    returns (address, uint256)\n  {\n    NFT memory nft = defaultAvatar[node];\n    return _validateNftData(node, nft);\n  }\n\n  /**\n    @notice Sets the default NFT avatar for a given node. \n    @dev Emits event\n    @param node The ENS node\n    @param collection The NFT collection address\n    @param tokenId The NFT ID\n   */\n  function setDefaultAvatar(\n    bytes32 node,\n    address collection,\n    uint256 tokenId\n  ) public {\n    require(isAuthorised(node), \"Unauthorized\");\n    require(\n      registrar.supportsCollection(collection),\n      \"Collection not supported\"\n    );\n    require(_isValidOwner(node, collection, tokenId), \"Not valid owner\");\n    defaultAvatar[node] = NFT(collection, tokenId, true);\n    emit DefaultAvatarSet(node, collection, tokenId);\n  }\n\n  function supportsInterface(bytes4 interfaceID)\n    public\n    pure\n    virtual\n    override(ERC165Storage, PublicResolver)\n    returns (bool)\n  {\n    return super.supportsInterface(interfaceID);\n  }\n}\n",
  "sourcePath": "/Users/seanpapanikolas/Projects/pxg/contracts/resolvers/PxgResolverV1.sol",
  "compiler": {
    "name": "solc",
    "version": "0.8.4+commit.c7e474f2.Emscripten.clang"
  },
  "schemaVersion": "3.4.2",
  "updatedAt": "2021-08-24T20:09:13.771Z",
  "networkType": "ethereum",
  "devdoc": {
    "kind": "dev",
    "methods": {
      "ABI(bytes32,uint256)": {
        "params": {
          "contentTypes": "A bitwise OR of the ABI formats accepted by the caller.",
          "node": "The ENS node to query"
        },
        "returns": {
          "_0": "contentType The content type of the return value",
          "_1": "data The ABI data"
        }
      },
      "addr(bytes32)": {
        "params": {
          "node": "The ENS node to query."
        },
        "returns": {
          "_0": "The associated address."
        }
      },
      "clearDNSZone(bytes32)": {
        "params": {
          "node": "the namehash of the node for which to clear the zone"
        }
      },
      "contenthash(bytes32)": {
        "params": {
          "node": "The ENS node to query."
        },
        "returns": {
          "_0": "The associated contenthash."
        }
      },
      "dnsRecord(bytes32,bytes32,uint16)": {
        "params": {
          "name": "the keccak-256 hash of the fully-qualified name for which to fetch the record",
          "node": "the namehash of the node for which to fetch the record",
          "resource": "the ID of the resource as per https://en.wikipedia.org/wiki/List_of_DNS_record_types"
        },
        "returns": {
          "_0": "the DNS record in wire format if present, otherwise empty"
        }
      },
      "getDefaultAvatar(bytes32)": {
        "details": "May return address 0 and uint 0 if not set, or now longer owner",
        "params": {
          "node": "ENS node"
        },
        "returns": {
          "_0": "Returns the address of the collection and NFT token ID"
        }
      },
      "getGalleryLength(bytes32)": {
        "details": "Can use length to iterate gallery items on client",
        "params": {
          "node": "The ENS node"
        },
        "returns": {
          "_0": "Returns the length of gallery array"
        }
      },
      "hasDNSRecords(bytes32,bytes32)": {
        "params": {
          "name": "the namehash of the node for which to check the records",
          "node": "the namehash of the node for which to check the records"
        }
      },
      "interfaceImplementer(bytes32,bytes4)": {
        "params": {
          "interfaceID": "The EIP 165 interface ID to check for.",
          "node": "The ENS node to query."
        },
        "returns": {
          "_0": "The address that implements this interface, or 0 if the interface is unsupported."
        }
      },
      "name(bytes32)": {
        "params": {
          "node": "The ENS node to query."
        },
        "returns": {
          "_0": "The associated name."
        }
      },
      "pubkey(bytes32)": {
        "params": {
          "node": "The ENS node to query"
        },
        "returns": {
          "x": "The X coordinate of the curve point for the public key.",
          "y": "The Y coordinate of the curve point for the public key."
        }
      },
      "removeGalleryItem(bytes32,address,uint256,uint256)": {
        "params": {
          "collectionAddress": "NFT collection address",
          "idx": "Index of gallery item to remove",
          "node": "ENS node",
          "tokenId": "NFT ID"
        }
      },
      "setABI(bytes32,uint256,bytes)": {
        "params": {
          "contentType": "The content type of the ABI",
          "data": "The ABI data.",
          "node": "The node to update."
        }
      },
      "setContenthash(bytes32,bytes)": {
        "params": {
          "hash": "The contenthash to set",
          "node": "The node to update."
        }
      },
      "setDNSRecords(bytes32,bytes)": {
        "params": {
          "data": "the DNS wire format records to set",
          "node": "the namehash of the node for which to set the records"
        }
      },
      "setDefaultAvatar(bytes32,address,uint256)": {
        "details": "Emits event",
        "params": {
          "collection": "The NFT collection address",
          "node": "The ENS node",
          "tokenId": "The NFT ID"
        }
      },
      "setGalleryItem(bytes32,address,uint256,uint256)": {
        "details": "Verifies that the owner of the ENS nodes owns the NFT. ",
        "params": {
          "collectionAddress": "The NFT collection address",
          "idx": "The index at which to set the gallery item",
          "node": "The ENS node",
          "tokenId": "The NFT ID"
        }
      },
      "setInterface(bytes32,bytes4,address)": {
        "params": {
          "implementer": "The address of a contract that implements this interface for this node.",
          "interfaceID": "The EIP 165 interface ID.",
          "node": "The node to update."
        }
      },
      "setName(bytes32,string)": {
        "params": {
          "name": "The name to set.",
          "node": "The node to update."
        }
      },
      "setPubkey(bytes32,bytes32,bytes32)": {
        "params": {
          "node": "The ENS node to query",
          "x": "the X coordinate of the curve point for the public key.",
          "y": "the Y coordinate of the curve point for the public key."
        }
      },
      "setText(bytes32,string,string)": {
        "params": {
          "key": "The key to set.",
          "node": "The node to update.",
          "value": "The text data value to set."
        }
      },
      "setZonehash(bytes32,bytes)": {
        "params": {
          "hash": "The zonehash to set",
          "node": "The node to update."
        }
      },
      "text(bytes32,string)": {
        "params": {
          "key": "The text data key to query.",
          "node": "The ENS node to query."
        },
        "returns": {
          "_0": "The associated text data."
        }
      },
      "zonehash(bytes32)": {
        "params": {
          "node": "The ENS node to query."
        },
        "returns": {
          "_0": "The associated contenthash."
        }
      }
    },
    "version": 1
  },
  "userdoc": {
    "kind": "user",
    "methods": {
      "ABI(bytes32,uint256)": {
        "notice": "Returns the ABI associated with an ENS node. Defined in EIP205."
      },
      "addr(bytes32)": {
        "notice": "Returns the address associated with an ENS node. Will default to owner of NFT if no address has been set."
      },
      "clearDNSZone(bytes32)": {
        "notice": "Clear all information for a DNS zone."
      },
      "contenthash(bytes32)": {
        "notice": "Returns the contenthash associated with an ENS node."
      },
      "dnsRecord(bytes32,bytes32,uint16)": {
        "notice": "Obtain a DNS record."
      },
      "getDefaultAvatar(bytes32)": {
        "notice": "Get the default avatar."
      },
      "getGalleryLength(bytes32)": {
        "notice": "Get the length of gallery array."
      },
      "hasDNSRecords(bytes32,bytes32)": {
        "notice": "Check if a given node has records."
      },
      "interfaceImplementer(bytes32,bytes4)": {
        "notice": "Returns the address of a contract that implements the specified interface for this name. If an implementer has not been set for this interfaceID and name, the resolver will query the contract at `addr()`. If `addr()` is set, a contract exists at that address, and that contract implements EIP165 and returns `true` for the specified interfaceID, its address will be returned."
      },
      "name(bytes32)": {
        "notice": "Returns the name associated with an ENS node, for reverse records. Defined in EIP181."
      },
      "pubkey(bytes32)": {
        "notice": "Returns the SECP256k1 public key associated with an ENS node. Defined in EIP 619."
      },
      "removeGalleryItem(bytes32,address,uint256,uint256)": {
        "notice": "Removes an NFT from an owners gallery."
      },
      "setABI(bytes32,uint256,bytes)": {
        "notice": "Sets the ABI associated with an ENS node. Nodes may have one ABI of each content type. To remove an ABI, set it to the empty string."
      },
      "setContenthash(bytes32,bytes)": {
        "notice": "Sets the contenthash associated with an ENS node. May only be called by the owner of that node in the ENS registry."
      },
      "setDNSRecords(bytes32,bytes)": {
        "notice": "Set one or more DNS records.  Records are supplied in wire-format. Records with the same node/name/resource must be supplied one after the other to ensure the data is updated correctly. For example, if the data was supplied:     a.example.com IN A 1.2.3.4     a.example.com IN A 5.6.7.8     www.example.com IN CNAME a.example.com. then this would store the two A records for a.example.com correctly as a single RRSET, however if the data was supplied:     a.example.com IN A 1.2.3.4     www.example.com IN CNAME a.example.com.     a.example.com IN A 5.6.7.8 then this would store the first A record, the CNAME, then the second A record which would overwrite the first."
      },
      "setDefaultAvatar(bytes32,address,uint256)": {
        "notice": "Sets the default NFT avatar for a given node. "
      },
      "setGalleryItem(bytes32,address,uint256,uint256)": {
        "notice": "Allows a node owner to set a gallery NFT."
      },
      "setInterface(bytes32,bytes4,address)": {
        "notice": "Sets an interface associated with a name. Setting the address to 0 restores the default behaviour of querying the contract at `addr()` for interface support."
      },
      "setName(bytes32,string)": {
        "notice": "Sets the name associated with an ENS node, for reverse records. May only be called by the owner of that node in the ENS registry."
      },
      "setPubkey(bytes32,bytes32,bytes32)": {
        "notice": "Sets the SECP256k1 public key associated with an ENS node."
      },
      "setText(bytes32,string,string)": {
        "notice": "Sets the text data associated with an ENS node and key. May only be called by the owner of that node in the ENS registry."
      },
      "setZonehash(bytes32,bytes)": {
        "notice": "setZonehash sets the hash for the zone. May only be called by the owner of that node in the ENS registry."
      },
      "text(bytes32,string)": {
        "notice": "Returns the text data associated with an ENS node and key."
      },
      "zonehash(bytes32)": {
        "notice": "zonehash obtains the hash for the zone."
      }
    },
    "version": 1
  }
}