{
  "contractName": "Test721",
  "abi": [
    {
      "inputs": [],
      "stateMutability": "nonpayable",
      "type": "constructor"
    },
    {
      "anonymous": false,
      "inputs": [
        {
          "indexed": true,
          "internalType": "address",
          "name": "owner",
          "type": "address"
        },
        {
          "indexed": true,
          "internalType": "address",
          "name": "approved",
          "type": "address"
        },
        {
          "indexed": true,
          "internalType": "uint256",
          "name": "tokenId",
          "type": "uint256"
        }
      ],
      "name": "Approval",
      "type": "event"
    },
    {
      "anonymous": false,
      "inputs": [
        {
          "indexed": true,
          "internalType": "address",
          "name": "owner",
          "type": "address"
        },
        {
          "indexed": true,
          "internalType": "address",
          "name": "operator",
          "type": "address"
        },
        {
          "indexed": false,
          "internalType": "bool",
          "name": "approved",
          "type": "bool"
        }
      ],
      "name": "ApprovalForAll",
      "type": "event"
    },
    {
      "anonymous": false,
      "inputs": [
        {
          "indexed": true,
          "internalType": "address",
          "name": "from",
          "type": "address"
        },
        {
          "indexed": true,
          "internalType": "address",
          "name": "to",
          "type": "address"
        },
        {
          "indexed": true,
          "internalType": "uint256",
          "name": "tokenId",
          "type": "uint256"
        }
      ],
      "name": "Transfer",
      "type": "event"
    },
    {
      "inputs": [
        {
          "internalType": "address",
          "name": "to",
          "type": "address"
        },
        {
          "internalType": "uint256",
          "name": "tokenId",
          "type": "uint256"
        }
      ],
      "name": "approve",
      "outputs": [],
      "stateMutability": "nonpayable",
      "type": "function"
    },
    {
      "inputs": [
        {
          "internalType": "address",
          "name": "owner",
          "type": "address"
        }
      ],
      "name": "balanceOf",
      "outputs": [
        {
          "internalType": "uint256",
          "name": "",
          "type": "uint256"
        }
      ],
      "stateMutability": "view",
      "type": "function",
      "constant": true
    },
    {
      "inputs": [
        {
          "internalType": "uint256",
          "name": "tokenId",
          "type": "uint256"
        }
      ],
      "name": "getApproved",
      "outputs": [
        {
          "internalType": "address",
          "name": "",
          "type": "address"
        }
      ],
      "stateMutability": "view",
      "type": "function",
      "constant": true
    },
    {
      "inputs": [
        {
          "internalType": "address",
          "name": "owner",
          "type": "address"
        },
        {
          "internalType": "address",
          "name": "operator",
          "type": "address"
        }
      ],
      "name": "isApprovedForAll",
      "outputs": [
        {
          "internalType": "bool",
          "name": "",
          "type": "bool"
        }
      ],
      "stateMutability": "view",
      "type": "function",
      "constant": true
    },
    {
      "inputs": [],
      "name": "name",
      "outputs": [
        {
          "internalType": "string",
          "name": "",
          "type": "string"
        }
      ],
      "stateMutability": "view",
      "type": "function",
      "constant": true
    },
    {
      "inputs": [
        {
          "internalType": "uint256",
          "name": "tokenId",
          "type": "uint256"
        }
      ],
      "name": "ownerOf",
      "outputs": [
        {
          "internalType": "address",
          "name": "",
          "type": "address"
        }
      ],
      "stateMutability": "view",
      "type": "function",
      "constant": true
    },
    {
      "inputs": [
        {
          "internalType": "address",
          "name": "from",
          "type": "address"
        },
        {
          "internalType": "address",
          "name": "to",
          "type": "address"
        },
        {
          "internalType": "uint256",
          "name": "tokenId",
          "type": "uint256"
        }
      ],
      "name": "safeTransferFrom",
      "outputs": [],
      "stateMutability": "nonpayable",
      "type": "function"
    },
    {
      "inputs": [
        {
          "internalType": "address",
          "name": "from",
          "type": "address"
        },
        {
          "internalType": "address",
          "name": "to",
          "type": "address"
        },
        {
          "internalType": "uint256",
          "name": "tokenId",
          "type": "uint256"
        },
        {
          "internalType": "bytes",
          "name": "_data",
          "type": "bytes"
        }
      ],
      "name": "safeTransferFrom",
      "outputs": [],
      "stateMutability": "nonpayable",
      "type": "function"
    },
    {
      "inputs": [
        {
          "internalType": "address",
          "name": "operator",
          "type": "address"
        },
        {
          "internalType": "bool",
          "name": "approved",
          "type": "bool"
        }
      ],
      "name": "setApprovalForAll",
      "outputs": [],
      "stateMutability": "nonpayable",
      "type": "function"
    },
    {
      "inputs": [
        {
          "internalType": "bytes4",
          "name": "interfaceId",
          "type": "bytes4"
        }
      ],
      "name": "supportsInterface",
      "outputs": [
        {
          "internalType": "bool",
          "name": "",
          "type": "bool"
        }
      ],
      "stateMutability": "view",
      "type": "function",
      "constant": true
    },
    {
      "inputs": [],
      "name": "symbol",
      "outputs": [
        {
          "internalType": "string",
          "name": "",
          "type": "string"
        }
      ],
      "stateMutability": "view",
      "type": "function",
      "constant": true
    },
    {
      "inputs": [
        {
          "internalType": "uint256",
          "name": "index",
          "type": "uint256"
        }
      ],
      "name": "tokenByIndex",
      "outputs": [
        {
          "internalType": "uint256",
          "name": "",
          "type": "uint256"
        }
      ],
      "stateMutability": "view",
      "type": "function",
      "constant": true
    },
    {
      "inputs": [
        {
          "internalType": "address",
          "name": "owner",
          "type": "address"
        },
        {
          "internalType": "uint256",
          "name": "index",
          "type": "uint256"
        }
      ],
      "name": "tokenOfOwnerByIndex",
      "outputs": [
        {
          "internalType": "uint256",
          "name": "",
          "type": "uint256"
        }
      ],
      "stateMutability": "view",
      "type": "function",
      "constant": true
    },
    {
      "inputs": [
        {
          "internalType": "uint256",
          "name": "tokenId",
          "type": "uint256"
        }
      ],
      "name": "tokenURI",
      "outputs": [
        {
          "internalType": "string",
          "name": "",
          "type": "string"
        }
      ],
      "stateMutability": "view",
      "type": "function",
      "constant": true
    },
    {
      "inputs": [],
      "name": "totalSupply",
      "outputs": [
        {
          "internalType": "uint256",
          "name": "",
          "type": "uint256"
        }
      ],
      "stateMutability": "view",
      "type": "function",
      "constant": true
    },
    {
      "inputs": [
        {
          "internalType": "address",
          "name": "from",
          "type": "address"
        },
        {
          "internalType": "address",
          "name": "to",
          "type": "address"
        },
        {
          "internalType": "uint256",
          "name": "tokenId",
          "type": "uint256"
        }
      ],
      "name": "transferFrom",
      "outputs": [],
      "stateMutability": "nonpayable",
      "type": "function"
    },
    {
      "inputs": [
        {
          "internalType": "uint256",
          "name": "tokenId",
          "type": "uint256"
        },
        {
          "internalType": "address",
          "name": "to",
          "type": "address"
        }
      ],
      "name": "mint",
      "outputs": [],
      "stateMutability": "nonpayable",
      "type": "function"
    }
  ],
  "bytecode": "0x60806040523480156200001157600080fd5b50604080516020808201808452600080845284519283019094528382528251929391926200004192919062000513565b5080516200005790600190602084019062000513565b5050506200006d3360016200007360201b60201c565b62000641565b6001600160a01b038216620000cf5760405162461bcd60e51b815260206004820181905260248201527f4552433732313a206d696e7420746f20746865207a65726f206164647265737360448201526064015b60405180910390fd5b6000818152600260205260409020546001600160a01b031615620001365760405162461bcd60e51b815260206004820152601c60248201527f4552433732313a20746f6b656e20616c7265616479206d696e746564000000006044820152606401620000c6565b6200014460008383620001cd565b6001600160a01b03821660009081526003602052604081208054600192906200016f908490620005b9565b909155505060008181526002602052604080822080546001600160a01b0319166001600160a01b03861690811790915590518392907fddf252ad1be2c89b69c2b068fc378daa952ba7f163c4a11628f55a4df523b3ef908290a45050565b620001e58383836200028360201b620005091760201c565b6001600160a01b03831662000243576200023d81600880546000838152600960205260408120829055600182018355919091527ff3f7a9fe364faab93b216da50a3214154f22a0a2b415b23a84c8169e8b636ee30155565b62000269565b816001600160a01b0316836001600160a01b0316146200026957620002698382620002ae565b6001600160a01b038216620002885762000283816200035b565b505050565b826001600160a01b0316826001600160a01b031614620002835762000283828262000439565b60006001620002c8846200048a60201b620007081760201c565b620002d49190620005d4565b60008381526007602052604090205490915080821462000328576001600160a01b03841660009081526006602090815260408083208584528252808320548484528184208190558352600790915290208190555b5060009182526007602090815260408084208490556001600160a01b039094168352600681528383209183525290812055565b6008546000906200036f90600190620005d4565b60008381526009602052604081205460088054939450909284908110620003a657634e487b7160e01b600052603260045260246000fd5b906000526020600020015490508060088381548110620003d657634e487b7160e01b600052603260045260246000fd5b60009182526020808320909101929092558281526009909152604080822084905585825281205560088054806200041d57634e487b7160e01b600052603160045260246000fd5b6001900381819060005260206000200160009055905550505050565b600062000451836200048a60201b620007081760201c565b6001600160a01b039093166000908152600660209081526040808320868452825280832085905593825260079052919091209190915550565b60006001600160a01b038216620004f75760405162461bcd60e51b815260206004820152602a60248201527f4552433732313a2062616c616e636520717565727920666f7220746865207a65604482015269726f206164647265737360b01b6064820152608401620000c6565b506001600160a01b031660009081526003602052604090205490565b8280546200052190620005ee565b90600052602060002090601f01602090048101928262000545576000855562000590565b82601f106200056057805160ff191683800117855562000590565b8280016001018555821562000590579182015b828111156200059057825182559160200191906001019062000573565b506200059e929150620005a2565b5090565b5b808211156200059e5760008155600101620005a3565b60008219821115620005cf57620005cf6200062b565b500190565b600082821015620005e957620005e96200062b565b500390565b600181811c908216806200060357607f821691505b602082108114156200062557634e487b7160e01b600052602260045260246000fd5b50919050565b634e487b7160e01b600052601160045260246000fd5b61181080620006516000396000f3fe608060405234801561001057600080fd5b506004361061010b5760003560e01c80634f6ccce7116100a257806395d89b411161007157806395d89b4114610224578063a22cb4651461022c578063b88d4fde1461023f578063c87b56dd14610252578063e985e9c51461026557600080fd5b80634f6ccce7146101d85780636352211e146101eb57806370a08231146101fe57806394bf804d1461021157600080fd5b806318160ddd116100de57806318160ddd1461018d57806323b872dd1461019f5780632f745c59146101b257806342842e0e146101c557600080fd5b806301ffc9a71461011057806306fdde0314610138578063081812fc1461014d578063095ea7b314610178575b600080fd5b61012361011e3660046114e6565b6102a1565b60405190151581526020015b60405180910390f35b6101406102cc565b60405161012f91906115f0565b61016061015b36600461151e565b61035e565b6040516001600160a01b03909116815260200161012f565b61018b6101863660046114bd565b6103f8565b005b6008545b60405190815260200161012f565b61018b6101ad366004611373565b61050e565b6101916101c03660046114bd565b61053f565b61018b6101d3366004611373565b6105d5565b6101916101e636600461151e565b6105f0565b6101606101f936600461151e565b610691565b61019161020c366004611327565b610708565b61018b61021f366004611536565b61078f565b61014061079d565b61018b61023a366004611483565b6107ac565b61018b61024d3660046113ae565b610871565b61014061026036600461151e565b6108a9565b610123610273366004611341565b6001600160a01b03918216600090815260056020908152604080832093909416825291909152205460ff1690565b60006001600160e01b0319821663780e9d6360e01b14806102c657506102c682610991565b92915050565b6060600080546102db90611715565b80601f016020809104026020016040519081016040528092919081815260200182805461030790611715565b80156103545780601f1061032957610100808354040283529160200191610354565b820191906000526020600020905b81548152906001019060200180831161033757829003601f168201915b5050505050905090565b6000818152600260205260408120546001600160a01b03166103dc5760405162461bcd60e51b815260206004820152602c60248201527f4552433732313a20617070726f76656420717565727920666f72206e6f6e657860448201526b34b9ba32b73a103a37b5b2b760a11b60648201526084015b60405180910390fd5b506000908152600460205260409020546001600160a01b031690565b600061040382610691565b9050806001600160a01b0316836001600160a01b031614156104715760405162461bcd60e51b815260206004820152602160248201527f4552433732313a20617070726f76616c20746f2063757272656e74206f776e656044820152603960f91b60648201526084016103d3565b336001600160a01b038216148061048d575061048d8133610273565b6104ff5760405162461bcd60e51b815260206004820152603860248201527f4552433732313a20617070726f76652063616c6c6572206973206e6f74206f7760448201527f6e6572206e6f7220617070726f76656420666f7220616c6c000000000000000060648201526084016103d3565b61050983836109e1565b505050565b6105183382610a4f565b6105345760405162461bcd60e51b81526004016103d390611655565b610509838383610b46565b600061054a83610708565b82106105ac5760405162461bcd60e51b815260206004820152602b60248201527f455243373231456e756d657261626c653a206f776e657220696e646578206f7560448201526a74206f6620626f756e647360a81b60648201526084016103d3565b506001600160a01b03919091166000908152600660209081526040808320938352929052205490565b61050983838360405180602001604052806000815250610871565b60006105fb60085490565b821061065e5760405162461bcd60e51b815260206004820152602c60248201527f455243373231456e756d657261626c653a20676c6f62616c20696e646578206f60448201526b7574206f6620626f756e647360a01b60648201526084016103d3565b6008828154811061067f57634e487b7160e01b600052603260045260246000fd5b90600052602060002001549050919050565b6000818152600260205260408120546001600160a01b0316806102c65760405162461bcd60e51b815260206004820152602960248201527f4552433732313a206f776e657220717565727920666f72206e6f6e657869737460448201526832b73a103a37b5b2b760b91b60648201526084016103d3565b60006001600160a01b0382166107735760405162461bcd60e51b815260206004820152602a60248201527f4552433732313a2062616c616e636520717565727920666f7220746865207a65604482015269726f206164647265737360b01b60648201526084016103d3565b506001600160a01b031660009081526003602052604090205490565b6107998183610cf1565b5050565b6060600180546102db90611715565b6001600160a01b0382163314156108055760405162461bcd60e51b815260206004820152601960248201527f4552433732313a20617070726f766520746f2063616c6c65720000000000000060448201526064016103d3565b3360008181526005602090815260408083206001600160a01b03871680855290835292819020805460ff191686151590811790915590519081529192917f17307eab39ab6107e8899845ad3d59bd9653f200f220920489ca2b5937696c31910160405180910390a35050565b61087b3383610a4f565b6108975760405162461bcd60e51b81526004016103d390611655565b6108a384848484610e3f565b50505050565b6000818152600260205260409020546060906001600160a01b03166109285760405162461bcd60e51b815260206004820152602f60248201527f4552433732314d657461646174613a2055524920717565727920666f72206e6f60448201526e3732bc34b9ba32b73a103a37b5b2b760891b60648201526084016103d3565b600061093f60408051602081019091526000815290565b9050600081511161095f576040518060200160405280600081525061098a565b8061096984610e72565b60405160200161097a929190611584565b6040516020818303038152906040525b9392505050565b60006001600160e01b031982166380ac58cd60e01b14806109c257506001600160e01b03198216635b5e139f60e01b145b806102c657506301ffc9a760e01b6001600160e01b03198316146102c6565b600081815260046020526040902080546001600160a01b0319166001600160a01b0384169081179091558190610a1682610691565b6001600160a01b03167f8c5be1e5ebec7d5bd14f71427d1e84f3dd0314c0f7b2291e5b200ac8c7c3b92560405160405180910390a45050565b6000818152600260205260408120546001600160a01b0316610ac85760405162461bcd60e51b815260206004820152602c60248201527f4552433732313a206f70657261746f7220717565727920666f72206e6f6e657860448201526b34b9ba32b73a103a37b5b2b760a11b60648201526084016103d3565b6000610ad383610691565b9050806001600160a01b0316846001600160a01b03161480610b0e5750836001600160a01b0316610b038461035e565b6001600160a01b0316145b80610b3e57506001600160a01b0380821660009081526005602090815260408083209388168352929052205460ff165b949350505050565b826001600160a01b0316610b5982610691565b6001600160a01b031614610bc15760405162461bcd60e51b815260206004820152602960248201527f4552433732313a207472616e73666572206f6620746f6b656e2074686174206960448201526839903737ba1037bbb760b91b60648201526084016103d3565b6001600160a01b038216610c235760405162461bcd60e51b8152602060048201526024808201527f4552433732313a207472616e7366657220746f20746865207a65726f206164646044820152637265737360e01b60648201526084016103d3565b610c2e838383610f8c565b610c396000826109e1565b6001600160a01b0383166000908152600360205260408120805460019290610c629084906116d2565b90915550506001600160a01b0382166000908152600360205260408120805460019290610c909084906116a6565b909155505060008181526002602052604080822080546001600160a01b0319166001600160a01b0386811691821790925591518493918716917fddf252ad1be2c89b69c2b068fc378daa952ba7f163c4a11628f55a4df523b3ef91a4505050565b6001600160a01b038216610d475760405162461bcd60e51b815260206004820181905260248201527f4552433732313a206d696e7420746f20746865207a65726f206164647265737360448201526064016103d3565b6000818152600260205260409020546001600160a01b031615610dac5760405162461bcd60e51b815260206004820152601c60248201527f4552433732313a20746f6b656e20616c7265616479206d696e7465640000000060448201526064016103d3565b610db860008383610f8c565b6001600160a01b0382166000908152600360205260408120805460019290610de19084906116a6565b909155505060008181526002602052604080822080546001600160a01b0319166001600160a01b03861690811790915590518392907fddf252ad1be2c89b69c2b068fc378daa952ba7f163c4a11628f55a4df523b3ef908290a45050565b610e4a848484610b46565b610e5684848484611044565b6108a35760405162461bcd60e51b81526004016103d390611603565b606081610e965750506040805180820190915260018152600360fc1b602082015290565b8160005b8115610ec05780610eaa81611750565b9150610eb99050600a836116be565b9150610e9a565b60008167ffffffffffffffff811115610ee957634e487b7160e01b600052604160045260246000fd5b6040519080825280601f01601f191660200182016040528015610f13576020820181803683370190505b5090505b8415610b3e57610f286001836116d2565b9150610f35600a8661176b565b610f409060306116a6565b60f81b818381518110610f6357634e487b7160e01b600052603260045260246000fd5b60200101906001600160f81b031916908160001a905350610f85600a866116be565b9450610f17565b6001600160a01b038316610fe757610fe281600880546000838152600960205260408120829055600182018355919091527ff3f7a9fe364faab93b216da50a3214154f22a0a2b415b23a84c8169e8b636ee30155565b61100a565b816001600160a01b0316836001600160a01b03161461100a5761100a8382611151565b6001600160a01b03821661102157610509816111ee565b826001600160a01b0316826001600160a01b0316146105095761050982826112c7565b60006001600160a01b0384163b1561114657604051630a85bd0160e11b81526001600160a01b0385169063150b7a02906110889033908990889088906004016115b3565b602060405180830381600087803b1580156110a257600080fd5b505af19250505080156110d2575060408051601f3d908101601f191682019092526110cf91810190611502565b60015b61112c573d808015611100576040519150601f19603f3d011682016040523d82523d6000602084013e611105565b606091505b5080516111245760405162461bcd60e51b81526004016103d390611603565b805181602001fd5b6001600160e01b031916630a85bd0160e11b149050610b3e565b506001949350505050565b6000600161115e84610708565b61116891906116d2565b6000838152600760205260409020549091508082146111bb576001600160a01b03841660009081526006602090815260408083208584528252808320548484528184208190558352600790915290208190555b5060009182526007602090815260408084208490556001600160a01b039094168352600681528383209183525290812055565b600854600090611200906001906116d2565b6000838152600960205260408120546008805493945090928490811061123657634e487b7160e01b600052603260045260246000fd5b90600052602060002001549050806008838154811061126557634e487b7160e01b600052603260045260246000fd5b60009182526020808320909101929092558281526009909152604080822084905585825281205560088054806112ab57634e487b7160e01b600052603160045260246000fd5b6001900381819060005260206000200160009055905550505050565b60006112d283610708565b6001600160a01b039093166000908152600660209081526040808320868452825280832085905593825260079052919091209190915550565b80356001600160a01b038116811461132257600080fd5b919050565b600060208284031215611338578081fd5b61098a8261130b565b60008060408385031215611353578081fd5b61135c8361130b565b915061136a6020840161130b565b90509250929050565b600080600060608486031215611387578081fd5b6113908461130b565b925061139e6020850161130b565b9150604084013590509250925092565b600080600080608085870312156113c3578081fd5b6113cc8561130b565b93506113da6020860161130b565b925060408501359150606085013567ffffffffffffffff808211156113fd578283fd5b818701915087601f830112611410578283fd5b813581811115611422576114226117ab565b604051601f8201601f19908116603f0116810190838211818310171561144a5761144a6117ab565b816040528281528a6020848701011115611462578586fd5b82602086016020830137918201602001949094529598949750929550505050565b60008060408385031215611495578182fd5b61149e8361130b565b9150602083013580151581146114b2578182fd5b809150509250929050565b600080604083850312156114cf578182fd5b6114d88361130b565b946020939093013593505050565b6000602082840312156114f7578081fd5b813561098a816117c1565b600060208284031215611513578081fd5b815161098a816117c1565b60006020828403121561152f578081fd5b5035919050565b60008060408385031215611548578182fd5b8235915061136a6020840161130b565b600081518084526115708160208601602086016116e9565b601f01601f19169290920160200192915050565b600083516115968184602088016116e9565b8351908301906115aa8183602088016116e9565b01949350505050565b6001600160a01b03858116825284166020820152604081018390526080606082018190526000906115e690830184611558565b9695505050505050565b60208152600061098a6020830184611558565b60208082526032908201527f4552433732313a207472616e7366657220746f206e6f6e20455243373231526560408201527131b2b4bb32b91034b6b83632b6b2b73a32b960711b606082015260800190565b60208082526031908201527f4552433732313a207472616e736665722063616c6c6572206973206e6f74206f6040820152701ddb995c881b9bdc88185c1c1c9bdd9959607a1b606082015260800190565b600082198211156116b9576116b961177f565b500190565b6000826116cd576116cd611795565b500490565b6000828210156116e4576116e461177f565b500390565b60005b838110156117045781810151838201526020016116ec565b838111156108a35750506000910152565b600181811c9082168061172957607f821691505b6020821081141561174a57634e487b7160e01b600052602260045260246000fd5b50919050565b60006000198214156117645761176461177f565b5060010190565b60008261177a5761177a611795565b500690565b634e487b7160e01b600052601160045260246000fd5b634e487b7160e01b600052601260045260246000fd5b634e487b7160e01b600052604160045260246000fd5b6001600160e01b0319811681146117d757600080fd5b5056fea2646970667358221220e0981acc8c05f824594a760cd4336c5f889ee1a5a3fbda2028f806c7f3602c9f64736f6c63430008040033",
  "immutableReferences": {},
  "source": "// SPDX-License-Identifier: MIT\npragma solidity >=0.4.22 <0.9.0;\n\nimport \"@openzeppelin/contracts/token/ERC721/extensions/ERC721Enumerable.sol\";\n\ncontract Test721 is ERC721Enumerable {\n  constructor() ERC721(\"\", \"\") {\n    _mint(msg.sender, 1);\n  }\n\n  function mint(uint256 tokenId, address to) public {\n    _mint(to, tokenId);\n  }\n}\n",
  "sourcePath": "/Users/seanpapanikolas/Projects/pxg/contracts/Test721.sol",
  "compiler": {
    "name": "solc",
    "version": "0.8.4+commit.c7e474f2.Emscripten.clang"
  },
  "schemaVersion": "3.4.2",
  "updatedAt": "2021-08-20T01:23:44.928Z",
  "networkType": "ethereum",
  "devdoc": {
    "kind": "dev",
    "methods": {
      "approve(address,uint256)": {
        "details": "See {IERC721-approve}."
      },
      "balanceOf(address)": {
        "details": "See {IERC721-balanceOf}."
      },
      "getApproved(uint256)": {
        "details": "See {IERC721-getApproved}."
      },
      "isApprovedForAll(address,address)": {
        "details": "See {IERC721-isApprovedForAll}."
      },
      "name()": {
        "details": "See {IERC721Metadata-name}."
      },
      "ownerOf(uint256)": {
        "details": "See {IERC721-ownerOf}."
      },
      "safeTransferFrom(address,address,uint256)": {
        "details": "See {IERC721-safeTransferFrom}."
      },
      "safeTransferFrom(address,address,uint256,bytes)": {
        "details": "See {IERC721-safeTransferFrom}."
      },
      "setApprovalForAll(address,bool)": {
        "details": "See {IERC721-setApprovalForAll}."
      },
      "supportsInterface(bytes4)": {
        "details": "See {IERC165-supportsInterface}."
      },
      "symbol()": {
        "details": "See {IERC721Metadata-symbol}."
      },
      "tokenByIndex(uint256)": {
        "details": "See {IERC721Enumerable-tokenByIndex}."
      },
      "tokenOfOwnerByIndex(address,uint256)": {
        "details": "See {IERC721Enumerable-tokenOfOwnerByIndex}."
      },
      "tokenURI(uint256)": {
        "details": "See {IERC721Metadata-tokenURI}."
      },
      "totalSupply()": {
        "details": "See {IERC721Enumerable-totalSupply}."
      },
      "transferFrom(address,address,uint256)": {
        "details": "See {IERC721-transferFrom}."
      }
    },
    "version": 1
  },
  "userdoc": {
    "kind": "user",
    "methods": {},
    "version": 1
  }
}